:1000000000400020C50A0000050B0000070B00009F
:1000100000000000000000000000000000000000E0
:10002000000000000000000000000000090B0000BC
:1000300000000000000000000B0B00000D0B000092
:100040000F0B00000F0B00000F0B00000F0B000048
:100050000F0B0000000000000F0B00000F0B000052
:100060000F0B00000F0B00000F0B00000F0B000028
:100070000F0B00000F0B00000F0B00000F0B000018
:100080000F0B00000F0B00000F0B00000F0B000008
:100090000F0B00000F0B00000F0B00000F0B0000F8
:1000A0000F0B00000F0B000000000000000000001C
:1000B0000000000000000000000000000000000040
:1000C0000448054B10B5834203D0044B002B00D0ED
:1000D000984710BD3C0400203C04002000000000B4
:1000E00006480749091A8910CB0F591810B549104D
:1000F00003D0044B002B00D0984710BD3C040020D7
:100100003C0400200000000010B5074C2378002BB1
:1001100009D1FFF7D5FF054B002B02D0044800E0C2
:1001200000BF0123237010BD3C040020000000002C
:10013000D80D0000054B10B5002B03D0044905482D
:1001400000E000BFFFF7CCFF10BDC046000000007C
:1001500040040020D80D0000144B002B00D1124B9E
:100160009D46402292029A1A924600218B460F46E3
:100170001148124A121A00F021FD0D4B002B00D03D
:1001800098470C4B002B00D098470020002104001A
:100190000D000B4800F0BCFC00F0ECFC2000290036
:1001A00000F010F800F0BCFC000008000040002047
:1001B00000000000000000003C0400205804002063
:1001C000410B000080B582B000AF00F083FB00F06F
:1001D0008FFA00F0E9FABA1C391DBB1D180000F0B7
:1001E000A6FABB1D180000F047FB00F05BFBF2E72E
:1001F00080B582B000AF7860144B01225A60134B77
:100200000122DA60114A124B0021D1500F4AA1237A
:10021000DB000221D1500D4A80239B000121D150E7
:100220000A4AA0235B000021D150084AA223DB0028
:100230000021D1500549A823DB007A68CA50034B3E
:1002400001221A60C046BD4602B080BD0090004049
:100250000405000080B500AF034B1800FFF7C8FF8E
:10026000C046BD4680BDC04600127A0080B500AFD2
:10027000034AA0235B00D358DBB21800BD4680BD03
:100280000090004080B582B000AF2A4AA023DB0076
:100290000021D150A023DA05E023DB000121D15059
:1002A000A023DA05EF23DB000121D150A023DA05DA
:1002B000A123DB002049D150204B1800FFF798FF05
:1002C000FB1D00221A7027E0C0461D4AA0235B00D8
:1002D000D358002BF9D0A023DB051A4A01219950ED
:1002E000174AA0235B000021D150C046144AA02326
:1002F0005B00D358002BF9D0A023DA05A123DB0043
:100300000121D1500E4AA0235B000021D150FB1DDA
:100310001A78FB1D01321A70FB1D1B78082BD3D9EC
:10032000074B01225A6000F01FF9C046BD4602B0DB
:1003300080BDC04600300040010000400071020056
:10034000009000400C05000090B585B000AF04009F
:10035000080011003B60FB1D221C1A70BB1D021C13
:100360001A707B1D0A1C1A704649FB1D1A78B123AE
:10037000DB00CA50434B01229A60424A8E235B0045
:100380000021D1503F49BB1D1B783F4A8B50FFF7DE
:1003900061FF05E0FFF76AFF031E01D000236DE057
:1003A000384A8E235B00D358002BF3D00F23FB1861
:1003B00000221A7006E0C0460F217B181A787B18BD
:1003C00001321A700F23FB181B78092BF3D92D4A21
:1003D00084235B000021D1502A4B01221A600E2396
:1003E000FB1800221A7023E0FFF734FF05E0FFF747
:1003F0003DFF031E01D0002340E0224A84235B001E
:10040000D358002BF3D01F4A84235B000021D15026
:100410001C4AA323DB00D1580E203B181B783A68F6
:10042000D318CAB21A703B181A783B1801321A70E6
:100430000E23FB181A787B1D1B78013B9A42D3DBF5
:10044000104B01225A61FFF705FF05E0FFF70EFF91
:10045000031E01D0002311E00A4A84235B00D35815
:10046000002BF3D0074AA323DB00D1587B1D1B7858
:10047000013B3A68D318CAB21A7001231800BD466E
:1004800005B090BD003000401C05000090B585B05F
:1004900000AF0400080011003B60FB1D221C1A7015
:1004A000BB1D021C1A707B1D0A1C1A702C49FB1DF7
:1004B0001A78B123DB00CA50294B01229A60284ADE
:1004C0008E235B000021D1502549BB1D1B78254A96
:1004D0008B50FFF7BFFE05E0FFF7C8FE031E01D0FB
:1004E000002339E01E4A8E235B00D358002BF3D043
:1004F0000F23FB1800221A7023E0194A8E235B0099
:100500000021D1500F23FB181B783A68D3181B78B1
:10051000134A1900134BD150FFF79CFE05E0FFF77B
:10052000A5FE031E01D0002316E00D4A8E235B00BA
:10053000D358002BF3D00F217B181A787B18013287
:100540001A700F23FA187B1D12781B789A42D4D3A5
:10055000034B01225A6101231800BD4605B090BD2E
:10056000003000401C05000080B500AF1B4AA023EE
:10057000DB000021D150A023DA05E023DB00C021FD
:10058000C900D150A023DA05EF23DB00C021C90048
:10059000D150124A84235B000021D1500F4A8E2390
:1005A0005B000021D1500D4A92235B000021D15005
:1005B0000A4AA123DB000021D150084A084B1E2122
:1005C000D1500649074ACC235B048B50034AA02331
:1005D000DB000521D150C046BD4680BD0030004043
:1005E0000C05000024050000F0B585B000AF040044
:1005F000080011003B60FB1D221C1A70BB1D021C71
:100600001A707B1D0A1C1A700F26BC193D687B1DD1
:100610001A78BB1D1978FB1D18782B00FFF794FE84
:1006200003002370BB191B78002B02D1FFF72AFEB1
:10063000EAE7C046C046BD4605B0F0BDF0B585B09E
:1006400000AF0400080011003B60FB1D221C1A7063
:10065000BB1D021C1A707B1D0A1C1A700F26BC19C8
:100660003D687B1D1A78BB1D1978FB1D18782B007F
:10067000FFF70CFF03002370BB191B78002B02D17E
:10068000FFF700FEEAE7C046C046BD4605B0F0BD34
:1006900080B582B000AF0200FB1D1A70BB1D0A1CA2
:1006A0001A70BA1DFB1D1978130001221920FFF7DB
:1006B000C5FFC046BD4602B080BD000080B584B015
:1006C00000AF78607B68FB60FB681B881A008023A2
:1006D0001B01134006D0FB681B88044A13439AB2DF
:1006E000FB681A80C046BD4604B080BD00F0FFFF25
:1006F00080B500AFFFF738FF57212020FFF7C8FF74
:1007000000212120FFF7C4FF00212220FFF7C0FFB6
:1007100008212320FFF7BCFF00212420FFF7B8FFAA
:1007200000212520FFF7B4FFC046BD4680BD90B52F
:1007300087B000AFF860B9607A6010210C007B18B8
:100740000622A8211920FFF74FFF21007B185B78B4
:100750001B027A18127813431B111AB2FB681A8015
:100760007B18DB781B027A18927813431B111AB29C
:10077000BB681A807B185B791B027A1812791343C5
:100780001B111AB27B681A80FB681800FFF796FFEE
:10079000BB681800FFF792FF7B681800FFF78EFF19
:1007A000C046BD4607B090BD80B500AFA023DB05B5
:1007B000084A01219950A023DA05E123DB00012139
:1007C000D150A023DB05044A01219950C046BD4603
:1007D00080BDC0460C0700000407000080B582B051
:1007E00000AF78607B6800229B5EC73301DB022389
:1007F00007E07B6800229B5EC72B01DC032300E03F
:1008000001231800BD4602B080BD000080B582B053
:1008100000AF78607B681B78022B04D0032B0ED0CE
:10082000012B18D022E0A023DA05A123DB00082148
:10083000D150A023DB050F4A0421995016E0A023D4
:10084000DA05A123DB000421D150A023DB05094AEE
:10085000082199500AE0A023DB05064A042199509B
:10086000A023DB05034A08219950C046C046BD4677
:1008700002B080BD0C05000080B584B000AF786088
:100880007B681800FFF7AAFF03001A000F217B18EE
:100890001A707B181800FFF7B9FFC046BD4604B0B8
:1008A00080BD000080B500AF00F026F8031E06D022
:1008B000A023DA05A123DB000221D15004E0A0230C
:1008C000DB05034A02219950C046BD4680BDC046A3
:1008D0000C05000080B500AFA023DB05054A002110
:1008E0009950A023DA05ED23DB000021D150C0464A
:1008F000BD4680BD4407000080B500AFA023DA05E7
:10090000A223DB00D2588023DB04134001D0002354
:1009100000E001231800BD4680BD000080B500AF97
:1009200000F036F8031E06D0134B144A1A60144B1D
:10093000802212021A6000F06BF8031E05D080239B
:10094000DA05C123DB000121D15000F087F8031E36
:100950000ED00C4B1B68012B07D00A4B0A4A1A60B9
:10096000C046084B1B68012BFBD1084BC0221A6004
:10097000C046BD4680BDC04604050040DFFF07C03D
:10098000186C004000EC06407593000014EC064023
:1009900080B500AF1A4B1B68FF221340012B2AD1F0
:1009A000184B1B680F22134025D1174B1B68F022F0
:1009B000134006D1154B1B68F022134001D10123CF
:1009C0001AE0114B1B68F0221340102B06D10F4B7D
:1009D0001B68F022134001D101230DE00A4B1B6874
:1009E000F0221340302B06D1084B1B68F022134035
:1009F00001D1012300E000231800BD4680BDC046A0
:100A0000E00F00F0E40F00F0E80F00F0EC0F00F052
:100A100080B500AF0D4B1B68FF221340012B11D195
:100A20000B4B1B680F2213400CD10A4B1B68F022A2
:100A30001340402B06D1084B1B68F022134001D114
:100A4000012300E000231800BD4680BDE00F00F048
:100A5000E40F00F0E80F00F0EC0F00F080B500AFFD
:100A6000144B1B68FF221340012B1ED1124B1B6835
:100A70000F22134019D1114B1B68F0221340A02BF9
:100A800006D10F4B1B68F022134001D101230DE06A
:100A90000A4B1B68F0221340D02B06D1084B1B6871
:100AA000F022134001D1012300E000231800BD46CD
:100AB00080BDC046E00F00F0E40F00F0E80F00F04A
:100AC000EC0F00F003210A4802680A43026009485B
:100AD00002680A4302600849084A094B9B1A03DD71
:100AE000043BC858D050FBDCFFF718FFFFF734FB7E
:100AF0002405004054050040E40D000000000020E3
:100B00003C040020FEE7FEE7FEE7FEE7FEE7FEE727
:100B100010B5010000230022002000F09DF810BD58
:100B200010B50021040000F0DBF8044B1868C36B1B
:100B3000002B00D09847200000F03EF9D40D0000B3
:100B400070B5094B094CE41AA41009D0084AA5183D
:100B5000AD00ED182B68013C9847043D002CF9D1FD
:100B600000F032F970BDC046380400203C0400207B
:100B7000FFFFFF3F70B50D4E0D4DAD1BAD1006D004
:100B80000024A300F35801349847A542F9D100F09E
:100B900015F9084E084DAD1BAD1006D00024A3007A
:100BA000F35801349847A542F9D170BD30040020B4
:100BB000300400203004002038040020F0B5830702
:100BC00046D0541E002A42D0CEB20200032502E0D5
:100BD0001A00013C3BD3531C16702B42F8D1032C56
:100BE0002DD9FF220A40150215432A0415430F2C64
:100BF00016D92700103F3F093E01B4461E001A00D7
:100C000010366644156055609560D5601032B2426A
:100C1000F8D10F2201373F01DB191440032C0ED904
:100C2000261FB608B700BC461A001F1D674420C225
:100C3000BA42FCD103220136B6009B191440002CA5
:100C400005D0C9B21C19197001339C42FBD1F0BD0B
:100C500014000300C3E7C046F0B5C64600B51F4CFC
:100C600082B024680194A424019D64002D59002DB4
:100C70002BD06C681F2C2EDC002809D10020631CAF
:100C80000234A4006B60615102B004BC9046F0BD18
:100C90008827A600AE19F2510137FF37BC46012262
:100CA000AC446746A2403F689046174362461760CF
:100CB00084277F00F3510228E0D12B0040468D337A
:100CC000FF331A6810431860D8E7019D019E4D3527
:100CD000FF353551CDE701204042D5E7D40D000066
:100CE000F0B54E46DE4657464546E0B52B4B83B041
:100CF0001B6801901A000093A4235B00D6580122C0
:100D00000F0093469946002E30D07468651E2DD48E
:100D1000C4235B009A460134A4003419B24402E0B3
:100D2000043C013D22D3002F04D0631CFF331B6819
:100D3000BB42F5D173682268013BAB421DD0002352
:100D40002360002AECD07368514698465B46AB405E
:100D50000968194213D190474A46009B9B58726814
:100D6000424501D19E42DBD01E1ECED103B03CBC19
:100D700090469946A246AB46F0BD7560E1E730006B
:100D800021008D30FF30006880310968184202D19F
:100D900001989047E0E708009047DDE7D40D000098
:100DA000034B10B5002B02D00248FFF7B1FE10BD77
:100DB00000000000410B0000FEE7C046F8B5C04649
:100DC000F8BC08BC9E467047F8B5C046F8BC08BCE5
:0C0DD0009E467047080000200000000054
:080DDC007CF3FF7F0100000021
:100DE400080000200000000000000000F4020020C1
:100DF4005C030020C4030020000000000000000089
:100E040000000000000000000000000000000000DE
:100E140000000000000000000000000000000000CE
:100E240000000000000000000000000000000000BE
:100E340000000000000000000000000000000000AE
:100E4400000000000000000000000000000000009E
:100E5400000000000000000000000000000000008E
:100E6400000000000000000000000000000000007E
:100E7400000000000000000000000000000000006E
:100E8400000000000000000000000000000000005E
:100E940001000000000000000E33CDAB34126DE6FB
:100EA400ECDE05000B000000000000000000000064
:100EB400000000000000000000000000000000002E
:100EC400000000000000000000000000000000001E
:100ED400000000000000000000000000000000000E
:100EE40000000000000000000000000000000000FE
:0C121400A10D00003501000009010000E0
:0400000300000AC52A
:00000001FF
