:100000000C94EB010C9423030C94CF060C9408027F
:100010000C9408020C9408020C9408020C94080238
:100020000C9408020C9408020C9408020C94080228
:100030000C9408020C9406070C9408020C94080215
:100040000C9408020C9408020C9408020C94080208
:100050000C9408020C9408020C9408020C940802F8
:100060000C9408020C9408020C9408020C940802E8
:1000700074008200526573657400A50096008900C3
:10008000820052657475726E0053656C65637420EE
:100090006D75736963005365742062726967687473
:1000A0006E65737300536574206469666669637571
:1000B0006C747900D400CB00C100BC005175697428
:1000C000004869676873636F72650053657474698B
:1000D0006E6773004E65772067616D6500000000F4
:1000E000000000000000065F5F0600000000070738
:1000F0000007070000147F7F147F7F1400242E6BFD
:100100006B3A120000466630180C666200307A4F77
:100110005D377A48000407030000000000001C3E21
:1001200063410000000041633E1C000000082A3EBD
:100130001C1C3E2A0808083E3E0808000000A0E0FB
:1001400060000000000808080808080000000060BF
:1001500060000000006030180C060301003E7F596B
:100160004D7F3E000042427F7F4040000062735955
:10017000496F660000226349497F360000181C164B
:10018000137F7F1000276745457D3900003C7E4B7B
:100190004979300000036371190F070000367F4969
:1001A000497F360000064F49693F1E000000006C81
:1001B0006C0000000000A0EC6C00000000081C3681
:1001C000634100000014141414141400000041636F
:1001D000361C080000020351590F0600003E7F4103
:1001E0005D5D1F1E007C7E13137E7C0000417F7FBF
:1001F00049497F36001C3E634141632200417F7FB5
:1002000041637F1C00417F7F495D416300417F7FE7
:10021000491D0103001C3E6341517372007F7F083A
:10022000087F7F000000417F7F4100000030704068
:10023000417F3F0100417F7F081C776300417F7F42
:1002400041406070007F7F060C067F7F007F7F0645
:100250000C187F7F001C3E6341633E1C00417F7F82
:1002600049090F06001E3F21717F5E0000417F7F1C
:1002700019396F460026674D597B32000003417FD4
:100280007F410300007F7F40407F7F00001F3F6071
:10029000603F1F00007F7F3018307F7F0063771C36
:1002A000081C776300074F78784F07000067735981
:1002B0004D47637100007F7F41410000000103064C
:1002C0000C183060000041417F7F000000080C06E0
:1002D00003060C08008080808080808080000003FE
:1002E0000704000000207454543C784000413F7FD4
:1002F00044447C3800387C44446C28000030784802
:10030000493F7F4000387C54545C180000487E7F91
:10031000490302000098BCA4A4F87C0400417F7F3C
:1003200008047C780000447D7D4000000040C484C7
:10033000FD7D000000417F7F10386C440000417F4C
:100340007F400000007C7C0C180C7C78007C7C04D6
:10035000047C780000387C44447C38000084FCF83D
:10036000A4243C1800183C24A4F8FC8400447C78A5
:10037000441C180000485C54547424000000043EDF
:100380007F442400003C7C40403C7C40001C3C609E
:10039000603C1C00003C7C6030607C3C00446C385D
:1003A00010386C44009CBCA0A0FC7C00004C647421
:1003B0005C4C64000008083E7741410000000000EA
:1003C00077770000004141773E08080000020301F2
:1003D00003020301000011241FBECFEFD4E0DEBFF3
:1003E000CDBF12E0A0E0B1E0EAECFEE102C0059072
:1003F0000D92A634B107D9F722E0A6E4B2E001C01D
:100400001D92A635B207E1F70E9434070C94630FE2
:100410000C943804CF93DF93C82F0E94A404892B37
:1004200081F48C2F0E94CA04EC01892B69F460E6E8
:1004300080E60E9458044FEF63E08BE20E94820442
:1004400005C0C1E0D0E002C0C1E0D0E0CE01DF9144
:10045000CF910895CF92DF92EF92FF921F93CF93A7
:10046000DF936C01FC0160817181769567957695CB
:1004700067957695679581E30E945804F60160813F
:100480006295660F607E82E30E945804F6016281E5
:1004900085E30E945804F60182811816BCF47601A7
:1004A000F3E0EF0EF11C16E3C0E0D0E0F70161913C
:1004B0007F01812F0E94580421961F5FF6018281DF
:1004C000082E000C990BC817D90784F30E946C04FE
:1004D000DF91CF911F91FF90EF90DF90CF90089523
:1004E0008F929F92AF92BF92CF92DF92EF92FF9244
:1004F0000F931F93CF93DF93CDB7DEB72B970FB634
:10050000F894DEBF0FBECDBF4C01FE0131968BE0EB
:10051000DF011D928A95E9F78CE20E94460480FF74
:1005200031C082E60E944604182F81E60E944604EC
:10053000129516951770B8E08B9FC00111245C01CD
:10054000A10EB11C85E60E944604082F18160CF077
:1005500051C07E01E4E0EE0EF11CCE01800F911D32
:1005600007FD9A959C012C5F3F4F690116E6812F8C
:100570000E944604D7018D937D011F5FAC15BD0518
:10058000B1F738C08CE20E94460481FF30C082E798
:100590000E944604182F81E70E9446041295169582
:1005A0001770B8E08B9FC00111245C01A10EB11C33
:1005B00085E70E944604082F1816E4F47E01E4E063
:1005C000EE0EF11CCE01800F911D07FD9A959C0146
:1005D0002C5F3F4F690116E7812F0E944604D70127
:1005E0008D937D011F5FAC15BD05B1F703C000E021
:1005F000A12CB12C1092460240E063E08CE20E94F4
:100600008204BA82A9820B838BE0FE013196D40169
:1006100001900D928A95E1F7C4012B960FB6F894DC
:10062000DEBF0FBECDBFDF91CF911F910F91FF9025
:10063000EF90DF90CF90BF90AF909F908F900895F4
:100640008091460208951F920F920FB60F921124C7
:100650008F9381E0809346028F910F900FBE0F9091
:100660001F901895282F249FC001259F900D1124BD
:10067000992314F481509F4F292F392F330F330BB7
:10068000FA0155230CF43196F595E795DF01A60F95
:10069000B71FA217B3079CF4421B530B469FC00120
:1006A000479F900D569F900D1124AF01461B570B8D
:1006B000BA010E94D809C901861B970B0895269F8D
:1006C000C001279F900D369F900D1124BD010E94FF
:1006D000D809C901861B970B08951F93CF93DF9309
:1006E00083E00E94FA03C82F82E00E94FA03182FC9
:1006F00044E650E06EE070E08C2F0E943203EC0183
:1007000044E650E06FE070E0812F0E943203AE01BA
:10071000BC01CB01BA01DF91CF911F910895CF9316
:10072000DF93CDB7DEB72B970FB6F894DEBF0FBEC1
:10073000CDBF0E946D03FE0131969BE0DF011D924B
:100740009A95E9F722E030E03A83298392E09B838F
:100750006C838D83CF010E942A022B960FB6F894EA
:10076000DEBF0FBECDBFDF91CF9108955D9BFECF61
:100770008CB908955F9BFECF8CB1089590BD89B967
:1007800088E18AB98EE880BD08956AEB73E086EB54
:1007900093E00E94840B089587B3806B87BB87B377
:1007A000817B87BB81E58DB9C49A08958FB9779B0A
:1007B000FECF089580E00E94D6038FB10895B89AC5
:1007C00083B7886083BF83B78F7B83BF83B78F7DF9
:1007D00083BF83B7806183BF83B78B7F83BF83B7BA
:1007E0008D7F83BF83B7816083BF11BE08950E9450
:1007F000DF030895109200140000482F50E020E01D
:1008000030E0E0E0F4E180812F5F3F4F4217530773
:10081000D4F70895F8948B988BB780688BBF85B711
:10082000886085BF85B78B7F85BF78940895F894DD
:100830001FBC1EBC1DBC1CBC87E290E09BBD8ABDDA
:100840008EB588608EBD8EB585608EBD89B780649B
:1008500089BF78940895F8948A988BB780648BBF89
:1008600085B7826085BF85B78E7F85BF78940895F0
:100870001F920F920FB60F9211240F900FBE0F9080
:100880001F901895C4980895C49A0895CF93C82FBF
:100890000E94420483E00E94D6038C2F0E94D6035C
:1008A0000E94DA03C82F0E9444048C2FCF91089530
:1008B000CF93DF93D82FC62F0E94420482E00E947C
:1008C000D6038D2F0E94D6038C2F0E94D6030E9440
:1008D0004404DF91CF9108950E94420481E80E9470
:1008E000D6030E9444040895CF930E94420480EAF4
:1008F0000E94D6030E94DA03C82F0E9444048C2F62
:10090000CF9108951F93CF93DF93182FD62FC42F25
:100910000E94420485E00E94D603812F0E94D603E4
:100920008D2F0E94D6038C2F0E94D6030E94440470
:10093000DF91CF911F9108950E94420480EC0E94A4
:10094000D6030E94440408950E94CC030E949C0494
:100950008DEE92E00197F1F700C000008EE00E945A
:100960004604807E803839F08AE091E00E94E50BF1
:1009700081E090E0089561EC8AE20E94580469EAFF
:1009800089E20E94580466E088E20E94580480E0F0
:1009900090E00895CF93C82F482F60EE8FE00E941B
:1009A00082048EE00E944604807EC81739F083E4FA
:1009B00091E00E94E50B81E090E002C080E090E0D1
:1009C000CF910895E0914A02F0914B020480F581A5
:1009D000E02D8481958190934B0280934A0210927E
:1009E0004802109247020895E0914A02F0914B02AA
:1009F0000190F081E02D8481958190934B0280934A
:100A00004A02109248021092470208950F931F93D2
:100A1000CF93DF938C01EB0186E090E00E94000A07
:100A2000FC0111830083D383C28315821482DF917A
:100A3000CF911F910F910895CF92DF92EF92FF9285
:100A40000F931F93CF93DF936C017B018A01E90120
:100A50008CE090E00E94000AFC01D182C082F38207
:100A6000E28215830483D387C28717821682118698
:100A70001086DF91CF911F910F91FF90EF90DF9043
:100A8000CF900895FC0177836683FB01918780876F
:100A900008950E949408009719F0019731F14BC016
:100AA000E0914A02F0914B020084F185E02DF09331
:100AB0004B02E0934A0280914702909148020097CE
:100AC00059F40280F381E02D828193810197909304
:100AD00048028093470205C0019790934802809393
:100AE000470281E08093490226C0E0914A02F091DA
:100AF0004B020680F781E02DF0934B02E0934A020F
:100B000080914702909148020280F381E02D22817A
:100B10003381215031092817390729F410924802EE
:100B20001092470205C001969093480280934702B5
:100B300081E0809349022FEF8FE392E021508040C3
:100B40009040E1F700C000000895CF92DF92EF924D
:100B5000FF920F931F93CF93DF93CDB7DEB76497C8
:100B60000FB6F894DEBF0FBECDBFE0914A02F09100
:100B70004B02E280F38000E010E028C0C801880F3B
:100B8000991FD701ED91FC91E80FF91F65917491C0
:100B9000CE0101960E947D0B6801BFEFCB1ADB0AE4
:100BA00068E070E0C6010E9474078091470290914E
:100BB00048020817190729F4CE0101960E9414086B
:100BC00004C0CE0101960E94E7078601F7018281E9
:100BD00093810817190794F264960FB6F894DEBF54
:100BE0000FBECDBFDF91CF911F910F91FF90EF907E
:100BF000DF90CF9008956F927F928F929F92AF92E5
:100C0000BF92CF92DF92EF92FF920F931F93CF93F9
:100C1000DF9364E070E084EB90E00E940605EC0155
:100C200064E070E08AE790E00E9406057C0162E0E3
:100C300070E080E790E00E9406053C0120E030E093
:100C400040E050E0BE0180E090E00E941C058C0175
:100C500022EE34E0A701BE0180E090E00E941C0576
:100C60005C0122EE34E0A301BE0180E090E00E942E
:100C70001C056C0120E030E040E050E0BE0180E067
:100C800090E00E941C05F801B782A682F501118749
:100C90000087D782C682F601B186A08697838683B5
:100CA000FC01D186C08617830683F801918780876F
:100CB0001D830C8320E030E040E050E0B701CE011E
:100CC0000E941C056C0120E030E040E050E0B701DC
:100CD000CE010E941C054C0120E030E040E050E0D5
:100CE000B701CE010E941C055C0124EF34E040E016
:100CF00050E0B701CE010E941C05F6019782868262
:100D0000F401D186C086B782A682F50191868086DD
:100D100097838683FC01B186A086D782C682F601BE
:100D200091878087F701D582C48220E030E040E0DF
:100D300050E0B301CE010E941C057C0124EF34E099
:100D400040E050E0B301CE010E941C05F7019783FB
:100D50008683FC01F186E086F782E682F7019187BF
:100D60008087F301F582E48210934B0200934A02DC
:100D700010924802109247020E947F070E94A50528
:100D8000DF91CF911F910F91FF90EF90DF90CF9067
:100D9000BF90AF909F908F907F906F9008951F921B
:100DA0000F920FB60F9211242F933F934F935F939F
:100DB0006F937F938F939F93AF93BF93EF93FF9323
:100DC000E0914A02F0914B0282859385892B69F06C
:100DD0000E947F0781E080934902E0914A02F091EE
:100DE0004B020284F385E02D0995FF91EF91BF91AD
:100DF000AF919F918F917F916F915F914F913F91B3
:100E00002F910F900FBE0F901F9018951F920F9269
:100E10000FB60F9211242F933F934F935F936F93CD
:100E20007F938F939F93AF93BF93EF93FF9398B369
:100E300088E0892788BB80914902882321F010929D
:100E400049020E94A505FF91EF91BF91AF919F913B
:100E50008F917F916F915F914F913F912F910F9063
:100E60000FBE0F901F9018958FE190E00E94BE0377
:100E70000E94C5030E9446090E9455090E94F7037B
:100E80000E949B070E94FB0580E00E940A020E94CC
:100E90000A040E9417040E942B0487B387BB0E9498
:100EA0008F03FDCF80930010089580930012089562
:100EB0008830910518F4805580930010089580388B
:100EC000910588F4282F2F70E0E0F0E12083807FE7
:100ED0009927959587959595879595958795959556
:100EE0008795805F80830895CF93DF93EB010E9405
:100EF0005807CE010E945F07DF91CF9108950F93AD
:100F00001F93CF93DF9300E010E0C0E0D2E160E0F8
:100F100070E0C8010E94740780E890E01882019791
:100F2000E9F70F5F1F4F0830110589F7DF91CF9167
:100F30001F910F910895E0E0F0E18EEA808381EA4D
:100F400080838AED808382E1808388EC808388EAD5
:100F500080838FE3808385ED808380E8808381E8D0
:100F6000808380E5808389ED808381E2808380E2D5
:100F7000808382E080838BED808380E380838DEAB1
:100F80008083108284EA808386EA80838FEA80836C
:100F90000E947F07089590EE980F9F35B8F4082EB1
:100FA000000C990B8097880F991F880F991F880F45
:100FB000991FFC01E352FF4F8B519F4FA0E0B2E11C
:100FC00024912C933196E817F907D1F70895CF9320
:100FD000DF93EC018881882331F021960E94CB07B2
:100FE00089918111FBCFDF91CF91089590EE980FF9
:100FF0009F35C8F4282F880F330B20523109220F58
:10100000331F220F331F220F331FF901E352FF4F0B
:101010002B513F4FA0E0B2E1849180958C933196A3
:10102000E217F307C9F70895CF93DF93EC018881A6
:10103000882331F021960E94F60789918111FBCF18
:10104000DF91CF91089590E080589109FA01E21B59
:10105000F30B8E9FD0018F9FB00D9E9FB00D11247A
:10106000BB2314F4A150BF4FEB2FFB2FFF0FFF0B3F
:101070006E177F07A4F49A012E1B3F0B269FC00119
:10108000279F900D369F900D11249A01261B370B38
:10109000B9010E94D809CF01861B970B0895A901B9
:1010A0004E1B5F0B469FC001479F900D569F900DB2
:1010B0001124A901461B570BBA010E94D809CF0180
:1010C000861B970B0895CF9380E00E94FA03C82FE8
:1010D00081E00E94FA03282F6C2F70E0822F90E0AD
:1010E000CF9108950F931F93CF930E946308962F7B
:1010F000C82F2CE93FEF44E650E06AE170E0892F09
:101100000E9423088C012CE93FEF44E650E06CE19B
:1011100070E08C2F0E942308A801BC01CB01BA010A
:10112000CF911F910F9108950E9472089B01AC010D
:10113000633371059CF0DC01992324F4AA27BB27B3
:10114000A81BB90BFB01332324F4EE27FF27E61B72
:10115000F70BAE17BF070CF44DC068C06E3CEFEF45
:101160007E0794F4DC01992324F4AA27BB27A81B4B
:10117000B90BFB01332324F4EE27FF27E61BF70B03
:10118000AE17BF07D4F14EC04333510594F0FB01B5
:10119000332324F4EE27FF27E61BF70B9C0155238E
:1011A00024F422273327281B390B2E173F07B4F0CE
:1011B00027C04E3CEFEF5E078CF4FB01332324F491
:1011C000EE27FF27E61BF70B9C01552324F422276B
:1011D0003327281B390B2E173F07ACF49B01275FE1
:1011E0003F4F2331310590F40996439790F485E001
:1011F00090E0089583E090E0089582E090E0089503
:1012000080E090E0089581E090E0089584E090E02F
:10121000089584E090E0089580E090E0089581E0F2
:1012200090E008954333510534F0F6CF2E3CEFEFB4
:101230003E07C4F3A9CF4E3C5F4F84F6F0CFCF9367
:10124000DF93CDB7DEB72B970FB6F894DEBF0FBE96
:10125000CDBF0E946308FE0131969BE0DF011D9225
:101260009A95E9F721E030E03A83298392E09B8365
:101270006C838D83CF010E942A022B960FB6F894BF
:10128000DEBF0FBECDBFDF91CF91089585B78068D7
:1012900085BF80B7806280BF0895FB01F85E8083C0
:1012A0000895985EFC0180810895CF92DF92EF92BD
:1012B000FF920F931F93CF93DF9381E691E00E94FB
:1012C000E50B0E946D0B7C010E94720BC12CD12C8E
:1012D00000E010E0C7E7D1E00E946D0BF601F85E78
:1012E000808320812817A9F099279F938F931F92BD
:1012F0002F93DF92CF92DF93CF930E94CF0B0F5F9C
:101300001F4F8DB79EB708960FB6F8949EBF0FBEBD
:101310008DBF9FEFC91AD90AC11488E0D806E1F63B
:10132000C7010E94720BC0E0D0E0E12CF12C0F2E1F
:10133000F0EBCF2EF1E0DF2EF02D0E946D0BFE01C1
:10134000F85E20812817B1F099279F938F931F9201
:101350002F93DF93CF93DF92CF920E94CF0B9FEF1B
:10136000E91AF90A8DB79EB708960FB6F8949EBF92
:101370000FBE8DBF2196C11598E0D907F1F6FF92F7
:10138000EF921F930F938DEE91E09F938F930E94A6
:10139000CF0B0F900F900F900F900F900F90DF9149
:1013A000CF911F910F91FF90EF90DF90CF90089514
:1013B00097FB072E16F4009407D077FD09D00E9402
:1013C000EC0907FC05D03EF4909581959F4F089558
:1013D000709561957F4F0895AA1BBB1B51E107C013
:1013E000AA1FBB1FA617B70710F0A61BB70B881FB5
:1013F000991F5A95A9F780959095BC01CD01089544
:101400000F931F93CF93DF938230910510F482E006
:1014100090E0E0914E02F0914F0220E030E0A0E039
:10142000B0E0309719F14081518102811381481752
:101430005907C8F08417950769F4109731F0129690
:101440000C93129713961C9327C000934E0210938F
:101450004F0222C02115310519F04217530718F425
:101460009A01BD01EF01DF01F801DBCF2115310544
:10147000F9F0281B390B2430310580F48A819B81D7
:101480006115710521F0FB019383828304C0909361
:101490004F0280934E02FE01329644C0FE01E20FDD
:1014A000F31F8193919322503109398328833AC0E5
:1014B00020914C0230914D02232B41F420910201E6
:1014C0003091030130934D0220934C022091000192
:1014D000309101012115310541F42DB73EB74091FE
:1014E000040150910501241B350BE0914C02F09151
:1014F0004D02E217F307A0F42E1B3F0B2817390704
:1015000078F0AC014E5F5F4F2417350748F04E0F5F
:101510005F1F50934D0240934C028193919302C000
:10152000E0E0F0E0CF01DF91CF911F910F9108959E
:10153000CF93DF93009709F481C0FC0132971382A7
:101540001282A0914E02B0914F02109781F4208137
:101550003181820F931F20914C0230914D02281748
:10156000390751F5F0934D02E0934C0267C0ED014D
:1015700020E030E0CE17DF0740F44A815B819E0116
:1015800041155105F1F0EA01F5CFD383C2834081C3
:101590005181840F951FC817D90759F48881998103
:1015A000840F951F0296918380838A819B81938308
:1015B00082832115310529F4F0934F02E0934E0206
:1015C0003DC0E901FB83EA8349915991C40FD51FBE
:1015D000EC17FD0761F480819181840F951F0296BD
:1015E000E90199838883828193819B838A83E0E0E8
:1015F000F0E012968D919C911397009719F0FD01E0
:10160000DC01F7CF8D919C9111979D012E5F3F4F8B
:10161000820F931F20914C0230914D0228173907F9
:1016200069F4309729F410924F0210924E0202C0D2
:1016300013821282B0934D02A0934C02DF91CF919E
:1016400008958F929F92AF92BF92CF92DF92EF92C6
:10165000FF92CF93DF93EC01688179818A819B812E
:10166000611571058105910521F464E279ED8BE541
:1016700097E02DE133EF41E050E00E94C90E4901AF
:101680005A019B01AC01A7EAB1E40E94E80E6B018C
:101690007C01ACEEB4EFA50194010E94F60EDC01D2
:1016A000CB018C0D9D1DAE1DBF1DB7FF03C0019763
:1016B000A109B04888839983AA83BB839F77DF9170
:1016C000CF91FF90EF90DF90CF90BF90AF909F9021
:1016D0008F9008950E94210B089586E091E00E946A
:1016E000210B0895A0E0B0E08093060190930701DC
:1016F000A0930801B09309010895FB01DC01059056
:101700000D920020E1F708950F931F93CF93DF937D
:10171000009731F46115710519F480E090E03AC04A
:101720008B01EC016EE070E081E090E00E94F60D2C
:10173000FC01892B91F380E883830115110571F079
:101740001387028781E88383809150029091510230
:10175000892B21F4F0935102E09350022097C9F0B5
:10176000D187C08783818260838380915202909168
:101770005302892B71F4F0935302E093520280914B
:10178000540290915502892B21F4F0935502E09375
:101790005402CF01DF91CF911F910F910895A0E0E6
:1017A000B0E0E5EDFBE00C940B0FAE014B5F5F4F3B
:1017B000FA0161917191AF018091520290915302AF
:1017C0000E94150CE2E00C94270F0F931F93CF9308
:1017D000DF93E0915202F0915302238121FF1BC05D
:1017E0008C01D0E0C0E0F80181918F01609152023C
:1017F00070915302DB011896ED91FC9119978823A3
:1018000031F00995892B79F3DFEFCFEFECCF8AE048
:101810000995892B19F08FEF9FEF02C08D2F9C2F18
:10182000DF91CF911F910F910895ABE0B0E0EBE114
:10183000FCE00C94FB0E6C017B018A01FC01178219
:101840001682838181FFCCC1CE0101963C01F60155
:101850009381F70193FD859193FF81917F01882307
:1018600009F4BAC1853239F493FD859193FF8191D2
:101870007F01853229F4B60190E00E942F0EE7CF58
:10188000912C212C312CFFE1F315D8F08B3279F01B
:1018900038F4803279F08332A1F4232D20611DC009
:1018A0008D3261F0803369F4232D216016C0832DC1
:1018B0008260382EE32DE4603E2E2AC0F32DF860BE
:1018C0001DC037FC2DC020ED280F2A3040F08E328D
:1018D000B9F436FC81C1232D2064322E19C036FEA6
:1018E00006C08AE0989E200D1124922E11C0EAE0D5
:1018F0002E9E200D1124222EF32DF0623F2E08C0C3
:101900008C3621F4832D8068382E02C0883641F44D
:10191000F70193FD859193FF81917F018111B3CFF1
:10192000982F9F7D9554933028F40C5F1F4F9FE3B1
:1019300099830DC0833631F0833771F0833509F018
:1019400059C021C0F801808189830E5F1F4F882410
:101950008394912C530113C02801F2E04F0E511CC7
:10196000F801A080B18036FE03C0692D70E002C08E
:101970006FEF7FEFC5010E94240E4C018201F32D11
:10198000FF773F2E16C0280122E0420E511CF801BD
:10199000A080B18036FE03C0692D70E002C06FEFF9
:1019A0007FEFC5010E94120E4C01F32DF0683F2E0F
:1019B000820133FC1BC0822D90E088169906B0F49A
:1019C000B60180E290E00E942F0E2A94F4CFF50138
:1019D00037FC859137FE81915F01B60190E00E944E
:1019E0002F0E21102A9421E0821A9108811491046B
:1019F00071F7E8C0843611F0893641F5F80137FEF9
:101A000007C060817181828193810C5F1F4F08C084
:101A100060817181072E000C880B990B0E5F1F4FA0
:101A2000F32DFF763F2E97FF09C090958095709516
:101A300061957F4F8F4F9F4FF0683F2E2AE030E037
:101A4000A3010E946B0E882E861845C0853731F49D
:101A5000232D2F7EB22E2AE030E025C0932D997FD2
:101A6000B92E8F36C1F018F4883579F0B5C08037BB
:101A700019F0883721F0B0C0E92FE061BE2EB4FE26
:101A80000DC0FB2DF460BF2E09C034FE0AC0292F03
:101A90002660B22E06C028E030E005C020E130E02C
:101AA00002C020E132E0F801B7FE07C06081718119
:101AB000828193810C5F1F4F06C06081718180E03D
:101AC00090E00E5F1F4FA3010E946B0E882E8618B8
:101AD000FB2DFF773F2E36FE0DC0232D2E7FA22E2D
:101AE000891458F434FE0BC032FC09C0832D8E7E5D
:101AF000A82E05C0B82CA32C03C0B82C01C0B92C4B
:101B0000A4FE0FC0FE01E80DF11D8081803321F499
:101B10009A2D997EA92E09C0A2FE06C0B394B39453
:101B200004C08A2D867809F0B394A3FC11C0A0FEEE
:101B300006C0B21488F4280C922C9B180EC0B21464
:101B400060F4B60180E290E00E942F0EB394F7CFCC
:101B5000B21418F42B1802C0982C212CA4FE10C02B
:101B6000B60180E390E00E942F0EA2FE17C0A1FCF8
:101B700003C088E790E002C088E590E0B6010CC0A1
:101B80008A2D867859F0A1FE02C08BE201C080E266
:101B9000A7FC8DE2B60190E00E942F0E891438F464
:101BA000B60180E390E00E942F0E9A94F7CF8A94BA
:101BB000F301E80DF11D8081B60190E00E942F0E27
:101BC0008110F5CF222009F442CEB60180E290E0E8
:101BD0000E942F0E2A94F6CFF6018681978102C0CB
:101BE0008FEF9FEF2B96E2E10C94170F0F931F934B
:101BF000CF93DF93869F8001879F100D969F100DD6
:101C00001124C8010E94000AEC01009729F0A801E4
:101C100060E070E00E941D0ECE01DF91CF911F9118
:101C20000F910895FC010590615070400110D8F7A4
:101C3000809590958E0F9F1F0895DC0101C06D93D4
:101C400041505040E0F70895FC0161507040019010
:101C50000110D8F7809590958E0F9F1F08950F93D0
:101C60001F93CF93DF93FB01238121FD03C08FEFEF
:101C70009FEF2CC022FF16C04681578124813581F9
:101C80004217530744F4A081B1819D012F5F3F4F5C
:101C9000318320838C93268137812F5F3F4F378399
:101CA000268314C08B01EC01FB010084F185E02D3B
:101CB0000995892BE1F6D80116968D919C9117977D
:101CC000019617969C938E931697CE01DF91CF9134
:101CD0001F910F910895FA01AA27283051F1203160
:101CE00081F1E8946F936E7F6E5F7F4F8F4F9F4FB0
:101CF000AF4FB1E03ED0B4E03CD0670F781F891FF2
:101D00009A1FA11D680F791F8A1F911DA11D6A0FBF
:101D1000711D811D911DA11D20D009F468943F9172
:101D20002AE0269F11243019305D3193DEF6CF0171
:101D30000895462F4770405D4193B3E00FD0C9F737
:101D4000F6CF462F4F70405D4A3318F0495D31FDA4
:101D50004052419302D0A9F7EACFB4E0A6959795F7
:101D6000879577956795BA95C9F7009761057105CD
:101D700008959B01AC010A2E069457954795379517
:101D80002795BA95C9F7620F731F841F951FA01D71
:101D90000895052E97FB1EF400940E94E00E57FD57
:101DA00007D00E94320F07FC03D04EF40C94E00ED3
:101DB00050954095309521953F4F4F4F5F4F089577
:101DC00090958095709561957F4F8F4F9F4F0895A7
:101DD0000E94540FA59F900DB49F900DA49F800D5D
:101DE000911D11240895B7FF0C94E80E0E94E80E8F
:101DF000821B930B08952F923F924F925F926F92A6
:101E00007F928F929F92AF92BF92CF92DF92EF928A
:101E1000FF920F931F93CF93DF93CDB7DEB7CA1B0B
:101E2000DB0B0FB6F894DEBF0FBECDBF09942A8836
:101E3000398848885F846E847D848C849B84AA84DE
:101E4000B984C884DF80EE80FD800C811B81AA816B
:101E5000B981CE0FD11D0FB6F894DEBF0FBECDBF36
:101E6000ED010895A1E21A2EAA1BBB1BFD010DC0B6
:101E7000AA1FBB1FEE1FFF1FA217B307E407F5073A
:101E800020F0A21BB30BE40BF50B661F771F881F16
:101E9000991F1A9469F760957095809590959B01AC
:101EA000AC01BD01CF010895A29FB001B39FC00155
:101EB000A39F700D811D1124911DB29F700D811D76
:0A1EC0001124911D0895F894FFCF3E
:101ECA00000056022000010000004552524F523ACB
:101EDA00204D435032353135206E6F7420696E20A3
:101EEA00636F6E66696775726174696F6E206D6F74
:101EFA0064652061667465722072657365742E204C
:101F0A000D20004552524F523A206661696C656451
:101F1A0020746F20736574206D6F64652E200D2008
:101F2A00005374617274696E67205352414D207474
:101F3A006573742E2E2E005772697465207068615D
:101F4A007365206572726F723A206578745F726188
:101F5A006D5B2534645D203D20253032582028737E
:101F6A00686F756C642062652025303258290A0032
:101F7A0052657472696576616C2070686173652058
:101F8A006572726F723A206578745F72616D5B2553
:101F9A0034645D203D2025303258202873686F75DF
:101FAA006C642062652025303258290A0053524158
:101FBA004D207465737420636F6D706C657465640D
:101FCA002077697468200A253464206572726F72FA
:101FDA007320696E20777269746520706861736511
:101FEA0020616E64200A253464206572726F7273F0
:101FFA0020696E2072657472696576616C207068FA
:06200A006173650A0D0080
:00000001FF
