:100000000C9418020C94ED030C945F0A0C943502C6
:100010000C9435020C9435020C9435020C94520465
:100020000C9435020C9435020C9435020C94350274
:100030000C9435020C943B0A0C9435020C94350256
:100040000C9435020C9435020C9435020C94350254
:100050000C9435020C9435020C9435020C94350244
:100060000C9435020C9435020C9435020C94350234
:10007000000000000000000000065F5F06000000B6
:100080000007070007070000147F7F147F7F14001C
:10009000242E6B6B3A120000466630180C66620024
:1000A000307A4F5D377A48000407030000000000F3
:1000B000001C3E63410000000041633E1C00000044
:1000C000082A3E1C1C3E2A0808083E3E080800007C
:1000D00000A0E06000000000080808080808000010
:1000E00000006060000000006030180C0603010092
:1000F0003E7F594D7F3E000042427F7F40400000DE
:10010000627359496F660000226349497F360000D7
:10011000181C16137F7F1000276745457D390000A6
:100120003C7E4B4979300000036371190F070000D2
:10013000367F49497F360000064F49693F1E00005F
:1001400000006C6C0000000000A0EC6C00000000DF
:10015000081C366341000000141414141414000029
:10016000004163361C080000020351590F060000CD
:100170003E7F415D5D1F1E007C7E13137E7C000070
:10018000417F7F49497F36001C3E63414163220025
:10019000417F7F41637F1C00417F7F495D41630058
:1001A000417F7F491D0103001C3E63415173720072
:1001B0007F7F08087F7F000000417F7F41000000B3
:1001C000307040417F3F0100417F7F081C77630012
:1001D000417F7F41406070007F7F060C067F7F007B
:1001E0007F7F060C187F7F001C3E6341633E1C002E
:1001F000417F7F49090F06001E3F21717F5E00008D
:10020000417F7F19396F460026674D597B320000C8
:1002100003417F7F410300007F7F40407F7F0000DC
:100220001F3F60603F1F00007F7F3018307F7F00DE
:1002300063771C081C776300074F78784F0700002E
:100240006773594D47637100007F7F414100000093
:100250000103060C183060000041417F7F00000060
:10026000080C0603060C0800808080808080808057
:100270000000030704000000207454543C78400040
:10028000413F7F44447C3800387C44446C28000063
:10029000307848493F7F4000387C54545C18000057
:1002A000487E7F490302000098BCA4A4F87C0400A7
:1002B000417F7F08047C780000447D7D4000000081
:1002C00040C484FD7D000000417F7F10386C4400F5
:1002D00000417F7F400000007C7C0C180C7C780083
:1002E0007C7C04047C780000387C44447C3800002A
:1002F00084FCF8A4243C1800183C24A4F8FC8400D6
:10030000447C78441C180000485C54547424000059
:1003100000043E7F442400003C7C40403C7C400084
:100320001C3C60603C1C00003C7C6030607C3C00FD
:10033000446C3810386C44009CBCA0A0FC7C0000CD
:100340004C64745C4C64000008083E774141000036
:1003500000000077770000004141773E0808000068
:1003600002030103020301006C03D00352657365AD
:1003700074008C0383037A03D0034D6963726F6248
:100380006974004A6F79737469636B00536C6964B4
:10039000657200B803A8039B03D0034C6F772063FA
:1003A0006F6E7472617374004D656469756D20635E
:1003B0006F6E7472617374004869676820636F6E52
:1003C000747261737400FF03F003E603D703D00374
:1003D00052657475726E0053657420636F6E74722B
:1003E0006F6C6C657200536574206D757369630082
:1003F000536574206272696768746E657373005325
:10040000657420646966666963756C747900270495
:100410001E0414044869676873636F72650053654E
:100420007474696E6773004E65772067616D65004F
:1004300011241FBECFEFD4E0DEBFCDBF13E0A0E09C
:10044000B1E0EEEBFBE202C005900D92A235B107E0
:10045000D9F723E0A2E5B3E001C01D92AE36B207A2
:10046000E1F70E9469030C94DD150C9478048A98D6
:100470008BB780648BBF85B7826085BF85B78E7F61
:1004800085BF0895CF93DF93C82F0E942205892B43
:1004900091F48C2F0E944805EC01892B79F460E6D9
:1004A00080E60E94D6044FEF63E08BE20E940005D5
:1004B0000E94370205C0C1E0D0E002C0C1E0D0E038
:1004C000CE01DF91CF910895CF92DF92EF92FF920C
:1004D0001F93CF93DF936C01FC016081718176954E
:1004E0006795769567957695679581E30E94D60422
:1004F000F60160816295660F607E82E30E94D604F9
:10050000F601628185E30E94D604F6018281181605
:10051000BCF47601F3E0EF0EF11C16E3C0E0D0E08E
:10052000F70161917F01812F0E94D60421961F5F00
:10053000F6018281082E000C990BC817D90784F3A5
:100540000E94EA04DF91CF911F91FF90EF90DF901E
:10055000CF9008958F929F92AF92BF92CF92DF92E9
:10056000EF92FF920F931F93CF93DF93CDB7DEB738
:100570002B970FB6F894DEBF0FBECDBF4C01FE0126
:1005800031968BE0DF011D928A95E9F78CE20E949B
:10059000C40480FF31C082E60E94C404182F81E6A3
:1005A0000E94C404129516951770B8E08B9FC00185
:1005B00011245C01A10EB11C85E60E94C404082F21
:1005C00018160CF051C07E01E4E0EE0EF11CCE01D5
:1005D000800F911D07FD9A959C012C5F3F4F69018B
:1005E00016E6812F0E94C404D7018D937D011F5F01
:1005F000AC15BD05B1F738C08CE20E94C40481FF80
:1006000030C082E70E94C404182F81E70E94C4040E
:10061000129516951770B8E08B9FC00111245C01EC
:10062000A10EB11C85E70E94C404082F1816E4F43B
:100630007E01E4E0EE0EF11CCE01800F911D07FD5E
:100640009A959C012C5F3F4F690116E7812F0E940C
:10065000C404D7018D937D011F5FAC15BD05B1F7B3
:1006600003C000E0A12CB12CBA82A9820B838BE0DD
:10067000FE013196D40101900D928A95E1F7C401F3
:100680002B960FB6F894DEBF0FBECDBFDF91CF9192
:100690001F910F91FF90EF90DF90CF90BF90AF90A0
:1006A0009F908F9008955D9BFECF8CB908955F9BBE
:1006B000FECF8CB1089590BD89B988E18AB98EE8E2
:1006C00080BD089567E573E083E593E00E94DC1147
:1006D0000895CF93DF93CDB7DEB72C970FB6F8947C
:1006E000DEBF0FBECDBFF8948FE190E00E945B03A8
:1006F0000E9462030E949E0F0E94AD0F0E94CB0ACF
:100700000E94120C0E94B60D0E9414080E94D2078B
:1007100080E00E9442020E942D0C789481E090E0DB
:100720000E94E90C0E94DA0C8230910569F018F4FD
:10073000019739F0F7CF8330910579F10497D9F11A
:10074000F1CF0E949809EECF0E94DF0C009719F0BC
:100750000E94920E04C083E090E00E94E90C0E9487
:10076000A50B2F83388749875A876B877C878F81B2
:100770009885892BB9F20E949A0D0E94C90E84E0D7
:1007800090E00E94E90C2FEF8FEF9EE02150804017
:100790009040E1F700C00000C5CF2FEF8FE791E058
:1007A000215080409040E1F700C000C084E090E01C
:1007B0000E94E90CB7CF0E94A50B29833A834B8393
:1007C0005C836D837E8389819A81892B09F4AACF0A
:1007D00081E090E00E94E90CA5CF1F920F920FB626
:1007E0000F9211240F931F932F933F934F935F9377
:1007F0006F937F938F939F93AF93BF93EF93FF93E9
:10080000CF93DF93CDB7DEB72B97DEBFCDBFCE0141
:1008100001960E94AA028C8129813A8123303105F8
:1008200021F02530310539F01DC0082E000C990B40
:100830000E94E40C17C0082F10E0102F00278D81B4
:10084000080F111DC8010E94D50C0E94B40C61E074
:10085000FC01808191818017910708F060E0C80158
:100860000E94570F40E063E08CE20E9400052B9647
:100870000FB6F894DEBF0FBECDBFDF91CF91FF91D1
:10088000EF91BF91AF919F918F917F916F915F9108
:100890004F913F912F911F910F910F900FBE0F908D
:1008A0001F9018951F920F920FB60F9211242F933D
:1008B0003F934F935F936F937F938F939F93AF93E8
:1008C000BF93EF93FF93F8940E94CC0B7894FF9121
:1008D000EF91BF91AF919F918F917F916F915F91B8
:1008E0004F913F912F910F900FBE0F901F90189531
:1008F0001F920F920FB60F9211240F900FBE0F9000
:100900001F90189587B3806B87BB87B3817B87BBAC
:1009100081E58DB9C49A08958FB9779BFECF08956C
:1009200080E00E948C048FB10895B89A83B78860E4
:1009300083BF83B78F7B83BF83B78F7D83BF83B72D
:10094000806183BF83B78B7F83BF83B78D7F83BF76
:1009500083B7816083BF11BE08950E9495040895F6
:10096000109200140000482F50E020E030E0E0E05A
:10097000F4E180812F5F3F4F42175307D4F708956A
:10098000C4980895C49A0895CF93C82F0E94C004B4
:1009900083E00E948C048C2F0E948C040E9490049F
:1009A000C82F0E94C2048C2FCF910895CF93DF935C
:1009B000D82FC62F0E94C00482E00E948C048D2F85
:1009C0000E948C048C2F0E948C040E94C204DF9130
:1009D000CF9108950E94C00481E80E948C040E9477
:1009E000C2040895CF930E94C00480EA0E948C0440
:1009F0000E949004C82F0E94C2048C2FCF910895AA
:100A00001F93CF93DF93182FD62FC42F0E94C004BB
:100A100085E00E948C04812F0E948C048D2F0E94FF
:100A20008C048C2F0E948C040E94C204DF91CF9111
:100A30001F9108950E94C00480EC0E948C040E94C3
:100A4000C20408950E9482040E941A058FED9EE25E
:100A50000197F1F700C000008EE00E94C404807E80
:100A6000803839F08DE091E00E943D1281E090E005
:100A7000089561EC8AE20E94D60469EE89E20E9440
:100A8000D60466E088E20E94D60480E090E00895F3
:100A9000CF93C82F482F60EE8FE00E9400058EE0B4
:100AA0000E94C404807EC81739F086E491E00E9459
:100AB0003D1281E090E002C080E090E0CF91089587
:100AC000E0915603F09157030480F581E02D848175
:100AD000958190935703809356031092550310927B
:100AE00054030895E0915603F09157030190F0816B
:100AF000E02D848195819093570380935603109243
:100B0000550310925403089582E090E00E94E90C8E
:100B10000895CF93DF93CDB7DEB72B970FB6F89438
:100B2000DEBF0FBECDBFCE0101962BE0FC011192BE
:100B30002A95E9F724E030E03A83298321E02B83EA
:100B40000E9464020E9472052B960FB6F894DEBFD5
:100B50000FBECDBFDF91CF910895CF93DF93CDB777
:100B6000DEB72B970FB6F894DEBF0FBECDBFCE0118
:100B700001962BE0FC0111922A95E9F724E030E080
:100B80003A83298321E02B832C830E9464020E94F4
:100B900072052B960FB6F894DEBF0FBECDBFDF9166
:100BA000CF910895CF93DF93CDB7DEB72B970FB6D4
:100BB000F894DEBF0FBECDBFCE0101962BE0FC0145
:100BC00011922A95E9F724E030E03A83298321E065
:100BD0002B8322E02C830E9464020E9472052B96D4
:100BE0000FB6F894DEBF0FBECDBFDF91CF91089551
:100BF0008FEF0E94270F0E94720508958FE70E94D1
:100C0000270F0E94720508958FE00E94270F0E940F
:100C1000720508950895CF92DF92EF92FF920F939D
:100C20001F93CF93DF93790128E08202C001112442
:100C30008C0100591040EB01C295D295D07FDC2782
:100C4000C07FDC274C0F5D1FEA01CC0FDD1FCC0FEE
:100C5000DD1FCC0FDD1F6E0188E0C80ED11CF8012E
:100C60008491E114F10429F0BE0180950E94A50F42
:100C700003C0BE010E94A50F0F5F1F4F2196CC1528
:100C8000DD0569F7DF91CF911F910F91FF90EF90F4
:100C9000DF90CF900895CF92DF92EF92FF920F9363
:100CA0001F93CF93DF93FC017B016A01808188232E
:100CB000A1F08F010F5F1F4FC0E0D0E09601AE01A1
:100CC000B7010E940B062196F80181918F018111D5
:100CD000F5CFC031D1051CF00CC0C0E0D0E09601CA
:100CE000AE01B70180E20E940B062196C031D1050A
:100CF000B4F3DF91CF911F910F91FF90EF90DF90B0
:100D0000CF900895E0915603F09157030280F3814C
:100D1000E02D81E0208131812856334009F080E0C8
:100D20000895AF92BF92CF92DF92EF92FF920F930E
:100D30001F93CF93DF93CDB7DEB7A0970FB6F8948C
:100D4000DEBF0FBECDBF40E050E060E070E08BE062
:100D500091E00E944B0640E050E061E070E084E6E4
:100D600091E00E944B060E94B40C7C0100E010E070
:100D70000F2EF0E7AF2EF1E0BF2EF02D6E0121E136
:100D8000C20ED11CD7018C9111969C91B2E0EB0E52
:100D9000F11C0F5F1F4F9F938F931F930F93BF9271
:100DA000AF92DF92CF920E946D12B8016F5F7F4FBA
:100DB00040E050E0C6010E944B060FB6F894DEBF3B
:100DC0000FBECDBF03301105E9F640E050E065E00D
:100DD00070E08BE091E00E944B06E0915603F091A9
:100DE000570302811381D801ED91FC9165917491B3
:100DF000CE0101960E94D511809154039091550324
:100E0000892B49F040E050E066E070E0CE010196A9
:100E10000E944B0608C041E050E066E070E0CE0161
:100E200001960E944B06D801ED91FC913296659196
:100E30007491CE0101960E94D51180915403909136
:100E40005503019749F441E050E067E070E0CE01BE
:100E500001960E944B0608C040E050E067E070E059
:100E6000CE0101960E944B0640E050E068E070E041
:100E70008BE091E00E944B06A0960FB6F894DEBF7F
:100E80000FBECDBFDF91CF911F910F91FF90EF90DB
:100E9000DF90CF90BF90AF900895CF92DF92EF9206
:100EA000FF920F931F93CF93DF93CDB7DEB7609779
:100EB0000FB6F894DEBF0FBECDBFE0915603F091A0
:100EC0005703C280D38040E050E060E070E08BE0E8
:100ED00091E00E944B06EE24E394F12C00E010E038
:100EE000D60112968D919C9113970817190724F536
:100EF000ED91FC91C801880F991FE80FF91F6591CA
:100F00007491CE0101960E94D51180915403909165
:100F100055038017910741F441E050E0B701CE013D
:100F200001960E944B060FC040E050E0B701CE0191
:100F300001960E944B0607C040E050E0B7018BE0ED
:100F400091E00E944B060F5F1F4FBFEFEB1AFB0AA9
:100F50000830110529F660960FB6F894DEBF0FBE73
:100F6000CDBFDF91CF911F910F91FF90EF90DF9058
:100F7000CF9008951FBC1EBC1DBC1CBC8FE990E027
:100F80009BBD8ABD8EB588608EBD8EB585608EBDD9
:100F900089B7806489BF0895F89489B7806489BF50
:100FA00078940895F89489B78F7B89BF78940895D1
:100FB0000F931F93CF93DF938C01EB0186E090E0BA
:100FC0000E945810FC0111830083D383C2831582D1
:100FD0001482DF91CF911F910F910895CF92DF92EC
:100FE000EF92FF920F931F93CF93DF936C017B01DE
:100FF0008A01E9018CE090E00E945810FC01D18246
:10100000C082F382E28215830483D387C28717826A
:10101000168211861086DF91CF911F910F91FF905C
:10102000EF90DF90CF9008952F923F924F925F9272
:101030006F927F928F929F92AF92BF92CF92DF92E8
:10104000EF92FF920F931F93CF93DF9300D000D0C6
:10105000CDB7DEB763E070E08EE094E00E94D80781
:101060008C0165E070E086EC93E00E94D8079C83D9
:101070008B8362E070E088E693E00E94D8079A8351
:10108000898364E070E082E793E00E94D8071C0146
:1010900064E070E083E993E00E94D8072C0124E823
:1010A00035E040E050E0B80180E090E00E94EE07BB
:1010B0003C0120E635E04B815C81B80180E090E0A6
:1010C0000E94EE077C0120E635E049815A81B80193
:1010D00080E090E00E94EE07F301F782E682F701DC
:1010E0007186608697838683FC01F186E08677822D
:1010F0006682F30191878087F8017582648220E01F
:1011000030E040E050E06B817C81C8010E94EE0736
:101110007C0120E635E0A2016B817C81C8010E9440
:10112000EE074C0120E030E040E050E06B817C8134
:10113000C8010E94EE075C0120E635E0A1016B8149
:101140007C81C8010E94EE076C0122E735E040E097
:1011500050E06B817C81C8010E94EE07F701978205
:101160008682F401F186E086B782A682F501918637
:101170008086D782C682F601B186A0869783868351
:10118000FC01D186C086F782E682F70191878087CD
:10119000EB81FC81F582E48227EB3CE040E050E00B
:1011A00069817A81C8010E94EE077C0122E735E05F
:1011B00040E050E069817A81C8010E94EE07F701A2
:1011C00097838683FC01F186E086F782E682F70149
:1011D00091878087E981FA81F582E48228EF35E002
:1011E00040E050E0B2018B819C810E94EE078C01AF
:1011F0002EEF35E040E050E0B2018B819C810E94EF
:10120000EE076C0124E036E040E050E0B2018B8153
:101210009C810E94EE077C0122E735E040E050E02F
:10122000B2018B819C810E94EE07F801D782C682B1
:10123000F60111870087F782E682F701D186C08622
:1012400097838683FC01F186E08617830683F80185
:1012500091878087F2011583048329E835E040E017
:1012600050E0B1018B819C810E94EE078C012DEA38
:1012700035E040E050E0B1018B819C810E94EE0797
:101280006C0122ED35E040E050E0B1018B819C81A2
:101290000E94EE077C0122E735E040E050E0B1011A
:1012A0008B819C810E94EE07F801D782C682F601ED
:1012B00011870087F782E682F701D186C08697837F
:1012C0008683FC01F186E08617830683F801918707
:1012D0008087F1011583048370925703609256034F
:1012E00010925503109254030E949A0D0E944D07CC
:1012F0000E94BA070F900F900F900F90DF91CF913F
:101300001F910F91FF90EF90DF90CF90BF90AF9023
:101310009F908F907F906F905F904F903F902F9015
:101320000895FC0177836683FB0191878087089588
:10133000CF93DF9300D000D000D0CDB7DEB70E94AE
:10134000A50B29833A834B835C836D837E838D81D8
:101350009E81892B91F080915203811110C081E010
:1013600080935203E0915603F09157030284F38572
:10137000E02D309721F0099502C0109252030E948F
:10138000FB0A8130910589F120F0049709F45AC0D5
:101390005CC080910001882309F457C0E091560396
:1013A000F09157030084F185E02DF0935703E0930B
:1013B00056038091540390915503009759F402808D
:1013C000F381E02D8281938101979093550380935F
:1013D000540305C00197909355038093540381E013
:1013E000809353031092000134C080910001882340
:1013F00061F1E0915603F09157030680F781E02DEB
:10140000F0935703E0935603809154039091550352
:101410000280F381E02D2281338121503109281788
:10142000390729F4109255031092540305C0019610
:10143000909355038093540381E08093530310925B
:10144000000107C081E0809300018091530388234D
:1014500049F00E948206882319F00E94910602C07A
:101460000E944D0726960FB6F894DEBF0FBECDBF83
:10147000DF91CF9108951F920F920FB60F92112412
:101480002F933F934F935F936F937F938F939F938C
:10149000AF93BF93EF93FF930E94F40EFF91EF91F0
:1014A000BF91AF919F918F917F916F915F914F917C
:1014B0003F912F910F900FBE0F901F9018951F9284
:1014C0000F920FB60F9211242F933F934F935F9378
:1014D0006F937F938F939F93AF93BF93EF93FF93FC
:1014E000E0915603F09157030284F385E02D309785
:1014F00009F00995FF91EF91BF91AF919F918F9165
:101500007F916F915F914F913F912F910F900FBEFF
:101510000F901F90189590E08058910928EC289F13
:10152000A001299F500D1124552314F441505F4F01
:10153000252F352F330F330B62177307B4F444E6AE
:1015400050E0FA01E21BF30BE69FC001E79F900D0C
:10155000F69F900D1124FA01E61BF70BBF010E94C4
:101560003010C901861B970B08954CE95FEFFA0113
:10157000E21BF30BE69FC001E79F900DF69F900DD5
:101580001124FA01E61BF70BBF010E943010C901BC
:10159000861B970B08950E94AD0487B3897F87BB94
:1015A0008B9810928B00EAE8F0E01082109289008C
:1015B000109288008FED91E09093870080938600D1
:1015C000808188608083808185608083EDE7F0E0A2
:1015D0008081806180830895CF9380E00E94B00471
:1015E000C82F81E00E94B004282F6C2F70E0822F5A
:1015F00090E0CF9108951F93CF93DF930E94EC0A60
:10160000962F182F6AE170E0892F0E948B0AEC0157
:101610006CE170E0812F0E948B0AC333D1059CF0EE
:10162000AC01992324F444275527481B590B9E01EC
:10163000DD2324F4222733272C1B3D0B42175307AD
:101640000CF44AC065C0CE3C2FEFD20794F4AC0135
:10165000992324F444275527481B590B9E01DD2369
:1016600024F4222733272C1B3D0B42175307BCF1D0
:101670004BC08333910594F0AE01DD2324F444275D
:1016800055274C1B5D0B9C01992324F422273327FB
:10169000281B390B24173507B4F024C08E3C2FEFDC
:1016A00092078CF4AE01DD2324F4442755274C1B0C
:1016B0005D0B9C01992324F422273327281B390B27
:1016C0002417350794F42996639790F40996439765
:1016D00090F484E090E026C083E090E023C082E0B4
:1016E00090E020C080E090E01DC081E090E01AC052
:1016F00085E090E017C085E090E014C080E090E0C5
:1017000011C081E090E00EC08333910534F0F6CF34
:10171000CE3C2FEFD207C4F3ACCF8E3C2FEF920715
:1017200094F6EFCFDF91CF911F910895CF9383E08F
:101730000E94B004C82F82E00E94B004282F6C2FB2
:1017400070E0822F90E0CF910895CF93DF9300D087
:1017500000D000D0CDB7DEB786B396B320B392FBEE
:10176000992790F999831A82869581708B831C82C0
:1017700061E080E023FD60E029813A814B815C815A
:10178000782F80E090E026960FB6F894DEBF0FBE6B
:10179000CDBFDF91CF910895EF92FF920F931F93EA
:1017A000CF93DF93CDB7DEB761970FB6F894DEBF66
:1017B0000FBECDBF0E94EC0AE62EF82E0E94960BBB
:1017C000062F182F0E94A50B29834B83CE01079665
:1017D0002BE0FC0111922A95E9F721E030E03887EF
:1017E0002F8326E02987EA86FB860C871D872981BF
:1017F0002E872B812F870E94640261960FB6F89482
:10180000DEBF0FBECDBFDF91CF911F910F91FF9033
:10181000EF900895F894EAE8F0E080818560808395
:1018200078940895F894EAE8F0E08081887F8083D6
:1018300078940895E199FECF9FBB8EBB6DBBF89461
:10184000E29AE19A78940895E199FECF9FBB8EBB0E
:10185000F894E09A78948DB30895FF920F931F93B4
:10186000CF93DF930AE513E0C0E0D0E0CE010E9401
:10187000240CF82ECE0101960E94240C90E0982FA3
:1018800088278F0D911DF801819391938F012296E6
:10189000C630D10559F7DF91CF911F910F91FF907D
:1018A0000895DF92EF92FF920F931F93CF93DF93F0
:1018B00020915A0330915B03809158039091590312
:1018C0002817390758F4EAE5F3E04281538155833C
:1018D0004483338322839183808339C020915C03C6
:1018E00030915D032817390738F4EAE5F3E03583D2
:1018F0002483938382832BC020915E0330915F0306
:101900002817390748F590935F0380935E031FC043
:10191000F801D08060E0CE010E941A0C6D2DCE013E
:101920000E941A0CF801D1800E5F1F4F7E01FFEF5D
:10193000EF1AFF0A60E0C7010E941A0C6D2DC70163
:101940000E941A0C2296C630D10511F705C00AE58F
:1019500013E0C0E0D0E0DCCFDF91CF911F910F9179
:10196000FF90EF90DF9008958AE593E008950F933C
:101970001F93CF93DF930AE513E0C0E0D0E0F801B6
:10198000119211928F0160E0CE010E941A0C60E06A
:10199000CE0101960E941A0C2296C630D10579F725
:1019A000DF91CF911F910F910895909359038093E8
:1019B0005803089580916203909163030895809184
:1019C0006003909161030895909361038093600395
:1019D00008950F931F93CF93DF93CDB7DEB72B9767
:1019E0000FB6F894DEBF0FBECDBF8C0182309105DB
:1019F000D9F018F4019739F04FC08330910549F1BF
:101A00000497C1F149C00E94CC0781E090E0909317
:101A10006303809362038AE791E09F938F930E9410
:101A200027120F900F9038C00E94D2070E940A0C14
:101A30000E949A0D82E090E090936303809362038A
:101A400083E991E09F938F930E9427120F900F904C
:101A500023C00E94120C83E090E090936303809374
:101A600062038FEA91E09F938F930E9427120F9059
:101A70000F9012C00E94120C0E94510C84E090E062
:101A800090936303809362038DEC91E09F938F9317
:101A90000E9427120F900F908FEF9FE20197F1F7AE
:101AA00000C00000CE0101962BE0FC0111922A95A6
:101AB000E9F722E030E03A83298321E02B830C838D
:101AC0000E9464022B960FB6F894DEBF0FBECDBF06
:101AD000DF91CF911F910F91089580930010089589
:101AE0008093001208958830910518F480558093F2
:101AF000001008958038910588F4282F2F70E0E0B9
:101B0000F0E12083807F9927959587959595879516
:101B10009595879595958795805F80830895CF9358
:101B2000DF93EB010E94730DCE010E947A0DDF91CD
:101B3000CF9108950F931F93CF93DF9300E010E0B0
:101B4000C0E0D2E160E070E0C8010E948F0D80E843
:101B500090E018820197E9F70F5F1F4F08301105D9
:101B600089F7DF91CF911F910F910895E0E0F0E1A7
:101B70008EEA808381EA80838AED808382E180839C
:101B800088EC808388EA80838FE3808385ED80837F
:101B900080E8808381E8808380E5808389ED80838D
:101BA00081E2808380E2808382E080838BED80838A
:101BB00080E380838DEA8083108284EA808386EAD2
:101BC00080838FEA80830E949A0D089590EE980F8B
:101BD0009F35B8F4082E000C990B8097880F991F39
:101BE000880F991F880F991FFC01E059FF4F8858F3
:101BF0009F4FA0E0B2E124912C933196E817F907AA
:101C0000D1F70895CF93DF93EC018881882331F0D9
:101C100021960E94E60D89918111FBCFDF91CF9132
:101C2000089590EE980F9F35C8F4282F880F330B36
:101C300020523109220F331F220F331F220F331F6F
:101C4000F901E059FF4F28583F4FA0E0B2E18491DD
:101C500080958C933196E217F307C9F70895CF93D7
:101C6000DF93EC018881882331F021960E94110EC8
:101C700089918111FBCFDF91CF910895882389F05D
:101C8000E0E0F2E18EE080839FE190832FE3208308
:101C90003FE730834EEF40833083208390838083FF
:101CA0000895E0E0F2E18EE0808391E1908321E20B
:101CB000208331E4308342E8408330832083908363
:101CC00080830895EF92FF920F931F93CF93DF933A
:101CD0007C011816190664F4C0E0D0E081E00E948F
:101CE0003E0E80E20E94E60D2196EC16FD06B1F74D
:101CF00003E010E00E191F091016110664F4C0E08D
:101D0000D0E080E00E943E0E80E20E94E60D219627
:101D1000C017D107B1F7DF91CF911F910F91FF90BD
:101D2000EF900895CF93DF93EC0168E070E081E0DD
:101D300090E00E948F0D86EE91E00E94020E6EE10F
:101D400070E083E090E00E948F0DCE010E94620E51
:101D500068E070E085E090E00E948F0D82EF91E0F6
:101D60000E94020E68E070E086E090E00E948F0D15
:101D700080E092E00E94020E68E070E087E090E070
:101D80000E948F0D8DE392E00E94020EDF91CF91B1
:101D900008950E949A0D68E070E081E090E00E9452
:101DA0008F0D8FE092E00E94020E68E070E083E009
:101DB00090E00E948F0D8AE192E00E94020E68E09E
:101DC00070E084E090E00E948F0D89E292E00E9432
:101DD000020E68E070E085E090E00E948F0D89E3DC
:101DE00092E00E94020E0895CF92DF92EF92FF924E
:101DF0000F931F93CF93DF93C0E0D0E0C12CD12C81
:101E00000F2EE12CF2E1FF2EF02D60E070E0C60114
:101E10000E948F0D8E0100581F4FCE010E94A90F06
:101E2000F70180832196C017D107B9F7FFEFCF1ACA
:101E3000DF0AE80188E0C816D10439F7DF91CF91B5
:101E40001F910F91FF90EF90DF90CF900895E0E009
:101E5000F0E191E89083808308950F931F93CF93CF
:101E6000DF9300D000D000D0CDB7DEB79F938F9323
:101E700087E791E09F938F938E010F5F1F4F1F9312
:101E80000F930E946D12C8010E94020E0F900F90D6
:101E90000F900F900F900F9026960FB6F894DEBF1C
:101EA0000FBECDBFDF91CF911F910F9108951F936A
:101EB000CF93DF93EC01162F0E949A0D68E070E03B
:101EC00081E090E00E948F0D112329F089E492E0D7
:101ED0000E94020E04C089E592E00E94020E68E0B2
:101EE00070E082E090E00E948F0D84E692E00E9414
:101EF000020ECE010E942D0F68E070E084E090E0B9
:101F00000E948F0D8AE192E00E94020E68E070E06C
:101F100085E090E00E948F0D89E292E00E94020E1F
:101F200068E070E086E090E00E948F0D89E392E027
:101F30000E94020EDF91CF911F91089585B78068AE
:101F400085BF80B7806280BF0895FB01F85E808303
:101F50000895985EFC0180810895CF92DF92EF9200
:101F6000FF920F931F93CF93DF938CE692E00E9432
:101F70003D120E94C5117C010E94CA11C12CD12CB6
:101F800000E010E0C2E8D2E00E94C511F601F85E60
:101F9000808320812817A9F099279F938F931F9200
:101FA0002F93DF92CF92DF93CF930E9427120F5F80
:101FB0001F4F8DB79EB708960FB6F8949EBF0FBE01
:101FC0008DBF9FEFC91AD90AC11488E0D806E1F67F
:101FD000C7010E94CA11C0E0D0E0E12CF12C0F2E05
:101FE000FBEBCF2EF2E0DF2EF02D0E94C511FE019B
:101FF000F85E20812817B1F099279F938F931F9245
:102000002F93DF93CF93DF92CF920E9427129FEFFF
:10201000E91AF90A8DB79EB708960FB6F8949EBFD5
:102020000FBE8DBF2196C11598E0D907F1F6FF923A
:10203000EF921F930F9388EF92E09F938F930E94EC
:1020400027120F900F900F900F900F900F90DF912D
:10205000CF911F910F91FF90EF90DF90CF90089557
:1020600097FB072E16F4009407D077FD09D00E9445
:10207000441007FC05D03EF4909581959F4F08953C
:10208000709561957F4F0895AA1BBB1B51E107C056
:10209000AA1FBB1FA617B70710F0A61BB70B881FF8
:1020A000991F5A95A9F780959095BC01CD01089587
:1020B0000F931F93CF93DF938230910510F482E04A
:1020C00090E0E0916603F091670320E030E0A0E04B
:1020D000B0E0309719F14081518102811381481796
:1020E0005907C8F08417950769F4109731F01296D4
:1020F0000C93129713961C9327C0009366031093BA
:10210000670322C02115310519F04217530718F44F
:102110009A01BD01EF01DF01F801DBCF2115310587
:10212000F9F0281B390B2430310580F48A819B811A
:102130006115710521F0FB019383828304C09093A4
:10214000670380936603FE01329644C0FE01E20FEE
:10215000F31F8193919322503109398328833AC028
:102160002091640330916503232B41F420910301F6
:1021700030910401309365032093640320910101A1
:10218000309102012115310541F42DB73EB7409140
:10219000050150910601241B350BE0916403F09179
:1021A0006503E217F307A0F42E1B3F0B281739072E
:1021B00078F0AC014E5F5F4F2417350748F04E0FA3
:1021C0005F1F50936503409364038193919302C012
:1021D000E0E0F0E0CF01DF91CF911F910F910895E2
:1021E000CF93DF93009709F481C0FC0132971382EB
:1021F0001282A0916603B0916703109781F4208149
:102200003181820F931F2091640330916503281759
:10221000390751F5F0936503E093640367C0ED015E
:1022200020E030E0CE17DF0740F44A815B819E0159
:1022300041155105F1F0EA01F5CFD383C283408106
:102240005181840F951FC817D90759F48881998146
:10225000840F951F0296918380838A819B8193834B
:1022600082832115310529F4F0936703E093660317
:102270003DC0E901FB83EA8349915991C40FD51F01
:10228000EC17FD0761F480819181840F951F029600
:10229000E90199838883828193819B838A83E0E02B
:1022A000F0E012968D919C911397009719F0FD0123
:1022B000DC01F7CF8D919C9111979D012E5F3F4FCF
:1022C000820F931F2091640330916503281739070B
:1022D00069F4309729F4109267031092660302C0E4
:1022E00013821282B0936503A0936403DF91CF91B0
:1022F00008958F929F92AF92BF92CF92DF92EF920A
:10230000FF92CF93DF93EC01688179818A819B8171
:10231000611571058105910521F464E279ED8BE584
:1023200097E02DE133EF41E050E00E944315490171
:102330005A019B01AC01A7EAB1E40E9462156B014E
:102340007C01ACEEB4EFA50194010E947015DC0194
:10235000CB018C0D9D1DAE1DBF1DB7FF03C00197A6
:10236000A109B04888839983AA83BB839F77DF91B3
:10237000CF91FF90EF90DF90CF90BF90AF909F9064
:102380008F9008950E947911089587E091E00E944E
:1023900079110895A0E0B0E08093070190930801BF
:1023A000A0930901B0930A010895FB01DC01059097
:1023B0000D920020E1F708950F931F93CF93DF93C1
:1023C000009731F46115710519F480E090E03AC08E
:1023D0008B01EC016EE070E081E090E00E947014EF
:1023E000FC01892B91F380E883830115110571F0BD
:1023F0001387028781E88383809168039091690342
:10240000892B21F4F0936903E09368032097C9F0C6
:10241000D187C08783818260838380916A03909192
:102420006B03892B71F4F0936B03E0936A03809143
:102430006C0390916D03892B21F4F0936D03E0936D
:102440006C03CF01DF91CF911F910F910895A0E010
:10245000B0E0EDE2F2E10C948515AE014B5F5F4F09
:10246000FA0161917191AF0180916A0390916B03C0
:102470000E948F12E2E00C94A1150F931F93CF934B
:10248000DF93E0916A03F0916B03238121FF1BC06E
:102490008C01D0E0C0E0F80181918F0160916A0366
:1024A00070916B03DB011896ED91FC9119978823CD
:1024B00031F00995892B79F3DFEFCFEFECCF8AE08C
:1024C0000995892B19F08FEF9FEF02C08D2F9C2F5C
:1024D000DF91CF911F910F910895AEE0B0E0E3E757
:1024E000F2E10C9483150D891E8986E08C831A8392
:1024F00009838FEF9FE79E838D83AE01475E5F4F19
:102500006F89788DCE0101960E948F12EF81F88538
:10251000E00FF11F10822E96E4E00C949F15ABE0C3
:10252000B0E0E5E9F2E10C9475156C017B018A01DC
:10253000FC0117821682838181FFCCC1CE010196F6
:102540003C01F6019381F70193FD859193FF819101
:102550007F01882309F4BAC1853239F493FD85914E
:1025600093FF81917F01853229F4B60190E00E94AA
:10257000A914E7CF912C212C312CFFE1F315D8F0D1
:102580008B3279F038F4803279F08332A1F4232D44
:1025900020611DC08D3261F0803369F4232D2160EC
:1025A00016C0832D8260382EE32DE4603E2E2AC0B3
:1025B000F32DF8601DC037FC2DC020ED280F2A3008
:1025C00040F08E32B9F436FC81C1232D2064322EC6
:1025D00019C036FE06C08AE0989E200D1124922E66
:1025E00011C0EAE02E9E200D1124222EF32DF06260
:1025F0003F2E08C08C3621F4832D8068382E02C00F
:10260000883641F4F70193FD859193FF81917F0115
:102610008111B3CF982F9F7D9554933028F40C5F90
:102620001F4F9FE399830DC0833631F0833771F0DC
:10263000833509F059C021C0F801808189830E5F7C
:102640001F4F88248394912C530113C02801F2E07A
:102650004F0E511CF801A080B18036FE03C0692DD9
:1026600070E002C06FEF7FEFC5010E949E144C0125
:102670008201F32DFF773F2E16C0280122E0420E83
:10268000511CF801A080B18036FE03C0692D70E0B6
:1026900002C06FEF7FEFC5010E948C144C01F32D37
:1026A000F0683F2E820133FC1BC0822D90E088161B
:1026B0009906B0F4B60180E290E00E94A9142A9431
:1026C000F4CFF50137FC859137FE81915F01B601AA
:1026D00090E00E94A91421102A9421E0821A910806
:1026E0008114910471F7E8C0843611F0893641F500
:1026F000F80137FE07C060817181828193810C5F90
:102700001F4F08C060817181072E000C880B990B48
:102710000E5F1F4FF32DFF763F2E97FF09C0909558
:102720008095709561957F4F8F4F9F4FF0683F2E3A
:102730002AE030E0A3010E94E514882E861845C0E7
:10274000853731F4232D2F7EB22E2AE030E025C0CC
:10275000932D997FB92E8F36C1F018F4883579F012
:10276000B5C0803719F0883721F0B0C0E92FE0619B
:10277000BE2EB4FE0DC0FB2DF460BF2E09C034FE8A
:102780000AC0292F2660B22E06C028E030E005C01E
:1027900020E130E002C020E132E0F801B7FE07C0DE
:1027A00060817181828193810C5F1F4F06C06081BF
:1027B000718180E090E00E5F1F4FA3010E94E5143D
:1027C000882E8618FB2DFF773F2E36FE0DC0232D59
:1027D0002E7FA22E891458F434FE0BC032FC09C09F
:1027E000832D8E7EA82E05C0B82CA32C03C0B82C38
:1027F00001C0B92CA4FE0FC0FE01E80DF11D8081BF
:10280000803321F49A2D997EA92E09C0A2FE06C01C
:10281000B394B39404C08A2D867809F0B394A3FCD2
:1028200011C0A0FE06C0B21488F4280C922C9B188C
:102830000EC0B21460F4B60180E290E00E94A914C8
:10284000B394F7CFB21418F42B1802C0982C212C93
:10285000A4FE10C0B60180E390E00E94A914A2FE7D
:1028600017C0A1FC03C088E790E002C088E590E0B3
:10287000B6010CC08A2D867859F0A1FE02C08BE209
:1028800001C080E2A7FC8DE2B60190E00E94A9148D
:10289000891438F4B60180E390E00E94A9149A9458
:1028A000F7CF8A94F301E80DF11D8081B60190E025
:1028B0000E94A9148110F5CF222009F442CEB6015E
:1028C00080E290E00E94A9142A94F6CFF601868156
:1028D000978102C08FEF9FEF2B96E2E10C94911548
:1028E0000F931F93CF93DF93869F8001879F100DD7
:1028F000969F100D1124C8010E945810EC010097FA
:1029000029F0A80160E070E00E949714CE01DF91E9
:10291000CF911F910F910895FC0105906150704077
:102920000110D8F7809590958E0F9F1F0895DC01B8
:1029300001C06D9341505040E0F70895FC01615093
:10294000704001900110D8F7809590958E0F9F1FD1
:1029500008950F931F93CF93DF93FB01238121FDF4
:1029600003C08FEF9FEF2CC022FF16C04681578116
:10297000248135814217530744F4A081B1819D0120
:102980002F5F3F4F318320838C93268137812F5FC8
:102990003F4F3783268314C08B01EC01FB01008479
:1029A000F185E02D0995892BE1F6D80116968D91D8
:1029B0009C911797019617969C938E931697CE012C
:1029C000DF91CF911F910F910895FA01AA27283026
:1029D00051F1203181F1E8946F936E7F6E5F7F4FEC
:1029E0008F4F9F4FAF4FB1E03ED0B4E03CD0670F68
:1029F000781F891F9A1FA11D680F791F8A1F911DBB
:102A0000A11D6A0F711D811D911DA11D20D009F40A
:102A100068943F912AE0269F11243019305D31934C
:102A2000DEF6CF010895462F4770405D4193B3E035
:102A30000FD0C9F7F6CF462F4F70405D4A3318F0DC
:102A4000495D31FD4052419302D0A9F7EACFB4E08D
:102A5000A6959795879577956795BA95C9F7009745
:102A60006105710508959B01AC010A2E06945795E6
:102A7000479537952795BA95C9F7620F731F841F3D
:102A8000951FA01D0895052E97FB1EF400940E942B
:102A90005A1557FD07D00E94AC1507FC03D04EF421
:102AA0000C945A1550954095309521953F4F4F4FB6
:102AB0005F4F089590958095709561957F4F8F4FEA
:102AC0009F4F08950E94CE15A59F900DB49F900D25
:102AD000A49F800D911D11240895B7FF0C946215D9
:102AE0000E946215821B930B08952F923F924F9282
:102AF0005F926F927F928F929F92AF92BF92CF928E
:102B0000DF92EF92FF920F931F93CF93DF93CDB796
:102B1000DEB7CA1BDB0B0FB6F894DEBF0FBECDBF0E
:102B200009942A88398848885F846E847D848C84DF
:102B30009B84AA84B984C884DF80EE80FD800C81E8
:102B40001B81AA81B981CE0FD11D0FB6F894DEBFCB
:102B50000FBECDBFED010895A1E21A2EAA1BBB1B2B
:102B6000FD010DC0AA1FBB1FEE1FFF1FA217B30759
:102B7000E407F50720F0A21BB30BE40BF50B661F6F
:102B8000771F881F991F1A9469F760957095809533
:102B900090959B01AC01BD01CF010895A29FB001AA
:102BA000B39FC001A39F700D811D1124911DB29F81
:0E2BB000700D811D1124911D0895F894FFCF22
:102BBE000100006E0320000100000000004552528B
:102BCE004F523A204D435032353135206E6F7420BE
:102BDE00696E20636F6E66696775726174696F6E78
:102BEE00206D6F6465206166746572207265736511
:102BFE00742E200D20004552524F523A20666169C4
:102C0E006C656420746F20736574206D6F64652E1F
:102C1E00200D20004869676873636F7265733A0010
:102C2E0020202025642E202564005472616E736965
:102C3E0074696F6E696E6720746F204D454E552016
:102C4E000A0D005472616E736974696F6E696E67F6
:102C5E0020746F20504C4159494E47200A0D0054A4
:102C6E0072616E736974696F6E696E6720746F201E
:102C7E0047414D455F4F564552200A0D0054726133
:102C8E006E736974696F6E696E6720746F20494444
:102C9E004C45200A0D004C69766573206C65667490
:102CAE003A0051756974207468652067616D65001E
:102CBE0062792070757368696E6720746865004765
:102CCE00414D452051554954210052657475726E1F
:102CDE0020746F206D61696E006D656E752062796E
:102CEE002070757368696E6700746865206C656620
:102CFE007420627574746F6E004E455720484947B4
:102D0E004853434F524521210047414D45204F56D0
:102D1E004552210053636F72653A200053746172FD
:102D2E0074696E67205352414D20746573742E2E54
:102D3E002E00577269746520706861736520657224
:102D4E00726F723A206578745F72616D5B253464C0
:102D5E005D203D2025303258202873686F756C64D5
:102D6E002062652025303258290A00526574726936
:102D7E006576616C207068617365206572726F7222
:102D8E003A206578745F72616D5B2534645D203D19
:102D9E002025303258202873686F756C6420626568
:102DAE002025303258290A005352414D2074657344
:102DBE007420636F6D706C657465642077697468D8
:102DCE00200A253464206572726F727320696E203A
:102DDE00777269746520706861736520616E642016
:102DEE000A253464206572726F727320696E2072C8
:102DFE00657472696576616C2070686173650A0D21
:022E0E000000C2
:00000001FF
