:100000000C9496030C94C0040C94AD080C94B303A8
:100010000C94B3030C94B3030C94B3030C94B30388
:100020000C94B3030C94B3030C94B3030C94B30378
:100030000C94B3030C94E4080C94B3030C94B30332
:100040000C94B3030C94B3030C94B3030C94B30358
:100050000C94B3030C94B3030C94B3030C94B30348
:100060000C94B3030C94B3030C94B3030C94B30338
:1000700074008200526573657400A50096008900C3
:10008000820052657475726E0053656C65637420EE
:100090006D75736963005365742062726967687473
:1000A0006E65737300536574206469666669637571
:1000B0006C747900D400CB00C100BC005175697428
:1000C000004869676873636F72650053657474698B
:1000D0006E6773004E65772067616D6500000000F4
:1000E00000005C00000C000C007C287C2858DC68B8
:1000F000002410480028542840000C000000788498
:10010000008478000054385400107C1000804000B7
:1001100000101010000040000060100C003854382F
:1001200000487C40004864580044542C001C107C5B
:10013000005C5424003854240064140C0068542CCF
:10014000004854380000480000804800001028444F
:100150000028282800442810000454080038445C73
:1001600000781478007C542800384428007C4438F7
:10017000007C5444007C140400384474007C107CDF
:1001800000447C440020403C007C106C007C4040DB
:10019000007C187C0078103C00384438007C14083F
:1001A000003844B8007C14680048542400047C04DF
:1001B000007C407C003C603C007C307C006C106C1F
:1001C000000C700C0064544C00007C44000C106067
:1001D00000447C00000804080080808000000408BF
:1001E00000304878007C4830003048480030487C77
:1001F00000306850001078140090A878007C0870D7
:100200000050744000808074007C106800447C4082
:1002100000781078007808700030483000F8281016
:10022000003048F8007810080050582800083C4872
:10023000003840780038403800782078004830484E
:100240000098A078004868580010788400007C006E
:10025000008478100008040804000000000000007A
:100260005F00000007000700147F147F14242A7F1A
:100270002A122313086462364955225000050300F0
:1002800000001C2241000041221C00082A1C2A08F0
:1002900008083E0808005030000008080808080058
:1002A0006060000020100804023E5149453E0042B3
:1002B0007F400042615149462141454B311814129B
:1002C0007F1027454545393C4A49493001710905A8
:1002D000033649494936064949291E003636000089
:1002E000005636000000081422411414141414415E
:1002F000221408000201510906324979413E7E115B
:1003000011117E7F494949363E414141227F414199
:10031000221C7F494949417F090901013E41415160
:10032000327F0808087F00417F41002040413F01A3
:100330007F081422417F404040407F0204027F7FBB
:100340000408107F3E4141413E7F090909063E41B4
:1003500051215E7F09192946464949493101017FEA
:1003600001013F4040403F1F2040201F7F201820B8
:100370007F631408146303047804036151494543FF
:1003800000007F4141020408102041417F00000429
:100390000201020440404040400001020400205499
:1003A0005454787F484444383844444420384444C2
:1003B000487F3854545418087E09010208145454D4
:1003C0003C7F0804047800447D40002040443D0008
:1003D000007F10284400417F40007C041804787C92
:1003E0000804047838444444387C1414140808146D
:1003F00014187C7C080404084854545420043F44D6
:1004000040203C4040207C1C2040201C3C40304090
:100410003C44281028440C5050503C4464544C44F4
:10042000000836410000007F00000041360800024D
:1004300001030201000000000000000000065F5FF1
:10044000060000000007070007070000147F7F1464
:100450007F7F1400242E6B6B3A1200004666301822
:100460000C666200307A4F5D377A4800040703005B
:1004700000000000001C3E63410000000041633E9C
:100480001C000000082A3E1C1C3E2A0808083E3EAC
:100490000808000000A0E06000000000080808084C
:1004A0000808000000006060000000006030180CC8
:1004B000060301003E7F594D7F3E000042427F7F90
:1004C00040400000627359496F6600002263494949
:1004D0007F360000181C16137F7F100027674545E4
:1004E0007D3900003C7E4B4979300000036371196F
:1004F0000F070000367F49497F360000064F4969E3
:100500003F1E000000006C6C0000000000A0EC6CBE
:1005100000000000081C366341000000141414148D
:1005200014140000004163361C08000002035159F6
:100530000F0600003E7F415D5D1F1E007C7E131391
:100540007E7C0000417F7F49497F36001C3E63412D
:1005500041632200417F7F41637F1C00417F7F49CF
:100560005D416300417F7F491D0103001C3E6341E3
:10057000517372007F7F08087F7F000000417F7FFA
:1005800041000000307040417F3F0100417F7F0803
:100590001C776300417F7F41406070007F7F060CC5
:1005A000067F7F007F7F060C187F7F001C3E634123
:1005B000633E1C00417F7F49090F06001E3F2171E9
:1005C0007F5E0000417F7F19396F460026674D59D5
:1005D0007B32000003417F7F410300007F7F40406A
:1005E0007F7F00001F3F60603F1F00007F7F30184B
:1005F000307F7F0063771C081C776300074F787893
:100600004F0700006773594D47637100007F7F41BA
:10061000410000000103060C183060000041417FDA
:100620007F000000080C0603060C08008080808014
:100630008080808000000307040000002074545470
:100640003C784000413F7F44447C3800387C44443F
:100650006C280000307848493F7F4000387C545473
:100660005C180000487E7F490302000098BCA4A4E7
:10067000F87C0400417F7F08047C780000447D7D85
:100680004000000040C484FD7D000000417F7F10D9
:10069000386C440000417F7F400000007C7C0C18D7
:1006A0000C7C78007C7C04047C780000387C44441A
:1006B0007C38000084FCF8A4243C1800183C24A4D6
:1006C000F8FC8400447C78441C180000485C5454B6
:1006D0007424000000043E7F442400003C7C404021
:1006E0003C7C40001C3C60603C1C00003C7C60305A
:1006F000607C3C00446C3810386C44009CBCA0A06A
:10070000FC7C00004C64745C4C64000008083E777C
:100710004141000000000077770000004141773E32
:1007200008080000020301030203010011241FBE98
:10073000CFEFD4E0DEBFCDBF12E0A0E0B1E0ECEE41
:10074000F2E202C005900D92AA38B107D9F722E073
:10075000AAE8B2E001C01D92AA39B207E1F70E94EF
:1007600010090C9474110C941506CF93C82F0E9495
:1007700081068C2F0E94A70660E680E60E9435065F
:100780004FEF63E08BE20E945F06CF910895CF9216
:10079000DF92EF92FF921F93CF93DF936C01FC01E6
:1007A0006081718176956795769567957695679561
:1007B00081E30E943506F60160816295660F607ED6
:1007C00082E30E943506F601628185E30E943506C8
:1007D000F60182811816BCF47601F3E0EF0EF11CED
:1007E00016E3C0E0D0E0F70161917F01812F0E9404
:1007F000350621961F5FF6018281082E000C990BA9
:10080000C817D90784F30E944906DF91CF911F9141
:10081000FF90EF90DF90CF9008958F929F92AF92CC
:10082000BF92CF92DF92EF92FF920F931F93CF93DD
:10083000DF93CDB7DEB72B970FB6F894DEBF0FBEB0
:10084000CDBF4C01FE0131968BE0DF011D928A95F0
:10085000E9F78CE20E94230680FF31C082E60E9405
:100860002306182F81E60E9423061295169517700D
:10087000B8E08B9FC00111245C01A10EB11C85E67C
:100880000E942306082F18160CF051C07E01E4E0E8
:10089000EE0EF11CCE01800F911D07FD9A959C0173
:1008A0002C5F3F4F690116E6812F0E942306D70176
:1008B0008D937D011F5FAC15BD05B1F738C08CE28B
:1008C0000E94230681FF30C082E70E942306182F72
:1008D00081E70E942306129516951770B8E08B9F4A
:1008E000C00111245C01A10EB11C85E70E94230602
:1008F000082F1816E4F47E01E4E0EE0EF11CCE01A0
:10090000800F911D07FD9A959C012C5F3F4F690157
:1009100016E7812F0E942306D7018D937D011F5F6B
:10092000AC15BD05B1F703C000E0A12CB12C1092AD
:100930008A0240E063E08CE20E945F06BA82A982EC
:100940000B838BE0FE013196D40101900D928A95C4
:10095000E1F7C4012B960FB6F894DEBF0FBECDBFF2
:10096000DF91CF911F910F91FF90EF90DF90CF908B
:10097000BF90AF909F908F90089580918A020895C4
:100980001F920F920FB60F9211248F9381E08093E4
:100990008A028F910F900FBE0F901F901895282FED
:1009A000249FC001259F900D1124992314F4815098
:1009B0009F4F292F392F330F330BFA0155230CF496
:1009C0003196F595E795DF01A60FB71FA217B3077C
:1009D0009CF4421B530B469FC001479F900D569FAE
:1009E000900D1124AF01461B570BBA010E94E90B71
:1009F000C901861B970B0895269FC001279F900D64
:100A0000369F900D1124BD010E94E90BC901861B80
:100A1000970B08951F93CF93DF9383E00E94D90B28
:100A2000C82F82E00E94D90B182F44E650E06EE0F8
:100A300070E08C2F0E94CF04EC0144E650E06FE0A0
:100A400070E0812F0E94CF04AE01BC01CB01BA013E
:100A5000DF91CF911F91089585B7806885BF80B7DA
:100A6000806280BF0895FB01F05F80830895905FEE
:100A7000FC01808108955D9BFECF8CB908955F9B3A
:100A8000FECF8CB1089590BD89B988E18AB98EE80E
:100A900080BD08956FE375E08BE395E00E94950DAE
:100AA000089587B3806B87BB87B3817B87BB81E564
:100AB0008DB9C49A08958FB9779BFECF089580E0D1
:100AC0000E945B058FB10895CF92DF92EF92FF9263
:100AD0000F931F93CF93DF9380E191E00E94F60D77
:100AE0000E947E0D7C010E94830DC12CD12C00E060
:100AF00010E0C6E2D1E00E947E0DF601F85E808330
:100B000020812817A9F099279F938F931F922F93E5
:100B1000DF92CF92DF93CF930E94E00D0F5F1F4FC4
:100B20008DB79EB708960FB6F8949EBF0FBE8DBFC7
:100B30009FEFC91AD90AC11488E0D806E1F6C701A7
:100B40000E94830DC0E0D0E0E12CF12C0F2EFFE5D8
:100B5000CF2EF1E0DF2EF02D0E947E0DFE01F85E1B
:100B600020812817B1F099279F938F931F922F937D
:100B7000DF93CF93DF92CF920E94E00D9FEFE91AAF
:100B8000F90A8DB79EB708960FB6F8949EBF0FBEB0
:100B90008DBF2196C11598E0D907F1F6FF92EF922B
:100BA0001F930F938CE991E09F938F930E94E00D28
:100BB0000F900F900F900F900F900F90DF91CF91AB
:100BC0001F910F91FF90EF90DF90CF900895F894D0
:100BD0008BB780688BBF85B7886085BF85B78B7FF3
:100BE00085BF8B9878940895F8941FBC1EBC1DBCDB
:100BF0001CBC84E690E09BBD8ABD8EB588608EBD2E
:100C00008EB585608EBD89B7806489BF789408955C
:100C1000F8948A988BB780648BBF85B7826085BF54
:100C200085B78E7F85BF789408951F920F920FB677
:100C30000F9211240F900FBE0F901F901895C4981B
:100C40000895C49A0895CF93C82F0E941F0683E089
:100C50000E945B058C2F0E945B050E945F05C82FD8
:100C60000E9421068C2FCF910895CF93DF93D82F28
:100C7000C62F0E941F0682E00E945B058D2F0E94F6
:100C80005B058C2F0E945B050E942106DF91CF91AE
:100C900008950E941F0681E80E945B050E942106BC
:100CA0000895CF930E941F0680EA0E945B050E9470
:100CB0005F05C82F0E9421068C2FCF9108951F93A6
:100CC000CF93DF93182FD62FC42F0E941F0685E0E5
:100CD0000E945B05812F0E945B058D2F0E945B05A2
:100CE0008C2F0E945B050E942106DF91CF911F91FE
:100CF00008950E941F0680EC0E945B050E94210659
:100D000008950E9451050E9479068DEE92E00197A8
:100D1000F1F700C000008EE00E942306807E80383C
:100D200039F085EF91E00E94F60D81E090E00895A2
:100D300061EC8AE20E94350669EA89E20E94350682
:100D400066E088E20E94350680E090E00895CF9347
:100D5000C82F482F60EE8FE00E945F068EE00E9451
:100D60002306807EC81739F08EE292E00E94F60DCD
:100D700081E090E002C080E090E0CF910895E091A2
:100D80008E02F0918F020480F581E02D848195819F
:100D900090938F0280938E0210928C0210928B029D
:100DA0000895E0918E02F0918F020190F081E02D84
:100DB0008481958190938F0280938E0210928C0291
:100DC00010928B0208950F931F93CF93DF938C01A2
:100DD000EB0186E090E00E94110CFC01118300837E
:100DE000D383C28315821482DF91CF911F910F911B
:100DF0000895CF92DF92EF92FF920F931F93CF93BC
:100E0000DF936C017B018A01E9018CE090E00E9494
:100E1000110CFC01D182C082F382E282158304832B
:100E2000D387C2871782168211861086DF91CF91F1
:100E30001F910F91FF90EF90DF90CF900895CF9288
:100E4000DF92EF92FF920F931F93CF93DF93CDB773
:100E5000DEB764970FB6F894DEBF0FBECDBFE0914A
:100E60008E02F0918F02E280F38000E010E02CC04F
:100E7000C801880F991FD701ED91FC91E80FF91F68
:100E800065917491CE0101960E948E0D6801BFEFAD
:100E9000CB1ADB0A68E070E0C6010E948E098091DF
:100EA0008B0290918C020817190739F460E070E00A
:100EB000CE0101960E94AD0A06C060E070E0CE014E
:100EC00001960E943D0A8601F701828193810817ED
:100ED000190774F264960FB6F894DEBF0FBECDBF4B
:100EE000DF91CF911F910F91FF90EF90DF90CF9006
:100EF00008956F927F928F929F92AF92BF92CF92FE
:100F0000DF92EF92FF920F931F93CF93DF9364E0F2
:100F100070E084EB90E00E94E306EC0164E070E096
:100F20008AE790E00E94E3067C0163E070E080E7DE
:100F300090E00E94E3063C0120E030E040E050E019
:100F4000BE0180E090E00E94F9068C012FEB36E0B4
:100F5000A701BE0180E090E00E94F9065C012FEB42
:100F600036E0A301BE0180E090E00E94F9066C012A
:100F700020E030E040E050E0BE0180E090E00E94E0
:100F8000F906F801B782A682F50111870087D7829A
:100F9000C682F601B186A08697838683FC01D1863E
:100FA000C08617830683F801918780871D830C8391
:100FB00020E030E040E050E0B701CE010E94F906A9
:100FC0006C0120E030E040E050E0B701CE010E942B
:100FD000F9064C0120E030E040E050E0B701CE01DE
:100FE0000E94F9065C0121ED36E040E050E0B701D7
:100FF000CE010E94F906F60197828682F401D1861D
:10100000C086B782A682F501918680869783868303
:10101000FC01B186A086D782C682F60191878087BF
:10102000F701D582C48220E030E040E050E0B30117
:10103000CE010E94F9067C0121ED36E040E050E04F
:10104000B301CE010E94F906F70197838683FC0164
:10105000F186E086F301F582E48210938F0200931B
:101060008E0210928C0210928B020E94990980E0ED
:1010700090E00E941F07DF91CF911F910F91FF9089
:10108000EF90DF90CF90BF90AF909F908F907F9028
:101090006F900895FC0177836683FB0191878087B9
:1010A00008950E94330B009719F0019731F14BC05E
:1010B000E0918E02F0918F020680F781E02DF0938F
:1010C0008F02E0938E0280918B0290918C020097A8
:1010D00059F40280F381E02D8281938101979093EE
:1010E0008C0280938B0205C0019790938C028093B1
:1010F0008B0281E080938D0226C0E0918E02F091F8
:101100008F020084F185E02DF0938F02E0938E0230
:1011100080918B0290918C020280F381E02D2281DC
:101120003381215031092817390729F410928C0294
:1011300010928B0205C0019690938C0280938B02D3
:1011400081E080938D022FEF8FE392E02150804069
:101150009040E1F700C0000008951F920F920FB673
:101160000F9211242F933F934F935F936F937F932D
:101170008F939F93AF93BF93EF93FF93E0918E0272
:10118000F0918F0282859385892B69F00E949909DD
:1011900081E080938D02E0918E02F0918F020284B3
:1011A000F385E02D0995FF91EF91BF91AF919F914C
:1011B0008F917F916F915F914F913F912F910F9000
:1011C0000FBE0F901F9018951F920F920FB60F929F
:1011D00011242F933F934F935F936F937F938F933C
:1011E0009F93AF93BF93EF93FF9380918D028823DA
:1011F00031F010928D0280E090E00E941F07FF9175
:10120000EF91BF91AF919F918F917F916F915F917E
:101210004F913F912F910F900FBE0F901F901895F7
:10122000CF93DF93CDB7DEB72B970FB6F894DEBF21
:101230000FBECDBF0E942C058FE190E00E944305B8
:101240000E944A050E9464050E94D60B0E94B509BF
:101250000E94790780E00E94B5030E94E7050E9482
:10126000F4050E9408060F2EFCE4AF2EF2E0BF2E1C
:10127000F02D0F2EFDE5CF2EF2E0DF2EF02D7E01BA
:1012800084E0E80EF11C07E712E00E94BD04882309
:10129000E1F3CE0101960E940D048A818F9389812A
:1012A0008F93BF92AF920E94E00D8B81282F082E62
:1012B000000C330B3F938F93DF92CF920E94E00D8F
:1012C000FF92EF921F930F930E94E00D0FB6F894D8
:1012D000DEBF0FBECDBFD9CF80930010089580939D
:1012E000001208958830910518F4805580930010FD
:1012F00008958038910588F4282F2F70E0E0F0E100
:101300002083807F992795958795959587959595C5
:10131000879595958795805F80830895CF93DF9318
:10132000EB010E947209CE010E947909DF91CF91F1
:1013300008950F931F93CF93DF9300E010E0C0E078
:10134000D2E160E070E0C8010E948E0980E890E080
:1013500018820197E9F70F5F1F4F0830110589F7D1
:10136000DF91CF911F910F910895E0E0F0E18EEAB7
:10137000808381EA80838AED808382E1808388ECA8
:10138000808388EA80838FE3808385ED808380E893
:10139000808381E8808380E5808389ED808381E29A
:1013A000808380E2808382E080838BED808380E392
:1013B00080838DEA8083108284EA808386EA80833A
:1013C0008FEA80830E949909089590EE980F9F35C7
:1013D00008F052C061307105E9F020F0623071050B
:1013E000B1F10895082E000C990B8097880F991F72
:1013F000880F991F880F991FFC01EC5CFB4F845CE0
:101400009B4FA0E0B2E124912C933196E817F907A5
:10141000D1F70895082E000C990B9C01220F331F61
:10142000220F331F820F931F20E030E0805A910972
:10143000A0E0B2E1FC01E20FF31FE75AFD4FE49197
:10144000EC932F5F3F4F25303105A1F70895082E0B
:10145000000C990B8097880F991F880F991FFC012A
:10146000E352FF4F8F519F4FA0E0B2E124912C93A4
:101470003196E817F907D1F708950F931F93CF938B
:10148000DF93EC018881882341F08B012196B8011C
:101490000E94E50989918111FACFDF91CF911F91C7
:1014A0000F91089590EE980F9F3508F055C0613068
:1014B0007105F1F020F062307105C1F10895082E38
:1014C000000C990B8097880F991F880F991F880F20
:1014D000991FFC01EC5CFB4F845C9B4FA0E0B2E1E8
:1014E000249120952C933196E817F907C9F70895B0
:1014F000082E000C990B9C01220F331F220F331F63
:10150000820F931F20E030E0805A9109A0E0B2E101
:10151000FC01E20FF31FE75AFD4FE491E095EC93D5
:101520002F5F3F4F2530310599F70895082E000CA5
:10153000990B8097880F991F880F991FFC01E35220
:10154000FF4F8F519F4FA0E0B2E1249120952C9343
:101550003196E817F907C9F708950F931F93CF93B2
:10156000DF93EC018881882341F08B012196B8013B
:101570000E94520A89918111FACFDF91CF911F9178
:101580000F910895E0E0F2E188E1808380839EE797
:1015900090839CE390838083089590E08058910924
:1015A000FA01E21BF30B8E9FD0018F9FB00D9E9F1F
:1015B000B00D1124BB2314F4A150BF4FEB2FFB2F10
:1015C000FF0FFF0B6E177F07A4F49A012E1B3F0B32
:1015D000269FC001279F900D369F900D11249A01E0
:1015E000261B370BB9010E94E90BCF01861B970B15
:1015F0000895A9014E1B5F0B469FC001479F900DA8
:10160000569F900D1124A901461B570BBA010E9449
:10161000E90BCF01861B970B08951F93CF93DF93A0
:1016200080E00E94D90BC82F81E00E94D90B182FAF
:101630002CE93FEF44E650E06AE170E08C2F0E9415
:10164000CD0AEC012CE93FEF44E650E06CE170E09C
:10165000812F0E94CD0AAE01BC01CB01BA01DF91FE
:10166000CF911F9108950E940D0B9B01AC01633334
:1016700071059CF0DC01992324F4AA27BB27A81B41
:10168000B90BFB01332324F4EE27FF27E61BF70BEE
:10169000AE17BF070CF44DC068C06E3CEFEF7E077D
:1016A00094F4DC01992324F4AA27BB27A81BB90BC7
:1016B000FB01332324F4EE27FF27E61BF70BAE17BD
:1016C000BF07D4F14EC04333510594F0FB013323DF
:1016D00024F4EE27FF27E61BF70B9C01552324F487
:1016E00022273327281B390B2E173F07B4F027C0BA
:1016F0004E3CEFEF5E078CF4FB01332324F4EE271E
:10170000FF27E61BF70B9C01552324F422273327E0
:10171000281B390B2E173F07ACF49B01275F3F4F67
:101720002331310590F40996439790F485E090E0D9
:10173000089583E090E0089582E090E0089580E0CD
:1017400090E0089581E090E0089584E090E00895AD
:1017500084E090E0089580E090E0089581E090E0DA
:1017600008954333510534F0F6CF2E3CEFEF3E079A
:10177000C4F3A9CF4E3C5F4F84F6F0CFB89A83B73D
:10178000886083BF83B78F7B83BF83B78F7D83BF21
:1017900083B7806183BF83B78B7F83BF83B78D7F20
:1017A00083BF83B7816083BF11BE08950E94BE0BC3
:1017B0000895109200140000482F50E020E030E01F
:1017C000E0E0F4E180812F5F3F4F42175307D4F7E9
:1017D000089597FB072E16F4009407D077FD09D0E3
:1017E0000E94FD0B07FC05D03EF4909581959F4F1C
:1017F0000895709561957F4F0895AA1BBB1B51E119
:1018000007C0AA1FBB1FA617B70710F0A61BB70B70
:10181000881F991F5A95A9F780959095BC01CD0115
:1018200008950F931F93CF93DF938230910510F4A7
:1018300082E090E0E0919202F091930220E030E0AB
:10184000A0E0B0E0309719F140815181028113810D
:1018500048175907C8F08417950769F4109731F0B5
:1018600012960C93129713961C9327C00093920222
:101870001093930222C02115310519F04217530726
:1018800018F49A01BD01EF01DF01F801DBCF21154A
:101890003105F9F0281B390B2430310580F48A8199
:1018A0009B816115710521F0FB019383828304C044
:1018B0009093930280939202FE01329644C0FE01FF
:1018C000E20FF31F819391932250310939832883CA
:1018D0003AC02091900230919102232B41F4209143
:1018E00002013091030130939102209390022091E4
:1018F0000001309101012115310541F42DB73EB7AA
:101900004091040150910501241B350BE091900298
:10191000F0919102E217F307A0F42E1B3F0B28175A
:10192000390778F0AC014E5F5F4F2417350748F058
:101930004E0F5F1F509391024093900281939193B9
:1019400002C0E0E0F0E0CF01DF91CF911F910F9155
:101950000895CF93DF93009709F481C0FC0132977B
:1019600013821282A0919202B0919302109781F497
:1019700020813181820F931F20919002309191023A
:101980002817390751F5F0939102E093900267C050
:10199000ED0120E030E0CE17DF0740F44A815B81A3
:1019A0009E0141155105F1F0EA01F5CFD383C283C1
:1019B00040815181840F951FC817D90759F4888138
:1019C0009981840F951F0296918380838A819B81E0
:1019D000938382832115310529F4F0939302E093D8
:1019E00092023DC0E901FB83EA8349915991C40FFA
:1019F000D51FEC17FD0761F480819181840F951F3D
:101A00000296E90199838883828193819B838A83EB
:101A1000E0E0F0E012968D919C911397009719F0F9
:101A2000FD01DC01F7CF8D919C9111979D012E5FF7
:101A30003F4F820F931F20919002309191022817FF
:101A4000390769F4309729F41092930210929202A8
:101A500002C013821282B0939102A0939002DF9190
:101A6000CF9108958F929F92AF92BF92CF92DF92C3
:101A7000EF92FF92CF93DF93EC01688179818A81A5
:101A80009B81611571058105910521F464E279ED71
:101A90008BE597E02DE133EF41E050E00E94DA1052
:101AA00049015A019B01AC01A7EAB1E40E94F91077
:101AB0006B017C01ACEEB4EFA50194010E9407110B
:101AC000DC01CB018C0D9D1DAE1DBF1DB7FF03C0FA
:101AD0000197A109B04888839983AA83BB839F7724
:101AE000DF91CF91FF90EF90DF90CF90BF90AF90BC
:101AF0009F908F9008950E94320D089586E091E0A6
:101B00000E94320D0895A0E0B0E08093060190930A
:101B10000701A0930801B09309010895FB01DC01BE
:101B200005900D920020E1F708950F931F93CF9336
:101B3000DF93009731F46115710519F480E090E0AE
:101B40003AC08B01EC016EE070E081E090E00E9411
:101B50000710FC01892B91F380E88383011511059F
:101B600071F01387028781E88383809194029091BA
:101B70009502892B21F4F0939502E093940220972B
:101B8000C9F0D187C0878381826083838091960268
:101B900090919702892B71F4F0939702E09396024B
:101BA0008091980290919902892B21F4F0939902E7
:101BB000E0939802CF01DF91CF911F910F9108958B
:101BC000A0E0B0E0E6EEFDE00C941C11AE014B5F2E
:101BD0005F4FFA0161917191AF01809196029091EE
:101BE00097020E94260EE2E00C9438110F931F9387
:101BF000CF93DF93E0919602F0919702238121FF2A
:101C00001BC08C01D0E0C0E0F80181918F01609190
:101C1000960270919702DB011896ED91FC9119974D
:101C2000882331F00995892B79F3DFEFCFEFECCFE3
:101C30008AE00995892B19F08FEF9FEF02C08D2F55
:101C40009C2FDF91CF911F910F910895ABE0B0E0F1
:101C5000ECE2FEE00C940C116C017B018A01FC01AA
:101C600017821682838181FFCCC1CE0101963C018F
:101C7000F6019381F70193FD859193FF81917F0197
:101C8000882309F4BAC1853239F493FD859193FF15
:101C900081917F01853229F4B60190E00E944010C5
:101CA000E7CF912C212C312CFFE1F315D8F08B32AA
:101CB00079F038F4803279F08332A1F4232D206159
:101CC0001DC08D3261F0803369F4232D216016C070
:101CD000832D8260382EE32DE4603E2E2AC0F32D42
:101CE000F8601DC037FC2DC020ED280F2A3040F0D1
:101CF0008E32B9F436FC81C1232D2064322E19C0F6
:101D000036FE06C08AE0989E200D1124922E11C046
:101D1000EAE02E9E200D1124222EF32DF0623F2E9C
:101D200008C08C3621F4832D8068382E02C0883696
:101D300041F4F70193FD859193FF81917F0181111A
:101D4000B3CF982F9F7D9554933028F40C5F1F4F8D
:101D50009FE399830DC0833631F0833771F083356B
:101D600009F059C021C0F801808189830E5F1F4F9F
:101D700088248394912C530113C02801F2E04F0E64
:101D8000511CF801A080B18036FE03C0692D70E0BF
:101D900002C06FEF7FEFC5010E9435104C01820138
:101DA000F32DFF773F2E16C0280122E0420E511C72
:101DB000F801A080B18036FE03C0692D70E002C03A
:101DC0006FEF7FEFC5010E9423104C01F32DF068E7
:101DD0003F2E820133FC1BC0822D90E088169906AD
:101DE000B0F4B60180E290E00E9440102A94F4CF53
:101DF000F50137FC859137FE81915F01B60190E0D6
:101E00000E94401021102A9421E0821A9108811426
:101E1000910471F7E8C0843611F0893641F5F80174
:101E200037FE07C060817181828193810C5F1F4FF3
:101E300008C060817181072E000C880B990B0E5F22
:101E40001F4FF32DFF763F2E97FF09C09095809589
:101E5000709561957F4F8F4F9F4FF0683F2E2AE01E
:101E600030E0A3010E947C10882E861845C085377B
:101E700031F4232D2F7EB22E2AE030E025C0932DA1
:101E8000997FB92E8F36C1F018F4883579F0B5C036
:101E9000803719F0883721F0B0C0E92FE061BE2EFD
:101EA000B4FE0DC0FB2DF460BF2E09C034FE0AC085
:101EB000292F2660B22E06C028E030E005C020E1C0
:101EC00030E002C020E132E0F801B7FE07C06081D7
:101ED0007181828193810C5F1F4F06C06081718187
:101EE00080E090E00E5F1F4FA3010E947C10882EBF
:101EF0008618FB2DFF773F2E36FE0DC0232D2E7F3B
:101F0000A22E891458F434FE0BC032FC09C0832D74
:101F10008E7EA82E05C0B82CA32C03C0B82C01C0FF
:101F2000B92CA4FE0FC0FE01E80DF11D80818033A5
:101F300021F49A2D997EA92E09C0A2FE06C0B39461
:101F4000B39404C08A2D867809F0B394A3FC11C021
:101F5000A0FE06C0B21488F4280C922C9B180EC068
:101F6000B21460F4B60180E290E00E944010B39495
:101F7000F7CFB21418F42B1802C0982C212CA4FE11
:101F800010C0B60180E390E00E944010A2FE17C08E
:101F9000A1FC03C088E790E002C088E590E0B601AC
:101FA0000CC08A2D867859F0A1FE02C08BE201C0D8
:101FB00080E2A7FC8DE2B60190E00E9440108914F7
:101FC00038F4B60180E390E00E9440109A94F7CF75
:101FD0008A94F301E80DF11D8081B60190E00E9422
:101FE00040108110F5CF222009F442CEB60180E2E4
:101FF00090E00E9440102A94F6CFF60186819781E6
:1020000002C08FEF9FEF2B96E2E10C9428110F9303
:102010001F93CF93DF93869F8001879F100D969F1C
:10202000100D1124C8010E94110CEC01009729F039
:10203000A80160E070E00E942E10CE01DF91CF91E8
:102040001F910F910895FC0105906150704001109F
:10205000D8F7809590958E0F9F1F0895DC0101C0E1
:102060006D9341505040E0F70895FC01615070407D
:1020700001900110D8F7809590958E0F9F1F0895BD
:102080000F931F93CF93DF93FB01238121FD03C0A7
:102090008FEF9FEF2CC022FF16C04681578124810D
:1020A00035814217530744F4A081B1819D012F5F10
:1020B0003F4F318320838C93268137812F5F3F4FA1
:1020C0003783268314C08B01EC01FB010084F1856A
:1020D000E02D0995892BE1F6D80116968D919C91FA
:1020E0001797019617969C938E931697CE01DF91C2
:1020F000CF911F910F910895FA01AA27283051F12D
:10210000203181F1E8946F936E7F6E5F7F4F8F4F28
:102110009F4FAF4FB1E03ED0B4E03CD0670F781F87
:10212000891F9A1FA11D680F791F8A1F911DA11D6C
:102130006A0F711D811D911DA11D20D009F46894A5
:102140003F912AE0269F11243019305D3193DEF64D
:10215000CF010895462F4770405D4193B3E00FD003
:10216000C9F7F6CF462F4F70405D4A3318F0495DEE
:1021700031FD4052419302D0A9F7EACFB4E0A695D1
:102180009795879577956795BA95C9F700976105F3
:10219000710508959B01AC010A2E06945795479549
:1021A00037952795BA95C9F7620F731F841F951F3E
:1021B000A01D0895052E97FB1EF400940E94F110B7
:1021C00057FD07D00E94431107FC03D04EF40C9436
:1021D000F11050954095309521953F4F4F4F5F4FEF
:1021E000089590958095709561957F4F8F4F9F4F83
:1021F00008950E946511A59F900DB49F900DA49F16
:10220000800D911D11240895B7FF0C94F9100E94C0
:10221000F910821B930B08952F923F924F925F9279
:102220006F927F928F929F92AF92BF92CF92DF92E6
:10223000EF92FF920F931F93CF93DF93CDB7DEB74B
:10224000CA1BDB0B0FB6F894DEBF0FBECDBF0994DF
:102250002A88398848885F846E847D848C849B8436
:10226000AA84B984C884DF80EE80FD800C811B8144
:10227000AA81B981CE0FD11D0FB6F894DEBF0FBE73
:10228000CDBFED010895A1E21A2EAA1BBB1BFD01D3
:102290000DC0AA1FBB1FEE1FFF1FA217B307E40745
:1022A000F50720F0A21BB30BE40BF50B661F771F9D
:1022B000881F991F1A9469F760957095809590957D
:1022C0009B01AC01BD01CF010895A29FB001B39F56
:1022D000C001A39F700D811D1124911DB29F700D2F
:0C22E000811D1124911D0895F894FFCF7A
:1022EC0000009A0220000100000008000500040014
:1022FC005374617274696E67205352414D2074653A
:10230C0073742E2E2E005772697465207068617379
:10231C0065206572726F723A206578745F72616DB8
:10232C005B2534645D203D202530325820287368AD
:10233C006F756C642062652025303258290A005272
:10234C00657472696576616C20706861736520656F
:10235C0072726F723A206578745F72616D5B2534AE
:10236C00645D203D2025303258202873686F756CD1
:10237C00642062652025303258290A005352414DA1
:10238C00207465737420636F6D706C657465642064
:10239C0077697468200A253464206572726F7273D1
:1023AC0020696E207772697465207068617365208E
:1023BC00616E64200A253464206572726F7273201A
:1023CC00696E2072657472696576616C20706861E3
:1023DC0073650A0D004552524F523A204D4350320C
:1023EC00353135206E6F7420696E20636F6E6669AF
:1023FC006775726174696F6E206D6F6465206166BC
:10240C007465722072657365742E200D2000455220
:10241C00524F523A206661696C656420746F207368
:10242C006574206D6F64652E200D20006D657373CF
:10243C006167652069643A2025640A0D006D657337
:10244C00736167652064617461206C656E67746884
:10245C003A2025640A0D006D65737361676520640D
:0A246C006174613A2025730A0D0027
:00000001FF
