:100000000C94EB010C9488030C940E070C940802DA
:100010000C9408020C9408020C9408020C94C2037D
:100020000C9408020C9408020C9408020C94080228
:100030000C9408020C94E4060C9408020C94080238
:100040000C9408020C9408020C9408020C94080208
:100050000C9408020C9408020C9408020C940802F8
:100060000C9408020C9408020C9408020C940802E8
:1000700074008200526573657400A50096008900C3
:10008000820052657475726E0053656C65637420EE
:100090006D75736963005365742062726967687473
:1000A0006E65737300536574206469666669637571
:1000B0006C747900D400CB00C100BC005175697428
:1000C000004869676873636F72650053657474698B
:1000D0006E6773004E65772067616D6500000000F4
:1000E000000000000000065F5F0600000000070738
:1000F0000007070000147F7F147F7F1400242E6BFD
:100100006B3A120000466630180C666200307A4F77
:100110005D377A48000407030000000000001C3E21
:1001200063410000000041633E1C000000082A3EBD
:100130001C1C3E2A0808083E3E0808000000A0E0FB
:1001400060000000000808080808080000000060BF
:1001500060000000006030180C060301003E7F596B
:100160004D7F3E000042427F7F4040000062735955
:10017000496F660000226349497F360000181C164B
:10018000137F7F1000276745457D3900003C7E4B7B
:100190004979300000036371190F070000367F4969
:1001A000497F360000064F49693F1E000000006C81
:1001B0006C0000000000A0EC6C00000000081C3681
:1001C000634100000014141414141400000041636F
:1001D000361C080000020351590F0600003E7F4103
:1001E0005D5D1F1E007C7E13137E7C0000417F7FBF
:1001F00049497F36001C3E634141632200417F7FB5
:1002000041637F1C00417F7F495D416300417F7FE7
:10021000491D0103001C3E6341517372007F7F083A
:10022000087F7F000000417F7F4100000030704068
:10023000417F3F0100417F7F081C776300417F7F42
:1002400041406070007F7F060C067F7F007F7F0645
:100250000C187F7F001C3E6341633E1C00417F7F82
:1002600049090F06001E3F21717F5E0000417F7F1C
:1002700019396F460026674D597B32000003417FD4
:100280007F410300007F7F40407F7F00001F3F6071
:10029000603F1F00007F7F3018307F7F0063771C36
:1002A000081C776300074F78784F07000067735981
:1002B0004D47637100007F7F41410000000103064C
:1002C0000C183060000041417F7F000000080C06E0
:1002D00003060C08008080808080808080000003FE
:1002E0000704000000207454543C784000413F7FD4
:1002F00044447C3800387C44446C28000030784802
:10030000493F7F4000387C54545C180000487E7F91
:10031000490302000098BCA4A4F87C0400417F7F3C
:1003200008047C780000447D7D4000000040C484C7
:10033000FD7D000000417F7F10386C440000417F4C
:100340007F400000007C7C0C180C7C78007C7C04D6
:10035000047C780000387C44447C38000084FCF83D
:10036000A4243C1800183C24A4F8FC8400447C78A5
:10037000441C180000485C54547424000000043EDF
:100380007F442400003C7C40403C7C40001C3C609E
:10039000603C1C00003C7C6030607C3C00446C385D
:1003A00010386C44009CBCA0A0FC7C00004C647421
:1003B0005C4C64000008083E7741410000000000EA
:1003C00077770000004141773E08080000020301F2
:1003D00003020301000011241FBECFEFD4E0DEBFF3
:1003E000CDBF12E0A0E0B1E0E2E9F0E202C005908A
:1003F0000D92A83AB107D9F722E0A8EAB2E001C00D
:100400001D92A93BB207E1F70E943C030C944710F0
:100410000C94E8038A988BB780648BBF85B78260A1
:1004200085BF85B78E7F85BF0895CF93DF93C82F93
:100430000E949204892B91F48C2F0E94B804EC0145
:10044000892B79F460E680E60E9446044FEF63E072
:100450008BE20E9470040E940A0205C0C1E0D0E055
:1004600002C0C1E0D0E0CE01DF91CF910895CF92DC
:10047000DF92EF92FF921F93CF93DF936C01FC0109
:100480006081718176956795769567957695679584
:1004900081E30E944604F60160816295660F607EEA
:1004A00082E30E944604F601628185E30E944604CD
:1004B000F60182811816BCF47601F3E0EF0EF11C10
:1004C00016E3C0E0D0E0F70161917F01812F0E9427
:1004D000460421961F5FF6018281082E000C990BBD
:1004E000C817D90784F30E945A04DF91CF911F9156
:1004F000FF90EF90DF90CF9008958F929F92AF92F0
:10050000BF92CF92DF92EF92FF920F931F93CF9300
:10051000DF93CDB7DEB72B970FB6F894DEBF0FBED3
:10052000CDBF4C01FE0131968BE0DF011D928A9513
:10053000E9F78CE20E94340480FF31C082E60E9419
:100540003404182F81E60E94340412951695177012
:10055000B8E08B9FC00111245C01A10EB11C85E69F
:100560000E943404082F18160CF051C07E01E4E0FC
:10057000EE0EF11CCE01800F911D07FD9A959C0196
:100580002C5F3F4F690116E6812F0E943404D7018A
:100590008D937D011F5FAC15BD05B1F738C08CE2AE
:1005A0000E94340481FF30C082E70E943404182F77
:1005B00081E70E943404129516951770B8E08B9F5E
:1005C000C00111245C01A10EB11C85E70E94340416
:1005D000082F1816E4F47E01E4E0EE0EF11CCE01C3
:1005E000800F911D07FD9A959C012C5F3F4F69017B
:1005F00016E7812F0E943404D7018D937D011F5F80
:10060000AC15BD05B1F703C000E0A12CB12CBA8236
:10061000A9820B838BE0FE013196D40101900D92EB
:100620008A95E1F7C4012B960FB6F894DEBF0FBE92
:10063000CDBFDF91CF911F910F91FF90EF90DF9091
:10064000CF90BF90AF909F908F9008955D9BFECF0D
:100650008CB908955F9BFECF8CB1089590BD89B988
:1006600088E18AB98EE880BD08956AE273E086E287
:1006700093E00E94680C0895F8948FE190E00E9446
:100680002E030E9435030E942A0A0E94390A0E9402
:100690007D070E949F080E94A2090E940E0680E02A
:1006A0000E941502789481E090E00E94AC080E94BC
:1006B000A7088230910541F083309105B9F0019788
:1006C000B1F70E945A05F3CF0E945108672B79F3C6
:1006D00083E090E00E94B1082FEF8FEF9EE0215061
:1006E00080409040E1F700C00000E1CF0E94510837
:1006F000672BE9F281E090E00E94B1082FEF8FEFC5
:100700009EE0215080409040E1F700C00000CFCF34
:100710001F920F920FB60F9211242F933F934F9376
:100720005F936F937F938F939F93AF93BF93EF9359
:10073000FF93CF93DF93CDB7DEB72B97DEBFCDBF4F
:10074000CE0101960E947D0240E063E08CE20E94AF
:1007500070042B960FB6F894DEBF0FBECDBFDF91AD
:10076000CF91FF91EF91BF91AF919F918F917F9129
:100770006F915F914F913F912F910F900FBE0F900E
:100780001F9018951F920F920FB60F9211242F935E
:100790003F934F935F936F937F938F939F93AF9309
:1007A000BF93EF93FF93F8940E945C087894FF91B5
:1007B000EF91BF91AF919F918F917F916F915F91D9
:1007C0004F913F912F910F900FBE0F901F90189552
:1007D0001F920F920FB60F9211240F900FBE0F9021
:1007E0001F90189587B3806B87BB87B3817B87BBCE
:1007F00081E58DB9C49A08958FB9779BFECF08958E
:1008000080E00E94FC038FB10895B89A83B7886096
:1008100083BF83B78F7B83BF83B78F7D83BF83B74E
:10082000806183BF83B78B7F83BF83B78D7F83BF97
:1008300083B7816083BF11BE08950E9405040895A7
:10084000109200140000482F50E020E030E0E0E07B
:10085000F4E180812F5F3F4F42175307D4F708958B
:10086000C4980895C49A0895CF93C82F0E94300465
:1008700083E00E94FC038C2F0E94FC030E94000472
:10088000C82F0E9432048C2FCF910895CF93DF930D
:10089000D82FC62F0E94300482E00E94FC038D2FC7
:1008A0000E94FC038C2F0E94FC030E943204DF9103
:1008B000CF9108950E94300481E80E94FC030E94B9
:1008C00032040895CF930E94300480EA0E94FC0312
:1008D0000E940004C82F0E9432048C2FCF910895EB
:1008E0001F93CF93DF93182FD62FC42F0E9430046D
:1008F00085E00E94FC03812F0E94FC038D2F0E9443
:10090000FC038C2F0E94FC030E943204DF91CF91E4
:100910001F9108950E94300480EC0E94FC030E9405
:10092000320408950E94F2030E948A048FED9EE231
:100930000197F1F700C000008EE00E943404807E31
:10094000803839F08AE091E00E94C90C81E090E0A3
:10095000089561EC8AE20E94460469EE89E20E94F1
:10096000460466E088E20E94460480E090E0089534
:10097000CF93C82F482F60EE8FE00E9470048EE066
:100980000E943404807EC81739F083E491E00E940D
:10099000C90C81E090E002C080E090E0CF91089522
:1009A000E091AB02F091AC020480F581E02D8481EE
:1009B00095819093AC028093AB021092A9021092A1
:1009C000A8020895E091AB02F091AC020190F08191
:1009D000E02D848195819093AC028093AB021092BC
:1009E000A9021092A802089582E090E00E94B10846
:1009F00008951FBC1EBC1DBC1CBC87E290E09BBDC3
:100A00008ABD8EB588608EBD8EB585608EBD89B776
:100A1000806489BF0895F89489B7806489BF789409
:100A20000895F89489B78F7B89BF789408950F93C0
:100A30001F93CF93DF938C01EB0186E090E00E943F
:100A4000E40AFC0111830083D383C28315821482DC
:100A5000DF91CF911F910F910895CF92DF92EF9286
:100A6000FF920F931F93CF93DF936C017B018A0159
:100A7000E9018CE090E00E94E40AFC01D182C0828E
:100A8000F382E28215830483D387C287178216829A
:100A900011861086DF91CF911F910F91FF90EF90FB
:100AA000DF90CF900895FC0177836683FB019187E7
:100AB000808708950E94B607009719F0019731F1D9
:100AC0004BC0E091AB02F091AC020084F185E02DC7
:100AD000F093AC02E093AB028091A8029091A9023E
:100AE000009759F40280F381E02D82819381019770
:100AF0009093A9028093A80205C001979093A90240
:100B00008093A80281E08093AA0226C0E091AB0204
:100B1000F091AC020680F781E02DF093AC02E093F7
:100B2000AB028091A8029091A9020280F381E02D8E
:100B300022813381215031092817390729F4109275
:100B4000A9021092A80205C001969093A902809371
:100B5000A80281E08093AA022FEF8FE392E0215058
:100B600080409040E1F700C000000895CF92DF92EE
:100B7000EF92FF920F931F93CF93DF93CDB7DEB722
:100B800064970FB6F894DEBF0FBECDBF0E948609F2
:100B9000E091AB02F091AC02E280F38000E010E063
:100BA00028C0C801880F991FD701ED91FC91E80F6B
:100BB000F91F65917491CE0101960E94610C680144
:100BC000BFEFCB1ADB0A68E070E0C6010E947B0928
:100BD0008091A8029091A9020817190729F4CE0163
:100BE00001960E941B0A04C0CE0101960E94EE09E4
:100BF0008601F701828193810817190794F26496A0
:100C00000FB6F894DEBF0FBECDBFDF91CF911F911D
:100C10000F91FF90EF90DF90CF9008956F927F92A9
:100C20008F929F92AF92BF92CF92DF92EF92FF92FC
:100C30000F931F93CF93DF9364E070E084EB90E019
:100C40000E941705EC0164E070E08AE790E00E94E2
:100C500017057C0162E070E080E790E00E941705D4
:100C60003C0124EF34E040E050E0BE0180E090E041
:100C70000E942D058C0120ED34E0A701BE0180E02B
:100C800090E00E942D055C0120ED34E0A301BE013F
:100C900080E090E00E942D056C0120E030E040E013
:100CA00050E0BE0180E090E00E942D05F801B7827F
:100CB000A682F50111870087D782C682F601B18628
:100CC000A08697838683FC01D186C086178306831E
:100CD000F801918780871D830C8320E030E040E09D
:100CE00050E0B701CE010E942D056C0120E030E0FC
:100CF00040E050E0B701CE010E942D054C0120E0FC
:100D000030E040E050E0B701CE010E942D055C01CB
:100D100022EE34E040E050E0B701CE010E942D0504
:100D2000F60197828682F401D186C086B782A682B8
:100D3000F5019186808697838683FC01B186A08623
:100D4000D782C682F60191878087F701D582C48257
:100D500020E030E040E050E0B301CE010E942D05DC
:100D60007C0122EE34E040E050E0B301CE010E946D
:100D70002D05F70197838683FC01F186E086F782D3
:100D8000E682F70191878087F301F582E482109370
:100D9000AC020093AB021092A9021092A8020E942A
:100DA00086090E94B6050E94F904DF91CF911F9138
:100DB0000F91FF90EF90DF90CF90BF90AF909F90FA
:100DC0008F907F906F9008951F920F920FB60F92A1
:100DD00011242F933F934F935F936F937F938F9340
:100DE0009F93AF93BF93EF93FF938091AA028823C1
:100DF00021F01092AA020E94B605FF91EF91BF91D7
:100E0000AF919F918F917F916F915F914F913F91A2
:100E10002F910F900FBE0F901F9018951F920F9259
:100E20000FB60F9211242F933F934F935F936F93BD
:100E30007F938F939F93AF93BF93EF93FF93E09133
:100E4000AB02F091AC020284F385E02D309721F0E3
:100E500081E08093AA020995FF91EF91BF91AF9134
:100E60009F918F917F916F915F914F913F912F91C2
:100E70000F900FBE0F901F90189590E08058910929
:100E800028EC289FA001299F500D1124552314F40C
:100E900041505F4F252F352F330F330B62177307E8
:100EA000B4F444E650E0FA01E21BF30BE69FC00104
:100EB000E79F900DF69F900D1124FA01E61BF70BAA
:100EC000BF010E94BC0AC901861B970B08954CE91B
:100ED0005FEFFA01E21BF30BE69FC001E79F900D65
:100EE000F69F900D1124FA01E61BF70BBF010E943B
:100EF000BC0AC901861B970B08950E941D0487B385
:100F0000897F87BB8B988BB780688BBF85B78860DC
:100F100085BF85B78B7F85BF10928B00EAE8F0E034
:100F2000108210928900109288008FEE90E09093CA
:100F300087008093860080818860808380818560BF
:100F40008083EDE7F0E08081806180830895CF9316
:100F500080E00E942004C82F81E00E942004282FF6
:100F60006C2F70E0822F90E0CF9108951F93CF9364
:100F7000DF930E94A707962F182F6AE170E0892F50
:100F80000E943D07EC016CE170E0812F0E943D075B
:100F9000C333D1059CF0AC01992324F44427552791
:100FA000481B590B9E01DD2324F4222733272C1BD9
:100FB0003D0B421753070CF446C05BC0CE3C2FEFED
:100FC000D20794F4AC01992324F444275527481BF5
:100FD000590B9E01DD2324F4222733272C1B3D0BC4
:100FE000421753079CF141C083339105A4F0AE0131
:100FF000DD2324F4442755274C1B5D0B9C019923CA
:1010000024F422273327281B390B241735070CF12A
:1010100080E090E033C08E3C2FEF9207ECF4AE01FD
:10102000DD2324F4442755274C1B5D0B9C01992399
:1010300024F422273327281B390B241735077CF08B
:1010400081E090E01BC083E090E018C082E090E077
:1010500015C084E090E012C084E090E00FC084E00E
:1010600090E00CC080E090E009C0833391059CF2D1
:10107000F9CFCE3C2FEFD207C4F3B6CFDF91CF919B
:101080001F910895CF9383E00E942004C82F82E02F
:101090000E942004282F6C2F70E0822F90E0CF91C7
:1010A000089526B336B370E090E032FB662760F90E
:1010B00021FB882780F90895EF92FF920F931F93E9
:1010C000CF93DF93CDB7DEB72B970FB6F894DEBF83
:1010D0000FBECDBF0E94A707E62EF82E0E94420841
:1010E000062F182F0E945108FE0131969BE0DF0168
:1010F0001D929A95E9F721E030E03A83298396E042
:101100009B83EC82FD820E831F8368878987CF01D2
:101110000E9437022B960FB6F894DEBF0FBECDBFEC
:10112000DF91CF911F910F91FF90EF900895F89468
:10113000EDE7F0E080818061808378940895F894F1
:10114000EDE7F0E080818F7E808378940895809130
:10115000AD029091AE0208959093AE028093AD02DD
:1011600008950F931F93CF93DF93CDB7DEB72B97DF
:101170000FB6F894DEBF0FBECDBF8C018230910553
:1011800081F08330910509F441C0019709F070C0E6
:101190000E940B0581E090E09093AE028093AD0237
:1011A00067C00E9411050E9497080E94860968E0A6
:1011B00070E081E090E00E947B0981E691E00E946E
:1011C000EE0968E070E083E090E00E947B098AE627
:1011D00091E00E94EE0968E070E084E090E00E94F7
:1011E0007B0988E791E00E94EE0968E070E085E005
:1011F00090E00E947B0986EB91E00E94EE0982E07C
:1012000090E09093AE028093AD0232C00E949F089E
:101210000E94860968E070E081E090E00E947B090E
:1012200087E891E00E94EE0968E070E083E090E0DA
:101230000E947B0983E991E00E94EE0968E070E07A
:1012400084E090E00E947B0982EA91E00E94EE092E
:1012500068E070E085E090E00E947B0982EB91E01D
:101260000E94EE0983E090E09093AE028093AD027D
:101270008FEF9FE20197F1F700C00000CE010196C9
:101280002BE0FC0111922A95E9F722E030E03A8345
:10129000298321E02B830C830E9437022B960FB603
:1012A000F894DEBF0FBECDBFDF91CF911F910F919C
:1012B0000895809300100895809300120895883057
:1012C000910518F480558093001008958038910599
:1012D00088F4282F2F70E0E0F0E12083807F9927A9
:1012E00095958795959587959595879595958795E6
:1012F000805F80830895CF93DF93EB010E945F09A5
:10130000CE010E946609DF91CF9108950F931F933C
:10131000CF93DF9300E010E0C0E0D2E160E070E046
:10132000C8010E947B0980E890E018820197E9F7E4
:101330000F5F1F4F0830110589F7DF91CF911F9183
:101340000F910895E0E0F0E18EEA808381EA8083E6
:101350008AED808382E1808388EC808388EA8083C1
:101360008FE3808385ED808380E8808381E88083BC
:1013700080E5808389ED808381E2808380E28083C1
:1013800082E080838BED808380E380838DEA80839D
:10139000108284EA808386EA80838FEA80830E94B9
:1013A0008609089590EE980F9F35B8F4082E000C2A
:1013B000990B8097880F991F880F991F880F991F85
:1013C000FC01E352FF4F8B519F4FA0E0B2E124910B
:1013D0002C933196E817F907D1F70895CF93DF934F
:1013E000EC018881882331F021960E94D2098991ED
:1013F0008111FBCFDF91CF91089590EE980F9F352B
:10140000C8F4282F880F330B20523109220F331FC5
:10141000220F331F220F331FF901E352FF4F2B51CD
:101420003F4FA0E0B2E1849180958C933196E21712
:10143000F307C9F70895CF93DF93EC0188818823E0
:1014400031F021960E94FD0989918111FBCFDF9136
:10145000CF91089585B7806885BF80B7806280BFCF
:101460000895FB01F85E80830895985EFC018081F9
:101470000895CF92DF92EF92FF920F931F93CF9335
:10148000DF9382EC91E00E94C90C0E94510C7C0118
:101490000E94560CC12CD12C00E010E0C8EDD1E028
:1014A0000E94510CF601F85E808320812817A9F074
:1014B00099279F938F931F922F93DF92CF92DF9361
:1014C000CF930E94B30C0F5F1F4F8DB79EB7089646
:1014D0000FB6F8949EBF0FBE8DBF9FEFC91AD90AF1
:1014E000C11488E0D806E1F6C7010E94560CC0E09E
:1014F000D0E0E12CF12C0F2EF1E1CF2EF2E0DF2E27
:10150000F02D0E94510CFE01F85E20812817B1F0E9
:1015100099279F938F931F922F93DF93CF93DF92FF
:10152000CF920E94B30C9FEFE91AF90A8DB79EB7CC
:1015300008960FB6F8949EBF0FBE8DBF2196C115B9
:1015400098E0D907F1F6FF92EF921F930F938EE484
:1015500092E09F938F930E94B30C0F900F900F9087
:101560000F900F900F90DF91CF911F910F91FF90EF
:10157000EF90DF90CF90089597FB072E16F400941C
:1015800007D077FD09D00E94D00A07FC05D03EF4B1
:10159000909581959F4F0895709561957F4F08951F
:1015A000AA1BBB1B51E107C0AA1FBB1FA617B70789
:1015B00010F0A61BB70B881F991F5A95A9F78095A5
:1015C0009095BC01CD0108950F931F93CF93DF93A6
:1015D0008230910510F482E090E0E091B102F09148
:1015E000B20220E030E0A0E0B0E0309719F1408195
:1015F00051810281138148175907C8F08417950754
:1016000069F4109731F012960C93129713961C936D
:1016100027C00093B1021093B20222C021153105F8
:1016200019F04217530718F49A01BD01EF01DF01C9
:10163000F801DBCF21153105F9F0281B390B2430D7
:10164000310580F48A819B816115710521F0FB01D0
:101650009383828304C09093B2028093B102FE010F
:10166000329644C0FE01E20FF31F81939193225002
:101670003109398328833AC02091AF023091B002FA
:10168000232B41F420910201309103013093B002E9
:101690002093AF0220910001309101012115310505
:1016A00041F42DB73EB74091040150910501241B30
:1016B000350BE091AF02F091B002E217F307A0F40E
:1016C0002E1B3F0B2817390778F0AC014E5F5F4F98
:1016D0002417350748F04E0F5F1F5093B002409318
:1016E000AF028193919302C0E0E0F0E0CF01DF917F
:1016F000CF911F910F910895CF93DF93009709F435
:1017000081C0FC01329713821282A091B102B09184
:10171000B202109781F420813181820F931F2091B2
:10172000AF023091B0022817390751F5F093B0029B
:10173000E093AF0267C0ED0120E030E0CE17DF0795
:1017400040F44A815B819E0141155105F1F0EA01A7
:10175000F5CFD383C28340815181840F951FC81771
:10176000D90759F488819981840F951F0296918336
:1017700080838A819B81938382832115310529F49B
:10178000F093B202E093B1023DC0E901FB83EA832A
:1017900049915991C40FD51FEC17FD0761F4808161
:1017A0009181840F951F0296E90199838883828134
:1017B00093819B838A83E0E0F0E012968D919C9167
:1017C0001397009719F0FD01DC01F7CF8D919C91E3
:1017D00011979D012E5F3F4F820F931F2091AF0203
:1017E0003091B0022817390769F4309729F4109224
:1017F000B2021092B10202C013821282B093B00200
:10180000A093AF02DF91CF9108958F929F92AF92F4
:10181000BF92CF92DF92EF92FF92CF93DF93EC01D2
:10182000688179818A819B816115710581059105A6
:1018300021F464E279ED8BE597E02DE133EF41E0AF
:1018400050E00E94AD0F49015A019B01AC01A7EA8B
:10185000B1E40E94CC0F6B017C01ACEEB4EFA501AA
:1018600094010E94DA0FDC01CB018C0D9D1DAE1D91
:10187000BF1DB7FF03C00197A109B04888839983B2
:10188000AA83BB839F77DF91CF91FF90EF90DF908A
:10189000CF90BF90AF909F908F9008950E94050CBD
:1018A000089586E091E00E94050C0895A0E0B0E064
:1018B0008093060190930701A0930801B09309015A
:1018C0000895FB01DC0105900D920020E1F70895D9
:1018D0000F931F93CF93DF93009731F46115710538
:1018E00019F480E090E03AC08B01EC016EE070E00A
:1018F00081E090E00E94DA0EFC01892B91F380E8F0
:1019000083830115110571F01387028781E88383B2
:101910008091B3029091B402892B21F4F093B40228
:10192000E093B3022097C9F0D187C087838182609A
:1019300083838091B5029091B602892B71F4F09364
:10194000B602E093B5028091B7029091B802892B5C
:1019500021F4F093B802E093B702CF01DF91CF9169
:101960001F910F910895A0E0B0E0E9EBFCE00C942A
:10197000EF0FAE014B5F5F4FFA0161917191AF01C3
:101980008091B5029091B6020E94F90CE2E00C94AD
:101990000B100F931F93CF93DF93E091B502F0915B
:1019A000B602238121FF1BC08C01D0E0C0E0F8010A
:1019B00081918F016091B5027091B602DB0118969A
:1019C000ED91FC911997882331F00995892B79F3D2
:1019D000DFEFCFEFECCF8AE00995892B19F08FEF7D
:1019E0009FEF02C08D2F9C2FDF91CF911F910F9100
:1019F0000895ABE0B0E0EFEFFCE00C94DF0F6C017A
:101A00007B018A01FC0117821682838181FFCCC190
:101A1000CE0101963C01F6019381F70193FD85917A
:101A200093FF81917F01882309F4BAC1853239F48B
:101A300093FD859193FF81917F01853229F4B60151
:101A400090E00E94130FE7CF912C212C312CFFE165
:101A5000F315D8F08B3279F038F4803279F0833294
:101A6000A1F4232D20611DC08D3261F0803369F413
:101A7000232D216016C0832D8260382EE32DE46073
:101A80003E2E2AC0F32DF8601DC037FC2DC020ED7E
:101A9000280F2A3040F08E32B9F436FC81C1232D54
:101AA0002064322E19C036FE06C08AE0989E200DB2
:101AB0001124922E11C0EAE02E9E200D1124222E18
:101AC000F32DF0623F2E08C08C3621F4832D806800
:101AD000382E02C0883641F4F70193FD859193FFBB
:101AE00081917F018111B3CF982F9F7D95549330C1
:101AF00028F40C5F1F4F9FE399830DC0833631F0AC
:101B0000833771F0833509F059C021C0F801808115
:101B100089830E5F1F4F88248394912C530113C037
:101B20002801F2E04F0E511CF801A080B18036FE72
:101B300003C0692D70E002C06FEF7FEFC5010E9406
:101B4000080F4C018201F32DFF773F2E16C02801AC
:101B500022E0420E511CF801A080B18036FE03C085
:101B6000692D70E002C06FEF7FEFC5010E94F60E95
:101B70004C01F32DF0683F2E820133FC1BC0822DF7
:101B800090E088169906B0F4B60180E290E00E94D9
:101B9000130F2A94F4CFF50137FC859137FE81911C
:101BA0005F01B60190E00E94130F21102A9421E0FA
:101BB000821A91088114910471F7E8C0843611F0FB
:101BC000893641F5F80137FE07C060817181828155
:101BD00093810C5F1F4F08C060817181072E000C3C
:101BE000880B990B0E5F1F4FF32DFF763F2E97FF4B
:101BF00009C090958095709561957F4F8F4F9F4F4D
:101C0000F0683F2E2AE030E0A3010E944F0F882E9B
:101C1000861845C0853731F4232D2F7EB22E2AE059
:101C200030E025C0932D997FB92E8F36C1F018F47E
:101C3000883579F0B5C0803719F0883721F0B0C009
:101C4000E92FE061BE2EB4FE0DC0FB2DF460BF2E67
:101C500009C034FE0AC0292F2660B22E06C028E033
:101C600030E005C020E130E002C020E132E0F801C0
:101C7000B7FE07C060817181828193810C5F1F4F25
:101C800006C06081718180E090E00E5F1F4FA3016C
:101C90000E944F0F882E8618FB2DFF773F2E36FEB1
:101CA0000DC0232D2E7FA22E891458F434FE0BC0B4
:101CB00032FC09C0832D8E7EA82E05C0B82CA32C23
:101CC00003C0B82C01C0B92CA4FE0FC0FE01E80D62
:101CD000F11D8081803321F49A2D997EA92E09C0AF
:101CE000A2FE06C0B394B39404C08A2D867809F08E
:101CF000B394A3FC11C0A0FE06C0B21488F4280C53
:101D0000922C9B180EC0B21460F4B60180E290E0F1
:101D10000E94130FB394F7CFB21418F42B1802C01B
:101D2000982C212CA4FE10C0B60180E390E00E9404
:101D3000130FA2FE17C0A1FC03C088E790E002C009
:101D400088E590E0B6010CC08A2D867859F0A1FE96
:101D500002C08BE201C080E2A7FC8DE2B60190E0F8
:101D60000E94130F891438F4B60180E390E00E94BA
:101D7000130F9A94F7CF8A94F301E80DF11D808137
:101D8000B60190E00E94130F8110F5CF222009F4D4
:101D900042CEB60180E290E00E94130F2A94F6CF63
:101DA000F6018681978102C08FEF9FEF2B96E2E1CB
:101DB0000C94FB0F0F931F93CF93DF93869F8001AB
:101DC000879F100D969F100D1124C8010E94E40AF0
:101DD000EC01009729F0A80160E070E00E94010F7B
:101DE000CE01DF91CF911F910F910895FC010590D5
:101DF000615070400110D8F7809590958E0F9F1F0D
:101E00000895DC0101C06D9341505040E0F7089502
:101E1000FC016150704001900110D8F780959095B9
:101E20008E0F9F1F08950F931F93CF93DF93FB0196
:101E3000238121FD03C08FEF9FEF2CC022FF16C02E
:101E400046815781248135814217530744F4A0818C
:101E5000B1819D012F5F3F4F318320838C93268179
:101E600037812F5F3F4F3783268314C08B01EC01EE
:101E7000FB010084F185E02D0995892BE1F6D8015D
:101E800016968D919C911797019617969C938E9319
:101E90001697CE01DF91CF911F910F910895FA010E
:101EA000AA27283051F1203181F1E8946F936E7F99
:101EB0006E5F7F4F8F4F9F4FAF4FB1E03ED0B4E08A
:101EC0003CD0670F781F891F9A1FA11D680F791FCB
:101ED0008A1F911DA11D6A0F711D811D911DA11DDC
:101EE00020D009F468943F912AE0269F11243019EC
:101EF000305D3193DEF6CF010895462F4770405D87
:101F00004193B3E00FD0C9F7F6CF462F4F70405D35
:101F10004A3318F0495D31FD4052419302D0A9F790
:101F2000EACFB4E0A6959795879577956795BA958A
:101F3000C9F700976105710508959B01AC010A2E50
:101F400006945795479537952795BA95C9F7620F27
:101F5000731F841F951FA01D0895052E97FB1EF467
:101F600000940E94C40F57FD07D00E94161007FC72
:101F700003D04EF40C94C40F5095409530952195A4
:101F80003F4F4F4F5F4F08959095809570956195A5
:101F90007F4F8F4F9F4F08950E943810A59F900D3F
:101FA000B49F900DA49F800D911D11240895B7FF3B
:101FB0000C94CC0F0E94CC0F821B930B08952F9290
:101FC0003F924F925F926F927F928F929F92AF92C9
:101FD000BF92CF92DF92EF92FF920F931F93CF9316
:101FE000DF93CDB7DEB7CA1BDB0B0FB6F894DEBFAD
:101FF0000FBECDBF09942A88398848885F846E84D3
:102000007D848C849B84AA84B984C884DF80EE801C
:10201000FD800C811B81AA81B981CE0FD11D0FB625
:10202000F894DEBF0FBECDBFED010895A1E21A2ED8
:10203000AA1BBB1BFD010DC0AA1FBB1FEE1FFF1F6C
:10204000A217B307E407F50720F0A21BB30BE40BBC
:10205000F50B661F771F881F991F1A9469F7609503
:102060007095809590959B01AC01BD01CF010895BD
:10207000A29FB001B39FC001A39F700D811D1124C9
:10208000911DB29F700D811D1124911D0895F8942A
:02209000FFCF80
:102092000000B9022000010000004552524F523A9E
:1020A200204D435032353135206E6F7420696E20D9
:1020B200636F6E66696775726174696F6E206D6FAA
:1020C20064652061667465722072657365742E2082
:1020D2000D20004552524F523A206661696C656488
:1020E20020746F20736574206D6F64652E200D203F
:1020F20000504C4159494E47210051756974207472
:1021020068652067616D6500627920707573686922
:102112006E67207468650047414D4520454E444531
:1021220044210052657475726E20746F206D61696E
:102132006E006D656E752062792070757368696EC8
:102142006700746865206C65667420627574746FCC
:102152006E005374617274696E67205352414D2050
:10216200746573742E2E2E00577269746520706820
:10217200617365206572726F723A206578745F725E
:10218200616D5B2534645D203D2025303258202866
:1021920073686F756C642062652025303258290A95
:1021A2000052657472696576616C2070686173654E
:1021B200206572726F723A206578745F72616D5B2E
:1021C2002534645D203D2025303258202873686F05
:1021D200756C642062652025303258290A005352FA
:1021E200414D207465737420636F6D706C65746506
:1021F200642077697468200A253464206572726FDE
:10220200727320696E2077726974652070686173D9
:102212006520616E64200A253464206572726F72D3
:102222007320696E2072657472696576616C2070C4
:08223200686173650A0D0000EC
:00000001FF
