:100000000C9438000C9442000C9442000C94420072
:100010000C9442000C9442000C9442000C94420058
:100020000C9442000C9442000C9442000C94420048
:100030000C9442000C9442000C9442000C94420038
:100040000C9442000C9442000C9442000C94420028
:100050000C9442000C9442000C9442000C94420018
:100060000C9442000C9442000C9442000C94420008
:1000700011241FBECFEFD4E0DEBFCDBF0E944400ED
:100080000C9470000C9400000E94490080E090E005
:10009000089581E08ABBD89A2FEF8FEF9EE0215020
:1000A00080409040E1F700C00000D8982FEF8FEF1C
:1000B0009EE0215080409040E1F700C00000EBCF6F
:1000C000599890BD89B988E18AB98CE880BD0895B6
:1000D0005D9BFECF8CB908955F9BFECF8CB10895D8
:0400E000F894FFCFC2
:00000001FF
