:100000000C9460030C947D030C947D030C947D038D
:100010000C947D030C947D030C947D030C947D0360
:100020000C947D030C947D030C947D030C947D0350
:100030000C947D030C947D030C947D030C947D0340
:100040000C947D030C947D030C947D030C947D0330
:100050000C947D030C947D030C947D030C947D0320
:100060000C947D030C947D030C947D030C947D0310
:1000700000000000005C00000C000C007C287C28C4
:1000800058DC68002410480028542840000C000068
:10009000007884008478000054385400107C1000EC
:1000A00080400000101010000040000060100C00A4
:1000B00038543800487C40004864580044542C00B0
:1000C0001C107C005C5424003854240064140C0080
:1000D00068542C0048543800004800008048000054
:1000E0001028440028282800442810000454080040
:1000F00038445C00781478007C5428003844280088
:100100007C4438007C5444007C140400384474005F
:100110007C107C00447C440020403C007C106C003F
:100120007C4040007C187C0078103C00384438004B
:100130007C1408003844B8007C146800485424003B
:10014000047C04007C407C003C603C007C307C00F3
:100150006C106C000C700C0064544C00007C44006B
:100160000C106000447C00000804080080808000BF
:1001700000040800304878007C48300030484800CF
:1001800030487C00306850001078140090A8780047
:100190007C08700050744000808074007C106800FF
:1001A000447C4000781078007808700030483000B7
:1001B000F82810003048F80078100800505828003F
:1001C000083C4800384078003840380078207800F3
:1001D0004830480098A0780048685800107884009B
:1001E000007C00008478100008040804000000006F
:1001F0000000005F00000007000700147F147F1458
:10020000242A7F2A1223130864623649552250009B
:1002100005030000001C2241000041221C00082AA6
:100220001C2A0808083E080800503000000808088A
:100230000808006060000020100804023E51494593
:100240003E00427F400042615149462141454B31C9
:100250001814127F1027454545393C4A4949300159
:10026000710905033649494936064949291E0036B0
:100270003600000056360000000814224114141401
:10028000141441221408000201510906324979412F
:100290003E7E1111117E7F494949363E414141223E
:1002A0007F4141221C7F494949417F090901013EA3
:1002B000414151327F0808087F00417F41002040C2
:1002C000413F017F081422417F404040407F0204AB
:1002D000027F7F0408107F3E4141413E7F090909AA
:1002E000063E4151215E7F09192946464949493157
:1002F00001017F01013F4040403F1F2040201F7F00
:100300002018207F631408146303047804036151E8
:1003100049454300007F4141020408102041417FCC
:100320000000040201020440404040400001020479
:100330000020545454787F4844443838444444207E
:10034000384444487F3854545418087E0901020840
:100350001454543C7F0804047800447D400020403D
:10036000443D00007F10284400417F40007C041879
:1003700004787C0804047838444444387C14141409
:1003800008081414187C7C080404084854545420A9
:10039000043F4440203C4040207C1C2040201C3C2A
:1003A0004030403C44281028440C5050503C446499
:1003B000544C44000836410000007F0000004136E4
:1003C000080002010302010000000000000000001C
:1003D000065F5F0600000000070700070700001423
:1003E0007F7F147F7F1400242E6B6B3A120000462F
:1003F0006630180C666200307A4F5D377A48000428
:1004000007030000000000001C3E634100000000E4
:1004100041633E1C000000082A3E1C1C3E2A0808BE
:10042000083E3E0808000000A0E060000000000850
:100430000808080808000000006060000000006074
:1004400030180C060301003E7F594D7F3E000042EC
:10045000427F7F40400000627359496F660000226E
:100460006349497F360000181C16137F7F10002750
:100470006745457D3900003C7E4B497930000003DB
:100480006371190F070000367F49497F3600000667
:100490004F49693F1E000000006C6C000000000026
:1004A000A0EC6C00000000081C3663410000001442
:1004B00014141414140000004163361C08000002D8
:1004C0000351590F0600003E7F415D5D1F1E007CF9
:1004D0007E13137E7C0000417F7F49497F36001CDC
:1004E0003E634141632200417F7F41637F1C0041A5
:1004F0007F7F495D416300417F7F491D0103001CEF
:100500003E6341517372007F7F08087F7F000000C7
:10051000417F7F41000000307040417F3F0100413A
:100520007F7F081C776300417F7F41406070007FC0
:100530007F060C067F7F007F7F060C187F7F001CE4
:100540003E6341633E1C00417F7F49090F06001E48
:100550003F21717F5E0000417F7F19396F46002681
:10056000674D597B32000003417F7F410300007FCC
:100570007F40407F7F00001F3F60603F1F00007F83
:100580007F3018307F7F0063771C081C776300077B
:100590004F78784F0700006773594D47637100002B
:1005A0007F7F41410000000103060C18306000000D
:1005B00041417F7F000000080C0603060C08008004
:1005C000808080808080800000030704000000207D
:1005D0007454543C784000413F7F44447C38003898
:1005E0007C44446C280000307848493F7F40003804
:1005F0007C54545C180000487E7F49030200009838
:10060000BCA4A4F87C0400417F7F08047C7800002F
:10061000447D7D4000000040C484FD7D0000004119
:100620007F7F10386C440000417F7F400000007CD9
:100630007C0C180C7C78007C7C04047C78000038EE
:100640007C44447C38000084FCF8A4243C18001846
:100650003C24A4F8FC8400447C78441C1800004826
:100660005C54547424000000043E7F442400003C89
:100670007C40403C7C40001C3C60603C1C00003CDA
:100680007C6030607C3C00446C3810386C44009CCA
:10069000BCA0A0FC7C00004C64745C4C64000008AE
:1006A000083E7741410000000000777700000041DC
:1006B00041773E0808000002030103020301000025
:1006C00011241FBECFEFD4E0DEBFCDBF12E0A0E00B
:1006D000B1E0EAECF8E102C005900D92A434B10754
:1006E000D9F722E0A4E4B2E001C01D92AE34B20713
:1006F000E1F70E949B040C94630C0C940000282FDB
:10070000249FC001259F900D1124992314F481503A
:100710009F4F292F392F330F330BFA0155230CF438
:100720003196F595E795DF01A60FB71FA217B3071E
:100730009CF4421B530B469FC001479F900D569F50
:10074000900D1124AF01461B570BBA010E94DF0622
:10075000C901861B970B0895269FC001279F900D06
:10076000369F900D1124BD010E94DF06C901861B32
:10077000970B08951F93CF93DF9383E00E94CF06DA
:10078000C82F82E00E94CF06182F44E650E06EE0AA
:1007900070E08C2F0E947F03EC0144E650E06FE094
:1007A00070E0812F0E947F03AE01BC01CB01BA0132
:1007B000DF91CF911F91089585B7806885BF80B77D
:1007C000806280BF0895FB01F05F80830895905F91
:1007D000FC01808108955D9BFECF8CB908955F9BDD
:1007E000FECF8CB1089590BD89B988E18AB98EE8B1
:1007F00080BD08956FEE73E08BEE93E00E94630777
:10080000089584E084BBAA9A2FEF8FEF9EE02150D9
:1008100080409040E1F700C00000AA982FEF8FEFD2
:100820009EE0215080409040E1F700C00000EBCFF7
:10083000CF92DF92EF92FF920F931F93CF93DF93AC
:1008400080E191E00E94C4070E9453077C010E944E
:100850005807C12CD12C00E010E0C6E2D1E00E9484
:100860005307F601F85E808320812817A9F09927A5
:100870009F938F931F922F93DF92CF92DF93CF930B
:100880000E94AE070F5F1F4F8DB79EB708960FB639
:10089000F8949EBF0FBE8DBF9FEFC91AD90AC1142D
:1008A00088E0D806E1F6C7010E945807C0E0D0E012
:1008B000E12CF12C0F2EFFE5CF2EF1E0DF2EF02DF5
:1008C0000E945307FE01F85E20812817B1F0992796
:1008D0009F938F931F922F93DF93CF93DF92CF92AB
:1008E0000E94AE079FEFE91AF90A8DB79EB70896E6
:1008F0000FB6F8949EBF0FBE8DBF2196C11598E02C
:10090000D907F1F6FF92EF921F930F938CE991E0D4
:100910009F938F930E94AE070F900F900F900F90B0
:100920000F900F90DF91CF911F910F91FF90EF905B
:10093000DF90CF9008950E94DC038FE190E00E9449
:10094000F3030E94FA030E9418040E94CC060E943E
:10095000300560E070E081E090E00E94F90460E022
:1009600070E085EF91E00E94B80560E070E084E0FF
:1009700090E00E94F90460E070E082E092E00E9462
:10098000B8050F2EF0E1EF2EF2E0FF2EF02D0E94C1
:100990001806C62FD72F182F092F0E943E06D82ED3
:1009A000C92E0E94BA039F938F937F936F93CF9228
:1009B000DF920F931F93DF93CF93FF92EF920E94EA
:1009C000AE072FEF8FE797E0215080409040E1F78E
:1009D00000C000008DB79EB70C960FB6F8949EBF6E
:1009E0000FBE8DBFD4CF8093001008958093001266
:1009F00008958830910518F4805580930010603870
:100A0000710588F4862F8F70E0E0F0E18083607FCD
:100A1000772775956795759567957595679575951C
:100A20006795605F608308950F931F93CF93DF9363
:100A300000E010E0C0E0D2E160E070E0C8010E9498
:100A4000F90480E890E018820197E9F70F5F1F4FE3
:100A50000830110589F7DF91CF911F910F9108950B
:100A6000E0E0F0E18EEA808381EA80838AED808392
:100A700082E1808388EC808388EA80838FE38083AF
:100A800085ED808380E8808381E8808380E58083B2
:100A900089ED808381E2808380E2808382E08083AD
:100AA0008BED808380E380838DEA8083108284EAEB
:100AB000808386EA80838FEA80830E9414050895EC
:100AC00090EE980F9F3508F052C061307105E9F043
:100AD00020F062307105B1F10895082E000C990BD9
:100AE0008097880F991F880F991F880F991FFC0105
:100AF000E953FC4F81539C4FA0E0B2E124912C9329
:100B00003196E817F907D1F70895082E000C990BD4
:100B10009C01220F331F220F331F820F931F20E0EF
:100B200030E0805A9109A0E0B2E1FC01E20FF31F2E
:100B3000E451FE4FE491EC932F5F3F4F2530310598
:100B4000A1F70895082E000C990B8097880F991F24
:100B5000880F991FFC01E059FF4F8C589F4FA0E070
:100B6000B2E124912C933196E817F907D1F7089553
:100B70000F931F93CF93DF93EC018881882341F07B
:100B80008B012196B8010E94600589918111FACFED
:100B9000DF91CF911F910F910895E0E0F2E188E19C
:100BA000808380839EE790839CE390838083089575
:100BB00090E080589109FA01E21BF30B8E9FD0015F
:100BC0008F9FB00D9E9FB00D1124BB2314F4A15034
:100BD000BF4FEB2FFB2FFF0FFF0B6E177F07A4F408
:100BE0009A012E1B3F0B269FC001279F900D369F19
:100BF000900D11249A01261B370BB9010E94DF06C4
:100C0000CF01861B970B0895A9014E1B5F0B469FD2
:100C1000C001479F900D569F900D1124A901461BBE
:100C2000570BBA010E94DF06CF01861B970B089570
:100C30001F93CF93DF9380E00E94CF06C82F81E0FF
:100C40000E94CF06182F2CE93FEF44E650E06AE1FE
:100C500070E08C2F0E94D805EC012CE93FEF44E6B0
:100C600050E06CE170E0812F0E94D805AE01BC011C
:100C7000CB01BA01DF91CF911F9108959B01AC0187
:100C8000693271059CF0DC01992324F4AA27BB2763
:100C9000A81BB90BFB01332324F4EE27FF27E61B27
:100CA000F70BAE17BF070CF445C05AC0683DEFEF15
:100CB0007E0794F4DC01992324F4AA27BB27A81B00
:100CC000B90BFB01332324F4EE27FF27E61BF70BB8
:100CD000AE17BF0794F140C049325105A4F0AB01F3
:100CE000772324F444275527461B570B9C0199234F
:100CF00024F422273327281B390B2417350704F146
:100D000080E090E00895483D5F4FECF4AB0177231D
:100D100024F444275527461B570B9C01992324F4A0
:100D200022273327281B390B241735077CF081E055
:100D300090E0089583E090E0089582E090E00895C7
:100D400084E090E0089584E090E0089584E090E0ED
:100D5000089580E090E0089549325105A4F2F9CF5A
:100D6000283D3F4FCCF3B8CFB89A83B7886083BF94
:100D700083B78F7B83BF83B78F7D83BF83B780614A
:100D800083BF83B78B7F83BF83B78D7F83BF83B7D9
:100D9000816083BF11BE08950E94B4060895109229
:100DA00000140000482F50E020E030E0E0E0F4E1E3
:100DB00080812F5F3F4F42175307D4F7089597FB69
:100DC000072E16F4009407D077FD09D00E94F30691
:100DD00007FC05D03EF4909581959F4F089570953E
:100DE00061957F4F0895AA1BBB1B51E107C0AA1F45
:100DF000BB1FA617B70710F0A61BB70B881F991FBC
:100E00005A95A9F780959095BC01CD0108958F92D0
:100E10009F92AF92BF92CF92DF92EF92FF92CF93C9
:100E2000DF93EC01688179818A819B81611571056D
:100E30008105910521F464E279ED8BE597E02DE1E0
:100E400033EF41E050E00E94C90B49015A019B0178
:100E5000AC01A7EAB1E40E94E80B6B017C01ACEEA7
:100E6000B4EFA50194010E94F60BDC01CB018C0DBF
:100E70009D1DAE1DBF1DB7FF03C00197A109B0485E
:100E800088839983AA83BB839F77DF91CF91FF905B
:100E9000EF90DF90CF90BF90AF909F908F9008958C
:100EA0000E940707089580E091E00E9407070895D7
:100EB000A0E0B0E08093000190930101A0930201B3
:100EC000B093030108950F931F93CF93DF9300977F
:100ED00031F46115710519F480E090E03AC08B019E
:100EE000EC016EE070E081E090E00E94D509FC0129
:100EF000892B91F380E883830115110571F0138725
:100F0000028781E883838091440290914502892B76
:100F100021F4F0934502E09344022097C9F0D18771
:100F2000C0878381826083838091460290914702CB
:100F3000892B71F4F0934702E093460280914802B6
:100F400090914902892B21F4F0934902E0934802E1
:100F5000CF01DF91CF911F910F910895A0E0B0E0F4
:100F6000E4EBF7E00C940B0CAE014B5F5F4FFA0122
:100F700061917191AF0180914602909147020E9468
:100F8000F407E2E00C94270C0F931F93CF93DF93A9
:100F9000E0914602F0914702238121FF1BC08C01A2
:100FA000D0E0C0E0F80181918F016091460270911C
:100FB0004702DB011896ED91FC911997882331F0D7
:100FC0000995892B79F3DFEFCFEFECCF8AE0099514
:100FD000892B19F08FEF9FEF02C08D2F9C2FDF918F
:100FE000CF911F910F910895ABE0B0E0EAEFF7E0E9
:100FF0000C94FB0B6C017B018A01FC0117821682A9
:10100000838181FFCCC1CE0101963C01F601938121
:10101000F70193FD859193FF81917F01882309F466
:10102000BAC1853239F493FD859193FF81917F0197
:10103000853229F4B60190E00E942F0BE7CF912C66
:10104000212C312CFFE1F315D8F08B3279F038F4F4
:10105000803279F08332A1F4232D20611DC08D32BE
:1010600061F0803369F4232D216016C0832D8260E6
:10107000382EE32DE4603E2E2AC0F32DF8601DC00B
:1010800037FC2DC020ED280F2A3040F08E32B9F405
:1010900036FC81C1232D2064322E19C036FE06C0D5
:1010A0008AE0989E200D1124922E11C0EAE02E9E17
:1010B000200D1124222EF32DF0623F2E08C08C3615
:1010C00021F4832D8068382E02C0883641F4F70160
:1010D00093FD859193FF81917F018111B3CF982F6B
:1010E0009F7D9554933028F40C5F1F4F9FE39983A5
:1010F0000DC0833631F0833771F0833509F059C064
:1011000021C0F801808189830E5F1F4F882483945A
:10111000912C530113C02801F2E04F0E511CF8012D
:10112000A080B18036FE03C0692D70E002C06FEF71
:101130007FEFC5010E94240B4C018201F32DFF7744
:101140003F2E16C0280122E0420E511CF801A0805B
:10115000B18036FE03C0692D70E002C06FEF7FEFF3
:10116000C5010E94120B4C01F32DF0683F2E820145
:1011700033FC1BC0822D90E088169906B0F4B601AE
:1011800080E290E00E942F0B2A94F4CFF50137FC07
:10119000859137FE81915F01B60190E00E942F0B8F
:1011A00021102A9421E0821A91088114910471F788
:1011B000E8C0843611F0893641F5F80137FE07C0E2
:1011C00060817181828193810C5F1F4F08C06081B3
:1011D0007181072E000C880B990B0E5F1F4FF32DAA
:1011E000FF763F2E97FF09C0909580957095619589
:1011F0007F4F8F4F9F4FF0683F2E2AE030E0A301D2
:101200000E946B0B882E861845C0853731F4232D3C
:101210002F7EB22E2AE030E025C0932D997FB92E83
:101220008F36C1F018F4883579F0B5C0803719F0E1
:10123000883721F0B0C0E92FE061BE2EB4FE0DC0AA
:10124000FB2DF460BF2E09C034FE0AC0292F266092
:10125000B22E06C028E030E005C020E130E002C038
:1012600020E132E0F801B7FE07C060817181828120
:1012700093810C5F1F4F06C06081718180E090E018
:101280000E5F1F4FA3010E946B0B882E8618FB2D4B
:10129000FF773F2E36FE0DC0232D2E7FA22E891400
:1012A00058F434FE0BC032FC09C0832D8E7EA82E6C
:1012B00005C0B82CA32C03C0B82C01C0B92CA4FEC7
:1012C0000FC0FE01E80DF11D8081803321F49A2DBD
:1012D000997EA92E09C0A2FE06C0B394B39404C09F
:1012E0008A2D867809F0B394A3FC11C0A0FE06C035
:1012F000B21488F4280C922C9B180EC0B21460F41F
:10130000B60180E290E00E942F0BB394F7CFB214A5
:1013100018F42B1802C0982C212CA4FE10C0B60182
:1013200080E390E00E942F0BA2FE17C0A1FC03C037
:1013300088E790E002C088E590E0B6010CC08A2DF5
:10134000867859F0A1FE02C08BE201C080E2A7FCC2
:101350008DE2B60190E00E942F0B891438F4B6019B
:1013600080E390E00E942F0B9A94F7CF8A94F301C8
:10137000E80DF11D8081B60190E00E942F0B8110D5
:10138000F5CF222009F442CEB60180E290E00E941F
:101390002F0B2A94F6CFF6018681978102C08FEF3A
:1013A0009FEF2B96E2E10C94170C0F931F93CF93B2
:1013B000DF93869F8001879F100D969F100D11244B
:1013C000C8010E94F109EC01009729F0A80160E032
:1013D00070E00E941D0BCE01DF91CF911F910F9104
:1013E00008950F931F93CF93DF938230910510F4EC
:1013F00082E090E0E0914C02F0914D0220E030E07C
:10140000A0E0B0E0309719F1408151810281138151
:1014100048175907C8F08417950769F4109731F0F9
:1014200012960C93129713961C9327C000934C02AC
:1014300010934D0222C02115310519F042175307B0
:1014400018F49A01BD01EF01DF01F801DBCF21158E
:101450003105F9F0281B390B2430310580F48A81DD
:101460009B816115710521F0FB019383828304C088
:1014700090934D0280934C02FE01329644C0FE01CF
:10148000E20FF31F8193919322503109398328830E
:101490003AC020914A0230914B02232B41F4209113
:1014A00006013091070130934B0220934A022091AC
:1014B0000401309105012115310541F42DB73EB7E6
:1014C0004091080150910901241B350BE0914A021B
:1014D000F0914B02E217F307A0F42E1B3F0B2817E5
:1014E000390778F0AC014E5F5F4F2417350748F09D
:1014F0004E0F5F1F50934B0240934A02819391938A
:1015000002C0E0E0F0E0CF01DF91CF911F910F9199
:101510000895CF93DF93009709F481C0FC013297BF
:1015200013821282A0914C02B0914D02109781F467
:1015300020813181820F931F20914A0230914B020A
:101540002817390751F5F0934B02E0934A0267C020
:10155000ED0120E030E0CE17DF0740F44A815B81E7
:101560009E0141155105F1F0EA01F5CFD383C28305
:1015700040815181840F951FC817D90759F488817C
:101580009981840F951F0296918380838A819B8124
:10159000938382832115310529F4F0934D02E09362
:1015A0004C023DC0E901FB83EA8349915991C40F84
:1015B000D51FEC17FD0761F480819181840F951F81
:1015C0000296E90199838883828193819B838A8330
:1015D000E0E0F0E012968D919C911397009719F03E
:1015E000FD01DC01F7CF8D919C9111979D012E5F3C
:1015F0003F4F820F931F20914A0230914B022817D0
:10160000390769F4309729F410924D0210924C0278
:1016100002C013821282B0934B02A0934A02DF9160
:10162000CF910895FC010590615070400110D8F7EA
:10163000809590958E0F9F1F0895DC0101C06D93DA
:1016400041505040E0F70895FC0161507040019016
:101650000110D8F7809590958E0F9F1F08950F93D6
:101660001F93CF93DF93FB01238121FD03C08FEFF5
:101670009FEF2CC022FF16C04681578124813581FF
:101680004217530744F4A081B1819D012F5F3F4F62
:10169000318320838C93268137812F5F3F4F37839F
:1016A000268314C08B01EC01FB010084F185E02D41
:1016B0000995892BE1F6D80116968D919C91179783
:1016C000019617969C938E931697CE01DF91CF913A
:1016D0001F910F910895FA01AA27283051F1203166
:1016E00081F1E8946F936E7F6E5F7F4F8F4F9F4FB6
:1016F000AF4FB1E03ED0B4E03CD0670F781F891FF8
:101700009A1FA11D680F791F8A1F911DA11D6A0FC5
:10171000711D811D911DA11D20D009F468943F9178
:101720002AE0269F11243019305D3193DEF6CF0177
:101730000895462F4770405D4193B3E00FD0C9F73D
:10174000F6CF462F4F70405D4A3318F0495D31FDAA
:101750004052419302D0A9F7EACFB4E0A6959795FD
:10176000879577956795BA95C9F7009761057105D3
:1017700008959B01AC010A2E06945795479537951D
:101780002795BA95C9F7620F731F841F951FA01D77
:101790000895052E97FB1EF400940E94E00B57FD60
:1017A00007D00E94320C07FC03D04EF40C94E00BDF
:1017B00050954095309521953F4F4F4F5F4F08957D
:1017C00090958095709561957F4F8F4F9F4F0895AD
:1017D0000E94540CA59F900DB49F900DA49F800D66
:1017E000911D11240895B7FF0C94E80B0E94E80B9B
:1017F000821B930B08952F923F924F925F926F92AC
:101800007F928F929F92AF92BF92CF92DF92EF9290
:10181000FF920F931F93CF93DF93CDB7DEB7CA1B11
:10182000DB0B0FB6F894DEBF0FBECDBF09942A883C
:10183000398848885F846E847D848C849B84AA84E4
:10184000B984C884DF80EE80FD800C811B81AA8171
:10185000B981CE0FD11D0FB6F894DEBF0FBECDBF3C
:10186000ED010895A1E21A2EAA1BBB1BFD010DC0BC
:10187000AA1FBB1FEE1FFF1FA217B307E407F50740
:1018800020F0A21BB30BE40BF50B661F771F881F1C
:10189000991F1A9469F760957095809590959B01B2
:1018A000AC01BD01CF010895A29FB001B39FC0015B
:1018B000A39F700D811D1124911DB29F700D811D7C
:0A18C0001124911D0895F894FFCF44
:1018CA000100000000004E0220000800050004008C
:1018DA005374617274696E67205352414D20746566
:1018EA0073742E2E2E0057726974652070686173A6
:1018FA0065206572726F723A206578745F72616DE5
:10190A005B2534645D203D202530325820287368D9
:10191A006F756C642062652025303258290A00529E
:10192A00657472696576616C20706861736520659B
:10193A0072726F723A206578745F72616D5B2534DA
:10194A00645D203D2025303258202873686F756CFD
:10195A00642062652025303258290A005352414DCD
:10196A00207465737420636F6D706C657465642090
:10197A0077697468200A253464206572726F7273FD
:10198A0020696E20777269746520706861736520BA
:10199A00616E64200A253464206572726F72732046
:1019AA00696E2072657472696576616C207068610F
:1019BA0073650A0D004C61737365206572206C6F44
:1019CA006B004D61676E757320657220736F7400CA
:1019DA0028782C7929203D202825642C2025642963
:1019EA002E20446972656374696F6E203D202564F8
:1019FA0020284C532C5253293D2825642C25642930
:041A0A000D0A0000C1
:00000001FF
