:100000000C9474030C9491030C9418050C949103B4
:100010000C9491030C9491030C9491030C94910310
:100020000C9491030C9491030C9491030C94910300
:100030000C9491030C9491030C9491030C949103F0
:100040000C9491030C9491030C9491030C949103E0
:100050000C9491030C9491030C9491030C949103D0
:100060000C9491030C9491030C9491030C949103C0
:10007000900087007D0078005175697400486967B9
:100080006873636F72650053657474696E6773009B
:100090004E65772067616D650000000000005C0020
:1000A000000C000C007C287C2858DC6800241048D8
:1000B0000028542840000C00000078840084780058
:1000C0000054385400107C100080400000101010C4
:1000D000000040000060100C0038543800487C409C
:1000E000004864580044542C001C107C005C5424CC
:1000F000003854240064140C0068542C0048543810
:1001000000004800008048000010284400282828EB
:1001100000442810000454080038445C0078147827
:10012000007C542800384428007C4438007C544427
:10013000007C140400384474007C107C00447C442F
:100140000020403C007C106C007C4040007C187C0F
:100150000078103C00384438007C1408003844B85B
:10016000007C14680048542400047C04007C407C1B
:10017000003C603C007C307C006C106C000C700C0F
:100180000064544C00007C44000C106000447C006F
:1001900000080408008080800000040800304878CF
:1001A000007C4830003048480030487C00306850BF
:1001B000001078140090A878007C087000507440FB
:1001C00000808074007C106800447C4000781078C7
:1001D000007808700030483000F82810003048F8E7
:1001E000007810080050582800083C480038407833
:1001F0000038403800782078004830480098A078CF
:10020000004868580010788400007C000084781052
:100210000008040804000000000000005F00000067
:1002200007000700147F147F14242A7F2A12231347
:1002300008646236495522500005030000001C2264
:1002400041000041221C00082A1C2A0808083E0818
:10025000080050300000080808080800606000002E
:1002600020100804023E5149453E00427F400042B2
:10027000615149462141454B311814127F102745E1
:100280004545393C4A494930017109050336494918
:100290004936064949291E00363600000056360008
:1002A00000000814224114141414144122140800EC
:1002B0000201510906324979413E7E1111117E7FBA
:1002C000494949363E414141227F4141221C7F49F3
:1002D0004949417F090901013E414151327F0808E6
:1002E000087F00417F41002040413F017F081422E8
:1002F000417F404040407F0204027F7F0408107F1E
:100300003E4141413E7F090909063E4151215E7F40
:1003100009192946464949493101017F01013F40F8
:1003200040403F1F2040201F7F2018207F6314087B
:1003300014630304780403615149454300007F417D
:1003400041020408102041417F0000040201020420
:100350004040404040000102040020545454787F43
:10036000484444383844444420384444487F38544E
:10037000545418087E090102081454543C7F0804A0
:10038000047800447D40002040443D00007F102858
:100390004400417F40007C041804787C0804047801
:1003A00038444444387C14141408081414187C7C11
:1003B000080404084854545420043F4440203C405E
:1003C00040207C1C2040201C3C4030403C442810F5
:1003D00028440C5050503C4464544C44000836416E
:1003E0000000007F00000041360800020103020106
:1003F000000000000000000000065F5F0600000033
:100400000007070007070000147F7F147F7F140098
:10041000242E6B6B3A120000466630180C666200A0
:10042000307A4F5D377A480004070300000000006F
:10043000001C3E63410000000041633E1C000000C0
:10044000082A3E1C1C3E2A0808083E3E08080000F8
:1004500000A0E0600000000008080808080800008C
:1004600000006060000000006030180C060301000E
:100470003E7F594D7F3E000042427F7F404000005A
:10048000627359496F660000226349497F36000054
:10049000181C16137F7F1000276745457D39000023
:1004A0003C7E4B4979300000036371190F0700004F
:1004B000367F49497F360000064F49693F1E0000DC
:1004C00000006C6C0000000000A0EC6C000000005C
:1004D000081C3663410000001414141414140000A6
:1004E000004163361C080000020351590F0600004A
:1004F0003E7F415D5D1F1E007C7E13137E7C0000ED
:10050000417F7F49497F36001C3E634141632200A1
:10051000417F7F41637F1C00417F7F495D416300D4
:10052000417F7F491D0103001C3E634151737200EE
:100530007F7F08087F7F000000417F7F410000002F
:10054000307040417F3F0100417F7F081C7763008E
:10055000417F7F41406070007F7F060C067F7F00F7
:100560007F7F060C187F7F001C3E6341633E1C00AA
:10057000417F7F49090F06001E3F21717F5E000009
:10058000417F7F19396F460026674D597B32000045
:1005900003417F7F410300007F7F40407F7F000059
:1005A0001F3F60603F1F00007F7F3018307F7F005B
:1005B00063771C081C776300074F78784F070000AB
:1005C0006773594D47637100007F7F414100000010
:1005D0000103060C183060000041417F7F000000DD
:1005E000080C0603060C08008080808080808080D4
:1005F0000000030704000000207454543C784000BD
:10060000413F7F44447C3800387C44446C280000DF
:10061000307848493F7F4000387C54545C180000D3
:10062000487E7F490302000098BCA4A4F87C040023
:10063000417F7F08047C780000447D7D40000000FD
:1006400040C484FD7D000000417F7F10386C440071
:1006500000417F7F400000007C7C0C180C7C7800FF
:100660007C7C04047C780000387C44447C380000A6
:1006700084FCF8A4243C1800183C24A4F8FC840052
:10068000447C78441C180000485C545474240000D6
:1006900000043E7F442400003C7C40403C7C400001
:1006A0001C3C60603C1C00003C7C6030607C3C007A
:1006B000446C3810386C44009CBCA0A0FC7C00004A
:1006C0004C64745C4C64000008083E7741410000B3
:1006D00000000077770000004141773E08080000E5
:1006E000020301030203010011241FBECFEFD4E077
:1006F000DEBFCDBF12E0A0E0B1E0E0E1FAE102C070
:1007000005900D92A831B107D9F722E0A8E1B2E037
:1007100001C01D92A632B207E1F70E9448050C9471
:10072000060D0C940000282F249FC001259F900DDA
:100730001124992314F481509F4F292F392F330FFF
:10074000330BFA0155230CF43196F595E795DF014B
:10075000A60FB71FA217B3079CF4421B530B469F6B
:10076000C001479F900D569F900D1124AF01461B6D
:10077000570BBA010E947B07C901861B970B08958E
:10078000269FC001279F900D369F900D1124BD011B
:100790000E947B07C901861B970B08951F93CF9377
:1007A000DF9383E00E946B07C82F82E00E946B07F3
:1007B000182F44E650E06EE070E08C2F0E94930307
:1007C000EC0144E650E06FE070E0812F0E9493035B
:1007D000AE01BC01CB01BA01DF91CF911F91089509
:1007E00085B7806885BF80B7806280BF0895FB01B0
:1007F000F05F80830895905FFC01808108955D9B88
:10080000FECF8CB908955F9BFECF8CB1089590BD4B
:1008100089B988E18AB98EE880BD089563E074E003
:100820008FEF93E00E942709089584E084BBAA9A81
:100830002FEF8FEF9EE0215080409040E1F700C005
:100840000000AA982FEF8FEF9EE02150804090404B
:10085000E1F700C00000EBCFCF92DF92EF92FF9262
:100860000F931F93CF93DF9380E191E00E9488095B
:100870000E9410097C010E941509C12CD12C00E0B6
:1008800010E0C6E2D1E00E941009F601F85E808314
:1008900020812817A9F099279F938F931F922F9358
:1008A000DF92CF92DF93CF930E9472090F5F1F4FA9
:1008B0008DB79EB708960FB6F8949EBF0FBE8DBF3A
:1008C0009FEFC91AD90AC11488E0D806E1F6C7011A
:1008D0000E941509C0E0D0E0E12CF12C0F2EFFE5BD
:1008E000CF2EF1E0DF2EF02D0E941009FE01F85E00
:1008F00020812817B1F099279F938F931F922F93F0
:10090000DF93CF93DF92CF920E9472099FEFE91A93
:10091000F90A8DB79EB708960FB6F8949EBF0FBE22
:100920008DBF2196C11598E0D907F1F6FF92EF929D
:100930001F930F938CE991E09F938F930E9472090C
:100940000F900F900F900F900F900F90DF91CF911D
:100950001F910F91FF90EF90DF90CF9008958BB78C
:1009600080688BBF85B7886085BF85B78B7F85BF63
:100970008B98089588E090E00E94A307FC01909373
:1009800019028093180284E090E097838683158291
:10099000148280E790E0918380830895EF92FF9224
:1009A0000F931F93CF93DF93CDB7DEB72A970FB680
:1009B000F894DEBF0FBECDBFE0911802F09119028E
:1009C000268137811216130634F57C0100E010E011
:1009D0009801220F331F0190F081E02DE20FF31FE9
:1009E00065917491CE0101960E9420090F5F1F4FFF
:1009F00068E070E0C8010E94A505B701CE0101962C
:100A00000E945406E0911802F091190286819781A4
:100A100008171907ECF22A960FB6F894DEBF0FBE3E
:100A2000CDBFDF91CF911F910F91FF90EF9008956F
:100A30001F920F920FB60F9211242F933F934F9353
:100A40005F936F937F938F939F93AF93BF93EF9336
:100A5000FF930E94B00560E070E081E090E00E94AA
:100A6000A50560E070E085EF91E00E945406FF91DB
:100A7000EF91BF91AF919F918F917F916F915F9116
:100A80004F913F912F910F900FBE0F901F9018958F
:100A90000E94F00378940E94AF048FE190E00E94DE
:100AA00007040E940E040E942C040E9468070E9402
:100AB000CC0560E070E081E090E00E94A50560E078
:100AC00070E08DEF91E00E9454062FEF8FEF9EE0D3
:100AD000215080409040E1F700C0000060E070E0ED
:100AE00081E090E00E94A50560E070E08AE092E07D
:100AF0000E9454060E94B0050E94BA0480E090E073
:100B00000E94CE04FFCF80930010089580930012BE
:100B100008958830910518F4805580930010089549
:100B20008038910588F4282F2F70E0E0F0E12083D1
:100B3000807F992795958795959587959595879524
:100B400095958795805F80830895CF93DF93EB0120
:100B50000E948905CE010E949005DF91CF910895F2
:100B60000F931F93CF93DF9300E010E0C0E0D2E13A
:100B700060E070E0C8010E94A50580E890E018825E
:100B80000197E9F70F5F1F4F0830110589F7DF91D3
:100B9000CF911F910F910895E0E0F0E18EEA8083FC
:100BA00081EA80838AED808382E1808388EC808380
:100BB00088EA80838FE3808385ED808380E880836B
:100BC00081E8808380E5808389ED808381E2808372
:100BD00080E2808382E080838BED808380E380836A
:100BE0008DEA8083108284EA808386EA80838FEA9C
:100BF00080830E94B005089590EE980F9F3508F00D
:100C000052C061307105E9F020F062307105B1F138
:100C10000895082E000C990B8097880F991F880F54
:100C2000991F880F991FFC01E051FC4F88509C4F81
:100C3000A0E0B2E124912C933196E817F907D1F79F
:100C40000895082E000C990B9C01220F331F220FD0
:100C5000331F820F931F20E030E0805A9109A0E0FB
:100C6000B2E1FC01E20FF31FEB5EFD4FE491EC9368
:100C70002F5F3F4F25303105A1F70895082E000C56
:100C8000990B8097880F991F880F991FFC01E756D1
:100C9000FF4F83569F4FA0E0B2E124912C933196F1
:100CA000E817F907D1F708950F931F93CF93DF93B8
:100CB000EC018881882341F08B012196B8010E94C4
:100CC000FC0589918111FACFDF91CF911F910F918E
:100CD0000895E0E0F2E188E1808380839EE79083DD
:100CE0009CE390838083089590E080589109FA01F5
:100CF000E21BF30B8E9FD0018F9FB00D9E9FB00D16
:100D00001124BB2314F4A150BF4FEB2FFB2FFF0F77
:100D1000FF0B6E177F07A4F49A012E1B3F0B269F33
:100D2000C001279F900D369F900D11249A01261B1C
:100D3000370BB9010E947B07CF01861B970B0895E3
:100D4000A9014E1B5F0B469FC001479F900D569F08
:100D5000900D1124A901461B570BBA010E947B0775
:100D6000CF01861B970B08951F93CF93DF9380E0ED
:100D70000E946B07C82F81E00E946B07182F2CE997
:100D80003FEF44E650E06AE170E08C2F0E94740669
:100D9000EC012CE93FEF44E650E06CE170E0812F7C
:100DA0000E947406AE01BC01CB01BA01DF91CF9164
:100DB0001F9108959B01AC01693271059CF0DC0123
:100DC000992324F4AA27BB27A81BB90BFB013323C3
:100DD00024F4EE27FF27E61BF70BAE17BF070CF432
:100DE00045C05AC0683DEFEF7E0794F4DC019923BB
:100DF00024F4AA27BB27A81BB90BFB01332324F437
:100E0000EE27FF27E61BF70BAE17BF0794F140C094
:100E100049325105A4F0AB01772324F44427552728
:100E2000461B570B9C01992324F422273327281BA8
:100E3000390B2417350704F180E090E00895483D10
:100E40005F4FECF4AB01772324F444275527461B6E
:100E5000570B9C01992324F422273327281B390B95
:100E6000241735077CF081E090E0089583E090E05E
:100E7000089582E090E0089584E090E0089584E091
:100E800090E0089584E090E0089580E090E0089577
:100E900049325105A4F2F9CF283D3F4FCCF3B8CFEA
:100EA000B89A83B7886083BF83B78F7B83BF83B7CC
:100EB0008F7D83BF83B7806183BF83B78B7F83BF01
:100EC00083B78D7F83BF83B7816083BF11BE0895D1
:100ED0000E9450070895109200140000482F50E01F
:100EE00020E030E0E0E0F4E180812F5F3F4F4217E7
:100EF0005307D4F7089597FB072E16F4009407D0F4
:100F000077FD09D00E948F0707FC05D03EF490952D
:100F100081959F4F0895709561957F4F0895AA1B05
:100F2000BB1B51E107C0AA1FBB1FA617B70710F0D4
:100F3000A61BB70B881F991F5A95A9F78095909506
:100F4000BC01CD0108950F931F93CF93DF9382309F
:100F5000910510F482E090E0E0911E02F0911F02F2
:100F600020E030E0A0E0B0E0309719F140815181FD
:100F70000281138148175907C8F08417950769F44F
:100F8000109731F012960C93129713961C9327C06A
:100F900000931E0210931F0222C02115310519F083
:100FA0004217530718F49A01BD01EF01DF01F80160
:100FB000DBCF21153105F9F0281B390B2430310521
:100FC00080F48A819B816115710521F0FB01938377
:100FD000828304C090931F0280931E02FE0132960A
:100FE00044C0FE01E20FF31F819391932250310917
:100FF000398328833AC020911C0230911D02232B93
:1010000041F4209102013091030130931D0220939D
:101010001C0220910001309101012115310541F49C
:101020002DB73EB74091040150910501241B350BAB
:10103000E0911C02F0911D02E217F307A0F42E1BB1
:101040003F0B2817390778F0AC014E5F5F4F24172C
:10105000350748F04E0F5F1F50931D0240931C024E
:101060008193919302C0E0E0F0E0CF01DF91CF9156
:101070001F910F910895CF93DF93009709F481C0DA
:10108000FC01329713821282A0911E02B0911F02BE
:10109000109781F420813181820F931F20911C02CF
:1010A00030911D022817390751F5F0931D02E09386
:1010B0001C0267C0ED0120E030E0CE17DF0740F4EE
:1010C0004A815B819E0141155105F1F0EA01F5CF9E
:1010D000D383C28340815181840F951FC817D907DC
:1010E00059F488819981840F951F0296918380839A
:1010F0008A819B81938382832115310529F4F093A2
:101100001F02E0931E023DC0E901FB83EA8349917F
:101110005991C40FD51FEC17FD0761F480819181AF
:10112000840F951F0296E9019983888382819381B8
:101130009B838A83E0E0F0E012968D919C91139757
:10114000009719F0FD01DC01F7CF8D919C9111976B
:101150009D012E5F3F4F820F931F20911C02309103
:101160001D022817390769F4309729F410921F02DD
:1011700010921E0202C013821282B0931D02A0932D
:101180001C02DF91CF9108958F929F92AF92BF92F0
:10119000CF92DF92EF92FF92CF93DF93EC016881C1
:1011A00079818A819B81611571058105910521F401
:1011B00064E279ED8BE597E02DE133EF41E050E01B
:1011C0000E946C0C49015A019B01AC01A7EAB1E4F1
:1011D0000E948B0C6B017C01ACEEB4EFA501940175
:1011E0000E94990CDC01CB018C0D9D1DAE1DBF1D15
:1011F000B7FF03C00197A109B04888839983AA83E8
:10120000BB839F77DF91CF91FF90EF90DF90CF90DE
:10121000BF90AF909F908F9008950E94C40808954A
:1012200086E091E00E94C4080895A0E0B0E08093B9
:10123000060190930701A0930801B0930901089556
:10124000FB01DC0105900D920020E1F708950F935A
:101250001F93CF93DF93009731F46115710519F453
:1012600080E090E03AC08B01EC016EE070E081E03C
:1012700090E00E94990BFC01892B91F380E8838315
:101280000115110571F01387028781E8838380912E
:10129000200290912102892B21F4F0932102E09306
:1012A00020022097C9F0D187C08783818260838321
:1012B0008091220290912302892B71F4F0932302F2
:1012C000E09322028091240290912502892B21F43F
:1012D000F0932502E0932402CF01DF91CF911F917B
:1012E0000F910895A0E0B0E0E8E7F9E00C94AE0CAF
:1012F000AE014B5F5F4FFA0161917191AF01809137
:101300002202909123020E94B809E2E00C94CA0CD8
:101310000F931F93CF93DF93E0912202F09123026A
:10132000238121FF1BC08C01D0E0C0E0F801819136
:101330008F016091220270912302DB011896ED91DA
:10134000FC911997882331F00995892B79F3DFEF08
:10135000CFEFECCF8AE00995892B19F08FEF9FEF43
:1013600002C08D2F9C2FDF91CF911F910F91089577
:10137000ABE0B0E0EEEBF9E00C949E0C6C017B016D
:101380008A01FC0117821682838181FFCCC1CE01C4
:1013900001963C01F6019381F70193FD859193FF3E
:1013A00081917F01882309F4BAC1853239F493FD14
:1013B000859193FF81917F01853229F4B60190E0F8
:1013C0000E94D20BE7CF912C212C312CFFE1F31599
:1013D000D8F08B3279F038F4803279F08332A1F48E
:1013E000232D20611DC08D3261F0803369F4232DDF
:1013F000216016C0832D8260382EE32DE4603E2EDE
:101400002AC0F32DF8601DC037FC2DC020ED280F39
:101410002A3040F08E32B9F436FC81C1232D20648D
:10142000322E19C036FE06C08AE0989E200D112487
:10143000922E11C0EAE02E9E200D1124222EF32DB3
:10144000F0623F2E08C08C3621F4832D8068382E40
:1014500002C0883641F4F70193FD859193FF819195
:101460007F018111B3CF982F9F7D9554933028F43D
:101470000C5F1F4F9FE399830DC0833631F0833794
:1014800071F0833509F059C021C0F801808189834A
:101490000E5F1F4F88248394912C530113C02801A1
:1014A000F2E04F0E511CF801A080B18036FE03C05F
:1014B000692D70E002C06FEF7FEFC5010E94C70B7E
:1014C0004C018201F32DFF773F2E16C0280122E048
:1014D000420E511CF801A080B18036FE03C0692D78
:1014E00070E002C06FEF7FEFC5010E94B50B4C01A9
:1014F000F32DF0683F2E820133FC1BC0822D90E05B
:1015000088169906B0F4B60180E290E00E94D20BF2
:101510002A94F4CFF50137FC859137FE81915F0164
:10152000B60190E00E94D20B21102A9421E0821A89
:1015300091088114910471F7E8C0843611F089365E
:1015400041F5F80137FE07C0608171818281938186
:101550000C5F1F4F08C060817181072E000C880B43
:10156000990B0E5F1F4FF32DFF763F2E97FF09C09B
:1015700090958095709561957F4F8F4F9F4FF06844
:101580003F2E2AE030E0A3010E940E0C882E861820
:1015900045C0853731F4232D2F7EB22E2AE030E06E
:1015A00025C0932D997FB92E8F36C1F018F4883558
:1015B00079F0B5C0803719F0883721F0B0C0E92F35
:1015C000E061BE2EB4FE0DC0FB2DF460BF2E09C03D
:1015D00034FE0AC0292F2660B22E06C028E030E073
:1015E00005C020E130E002C020E132E0F801B7FEA2
:1015F00007C060817181828193810C5F1F4F06C09B
:101600006081718180E090E00E5F1F4FA3010E9416
:101610000E0C882E8618FB2DFF773F2E36FE0DC050
:10162000232D2E7FA22E891458F434FE0BC032FCD9
:1016300009C0832D8E7EA82E05C0B82CA32C03C014
:10164000B82C01C0B92CA4FE0FC0FE01E80DF11D9D
:101650008081803321F49A2D997EA92E09C0A2FEA3
:1016600006C0B394B39404C08A2D867809F0B3946D
:10167000A3FC11C0A0FE06C0B21488F4280C922C62
:101680009B180EC0B21460F4B60180E290E00E9494
:10169000D20BB394F7CFB21418F42B1802C0982CC5
:1016A000212CA4FE10C0B60180E390E00E94D20B72
:1016B000A2FE17C0A1FC03C088E790E002C088E545
:1016C00090E0B6010CC08A2D867859F0A1FE02C0C8
:1016D0008BE201C080E2A7FC8DE2B60190E00E949F
:1016E000D20B891438F4B60180E390E00E94D20B4B
:1016F0009A94F7CF8A94F301E80DF11D8081B60129
:1017000090E00E94D20B8110F5CF222009F442CE46
:10171000B60180E290E00E94D20B2A94F6CFF60147
:101720008681978102C08FEF9FEF2B96E2E10C94A8
:10173000BA0C0F931F93CF93DF93869F8001879FEF
:10174000100D969F100D1124C8010E94A307EC01F3
:10175000009729F0A80160E070E00E94C00BCE0164
:10176000DF91CF911F910F910895FC010590615079
:1017700070400110D8F7809590958E0F9F1F0895A7
:10178000DC0101C06D9341505040E0F70895FC0129
:101790006150704001900110D8F7809590958E0FA0
:1017A0009F1F08950F931F93CF93DF93FB01238116
:1017B00021FD03C08FEF9FEF2CC022FF16C0468192
:1017C0005781248135814217530744F4A081B181A8
:1017D0009D012F5F3F4F318320838C93268137817A
:1017E0002F5F3F4F3783268314C08B01EC01FB0131
:1017F0000084F185E02D0995892BE1F6D801169634
:101800008D919C911797019617969C938E9316979E
:10181000CE01DF91CF911F910F910895FA01AA2770
:10182000283051F1203181F1E8946F936E7F6E5F23
:101830007F4F8F4F9F4FAF4FB1E03ED0B4E03CD0D1
:10184000670F781F891F9A1FA11D680F791F8A1FB4
:10185000911DA11D6A0F711D811D911DA11D20D01B
:1018600009F468943F912AE0269F11243019305DD5
:101870003193DEF6CF010895462F4770405D4193C6
:10188000B3E00FD0C9F7F6CF462F4F70405D4A3313
:1018900018F0495D31FD4052419302D0A9F7EACFDB
:1018A000B4E0A6959795879577956795BA95C9F70A
:1018B00000976105710508959B01AC010A2E0694FD
:1018C0005795479537952795BA95C9F7620F731FB6
:1018D000841F951FA01D0895052E97FB1EF40094EC
:1018E0000E94830C57FD07D00E94D50C07FC03D043
:1018F0004EF40C94830C50954095309521953F4FB4
:101900004F4F5F4F089590958095709561957F4FEB
:101910008F4F9F4F08950E94F70CA59F900DB49F85
:10192000900DA49F800D911D11240895B7FF0C9474
:101930008B0C0E948B0C821B930B08952F923F926D
:101940004F925F926F927F928F929F92AF92BF92CF
:10195000CF92DF92EF92FF920F931F93CF93DF937B
:10196000CDB7DEB7CA1BDB0B0FB6F894DEBF0FBED8
:10197000CDBF09942A88398848885F846E847D8425
:101980008C849B84AA84B984C884DF80EE80FD8027
:101990000C811B81AA81B981CE0FD11D0FB6F8949D
:1019A000DEBF0FBECDBFED010895A1E21A2EAA1B26
:1019B000BB1BFD010DC0AA1FBB1FEE1FFF1FA217FF
:1019C000B307E407F50720F0A21BB30BE40BF50BFC
:1019D000661F771F881F991F1A9469F76095709585
:1019E000809590959B01AC01BD01CF010895A29F08
:1019F000B001B39FC001A39F700D811D1124911DE3
:101A0000B29F700D811D1124911D0895F894FFCF90
:101A1000000026022000010000000800050004006C
:101A20005374617274696E67205352414D2074651E
:101A300073742E2E2E00577269746520706861735E
:101A400065206572726F723A206578745F72616D9D
:101A50005B2534645D203D20253032582028736892
:101A60006F756C642062652025303258290A005257
:101A7000657472696576616C207068617365206554
:101A800072726F723A206578745F72616D5B253493
:101A9000645D203D2025303258202873686F756CB6
:101AA000642062652025303258290A005352414D86
:101AB000207465737420636F6D706C657465642049
:101AC00077697468200A253464206572726F7273B6
:101AD00020696E2077726974652070686173652073
:101AE000616E64200A253464206572726F727320FF
:101AF000696E2072657472696576616C20706861C8
:101B000073650A0D00537567206D6567004C61733E
:101B10007365206572206C6F6B004D61676E757325
:081B200020657220736F740050
:00000001FF
