:100000000C9496030C94B3030C9419080C94B3034A
:100010000C94B3030C94B3030C94B3030C94B30388
:100020000C94B3030C94B3030C94B3030C94B30378
:100030000C94B3030C9450080C94B3030C94B303C6
:100040000C94B3030C94B3030C94B3030C94B30358
:100050000C94B3030C94B3030C94B3030C94B30348
:100060000C94B3030C94B3030C94B3030C94B30338
:1000700074008200526573657400A50096008900C3
:10008000820052657475726E0053656C65637420EE
:100090006D75736963005365742062726967687473
:1000A0006E65737300536574206469666669637571
:1000B0006C747900D400CB00C100BC005175697428
:1000C000004869676873636F72650053657474698B
:1000D0006E6773004E65772067616D6500000000F4
:1000E00000005C00000C000C007C287C2858DC68B8
:1000F000002410480028542840000C000000788498
:10010000008478000054385400107C1000804000B7
:1001100000101010000040000060100C003854382F
:1001200000487C40004864580044542C001C107C5B
:10013000005C5424003854240064140C0068542CCF
:10014000004854380000480000804800001028444F
:100150000028282800442810000454080038445C73
:1001600000781478007C542800384428007C4438F7
:10017000007C5444007C140400384474007C107CDF
:1001800000447C440020403C007C106C007C4040DB
:10019000007C187C0078103C00384438007C14083F
:1001A000003844B8007C14680048542400047C04DF
:1001B000007C407C003C603C007C307C006C106C1F
:1001C000000C700C0064544C00007C44000C106067
:1001D00000447C00000804080080808000000408BF
:1001E00000304878007C4830003048480030487C77
:1001F00000306850001078140090A878007C0870D7
:100200000050744000808074007C106800447C4082
:1002100000781078007808700030483000F8281016
:10022000003048F8007810080050582800083C4872
:10023000003840780038403800782078004830484E
:100240000098A078004868580010788400007C006E
:10025000008478100008040804000000000000007A
:100260005F00000007000700147F147F14242A7F1A
:100270002A122313086462364955225000050300F0
:1002800000001C2241000041221C00082A1C2A08F0
:1002900008083E0808005030000008080808080058
:1002A0006060000020100804023E5149453E0042B3
:1002B0007F400042615149462141454B311814129B
:1002C0007F1027454545393C4A49493001710905A8
:1002D000033649494936064949291E003636000089
:1002E000005636000000081422411414141414415E
:1002F000221408000201510906324979413E7E115B
:1003000011117E7F494949363E414141227F414199
:10031000221C7F494949417F090901013E41415160
:10032000327F0808087F00417F41002040413F01A3
:100330007F081422417F404040407F0204027F7FBB
:100340000408107F3E4141413E7F090909063E41B4
:1003500051215E7F09192946464949493101017FEA
:1003600001013F4040403F1F2040201F7F201820B8
:100370007F631408146303047804036151494543FF
:1003800000007F4141020408102041417F00000429
:100390000201020440404040400001020400205499
:1003A0005454787F484444383844444420384444C2
:1003B000487F3854545418087E09010208145454D4
:1003C0003C7F0804047800447D40002040443D0008
:1003D000007F10284400417F40007C041804787C92
:1003E0000804047838444444387C1414140808146D
:1003F00014187C7C080404084854545420043F44D6
:1004000040203C4040207C1C2040201C3C40304090
:100410003C44281028440C5050503C4464544C44F4
:10042000000836410000007F00000041360800024D
:1004300001030201000000000000000000065F5FF1
:10044000060000000007070007070000147F7F1464
:100450007F7F1400242E6B6B3A1200004666301822
:100460000C666200307A4F5D377A4800040703005B
:1004700000000000001C3E63410000000041633E9C
:100480001C000000082A3E1C1C3E2A0808083E3EAC
:100490000808000000A0E06000000000080808084C
:1004A0000808000000006060000000006030180CC8
:1004B000060301003E7F594D7F3E000042427F7F90
:1004C00040400000627359496F6600002263494949
:1004D0007F360000181C16137F7F100027674545E4
:1004E0007D3900003C7E4B4979300000036371196F
:1004F0000F070000367F49497F360000064F4969E3
:100500003F1E000000006C6C0000000000A0EC6CBE
:1005100000000000081C366341000000141414148D
:1005200014140000004163361C08000002035159F6
:100530000F0600003E7F415D5D1F1E007C7E131391
:100540007E7C0000417F7F49497F36001C3E63412D
:1005500041632200417F7F41637F1C00417F7F49CF
:100560005D416300417F7F491D0103001C3E6341E3
:10057000517372007F7F08087F7F000000417F7FFA
:1005800041000000307040417F3F0100417F7F0803
:100590001C776300417F7F41406070007F7F060CC5
:1005A000067F7F007F7F060C187F7F001C3E634123
:1005B000633E1C00417F7F49090F06001E3F2171E9
:1005C0007F5E0000417F7F19396F460026674D59D5
:1005D0007B32000003417F7F410300007F7F40406A
:1005E0007F7F00001F3F60603F1F00007F7F30184B
:1005F000307F7F0063771C081C776300074F787893
:100600004F0700006773594D47637100007F7F41BA
:10061000410000000103060C183060000041417FDA
:100620007F000000080C0603060C08008080808014
:100630008080808000000307040000002074545470
:100640003C784000413F7F44447C3800387C44443F
:100650006C280000307848493F7F4000387C545473
:100660005C180000487E7F490302000098BCA4A4E7
:10067000F87C0400417F7F08047C780000447D7D85
:100680004000000040C484FD7D000000417F7F10D9
:10069000386C440000417F7F400000007C7C0C18D7
:1006A0000C7C78007C7C04047C780000387C44441A
:1006B0007C38000084FCF8A4243C1800183C24A4D6
:1006C000F8FC8400447C78441C180000485C5454B6
:1006D0007424000000043E7F442400003C7C404021
:1006E0003C7C40001C3C60603C1C00003C7C60305A
:1006F000607C3C00446C3810386C44009CBCA0A06A
:10070000FC7C00004C64745C4C64000008083E777C
:100710004141000000000077770000004141773E32
:1007200008080000020301030203010011241FBE98
:10073000CFEFD4E0DEBFCDBF12E0A0E0B1E0E2ED4C
:10074000F1E202C005900D92AE37B107D9F722E071
:10075000AEE7B2E001C01D92AD38B207E1F70E94EA
:100760007C080C94E7100C9400000E941B0680E4A7
:100770000E942F060895CF92DF92EF92FF921F936F
:10078000CF93DF936C01FC01608171817695679551
:10079000769567957695679581E30E94CF05F6017A
:1007A00060816295660F607E82E30E94CF05F6014C
:1007B000628185E30E94CF05F60182818823A9F03A
:1007C0007601F3E0EF0EF11C16E3C0E0D0E0F70194
:1007D00061917F01812F0E94CF0521961F5FF60155
:1007E000828190E0C817D90794F30E94E305DF9156
:1007F000CF911F91FF90EF90DF90CF9008958F924F
:100800009F92AF92BF92CF92DF92EF92FF920F939F
:100810001F93CF93DF93CDB7DEB72B970FB6F89426
:10082000DEBF0FBECDBF4C01FE0131968BE0DF0174
:100830001D928A95E9F782E60E94BD05182F81E690
:100840000E94BD05129516951770B8E08B9FC001E8
:1008500011245C01A10EB11C85E60E94BD05082F84
:100860008823B1F07E01E4E0EE0EF11CCE01800F92
:10087000911D9C012C5F3F4F690116E6812F0E945C
:10088000BD05D7018D937D011F5FAC15BD05B1F787
:10089000BA82A9820B838BE0FE013196D4010190CC
:1008A0000D928A95E1F7C4012B960FB6F894DEBF3E
:1008B0000FBECDBFDF91CF911F910F91FF90EF90B1
:1008C000DF90CF90BF90AF909F908F900895282F8A
:1008D000249FC001259F900D1124992314F4815069
:1008E0009F4F292F392F330F330BFA0155230CF467
:1008F0003196F595E795DF01A60FB71FA217B3074D
:100900009CF4421B530B469FC001479F900D569F7E
:10091000900D1124AF01461B570BBA010E945C0BCE
:10092000C901861B970B0895269FC001279F900D34
:10093000369F900D1124BD010E945C0BC901861BDE
:10094000970B08951F93CF93DF9383E00E944C0B86
:10095000C82F82E00E944C0B182F44E650E06EE056
:1009600070E08C2F0E946704EC0144E650E06FE0D9
:1009700070E0812F0E946704AE01BC01CB01BA0177
:10098000DF91CF911F91089585B7806885BF80B7AB
:10099000806280BF0895FB01F05F80830895905FBF
:1009A000FC01808108955D9BFECF8CB908955F9B0B
:1009B000FECF8CB1089590BD89B988E18AB98EE8DF
:1009C00080BD089567ED74E083ED94E00E94080D0A
:1009D000089584E084BBAA9A2FEF8FEF9EE0215008
:1009E00080409040E1F700C00000AA982FEF8FEF01
:1009F0009EE0215080409040E1F700C00000EBCF26
:100A000080EB87BB81E58DB908958FB9779BFECFC9
:100A1000089580E00E9405058FB10895CF92DF927E
:100A2000EF92FF920F931F93CF93DF938BE191E0AF
:100A30000E94690D0E94F10C7C010E94F60CC12CF1
:100A4000D12C00E010E0C1E3D1E00E94F10CF601EE
:100A5000F85E808320812817A9F099279F938F93B0
:100A60001F922F93DF92CF92DF93CF930E94530D6B
:100A70000F5F1F4F8DB79EB708960FB6F8949EBFB5
:100A80000FBE8DBF9FEFC91AD90AC11488E0D806DE
:100A9000E1F6C7010E94F60CC0E0D0E0E12CF12C99
:100AA0000F2EFAE6CF2EF1E0DF2EF02D0E94F10C92
:100AB000FE01F85E20812817B1F099279F938F934C
:100AC0001F922F93DF93CF93DF92CF920E94530D0B
:100AD0009FEFE91AF90A8DB79EB708960FB6F894FA
:100AE0009EBF0FBE8DBF2196C11598E0D907F1F6C4
:100AF000FF92EF921F930F9387EA91E09F938F935A
:100B00000E94530D0F900F900F900F900F900F9029
:100B1000DF91CF911F910F91FF90EF90DF90CF90D9
:100B200008958BB780688BBF85B7886085BF85B710
:100B30008B7F85BF8B9808951FBC1EBC1DBC1CBC41
:100B400084E690E09BBD8ABD8EB588608EBD8EB573
:100B500085608EBD89B7806489BF08958BB7806436
:100B60008BBF85B7886085BF85B78B7F85BF8A9827
:100B70000895C4980895C49A0895CF93C82F0E94E9
:100B8000B90583E00E9405058C2F0E9405050E948F
:100B90000905C82F0E94BB058C2FCF910895CF93D4
:100BA000DF93D82FC62F0E94B90582E00E94050569
:100BB0008D2F0E9405058C2F0E9405050E94BB0504
:100BC000DF91CF9108950E94B90581E80E94050543
:100BD0000E94BB050895CF930E94B90580EA0E9448
:100BE00005050E940905C82F0E94BB058C2FCF91D7
:100BF00008951F93CF93DF93182FD62FC42F0E94F1
:100C0000B90585E00E940505812F0E9405058D2FFD
:100C10000E9405058C2F0E9405050E94BB05DF91EF
:100C2000CF911F9108950E94B90580EC0E9405059F
:100C30000E94BB0508950E9400050E9413068EE0E5
:100C40000E94BD05807E803839F080E092E00E94ED
:100C5000690D81E090E0089580E090E00895CF93E1
:100C6000C82F482F60EE8FE00E94F9058EE00E94A9
:100C7000BD05807EC81739F089E392E00E94690DB6
:100C800081E090E002C080E090E0CF910895E09193
:100C90007E02F0917F020280F381E02D84819581B4
:100CA00090937F0280937E021092810210928002C4
:100CB0000895E0917E02F0917F020190F081E02D95
:100CC0008481958190937F0280937E0210928102AD
:100CD0001092800208950F931F93CF93DF938C019E
:100CE000EB0186E090E00E94840BFC0111830083FD
:100CF000D383C28315821482DF91CF911F910F910C
:100D00000895EF92FF920F931F93CF93DF938C017F
:100D10007B01EA018AE090E00E94840BFC01F382EF
:100D2000E28211830083D187C087158214821782E3
:100D30001682DF91CF911F910F91FF90EF90089550
:100D4000CF92DF92EF92FF920F931F93CF93DF9397
:100D5000CDB7DEB764970FB6F894DEBF0FBECDBF38
:100D6000E0917E02F0917F02E080F18000E010E0EF
:100D70002CC0C801880F991FD701ED91FC91E80F95
:100D8000F91F65917491CE0101960E94010D6801D1
:100D9000BFEFCB1ADB0A68E070E0C6010E940109D0
:100DA00080918002909181020817190739F460E060
:100DB00070E0CE0101960E94200A06C060E070E05B
:100DC000CE0101960E94B0098601F70182819381CC
:100DD0000817190774F264960FB6F894DEBF0FBEB9
:100DE000CDBFDF91CF911F910F91FF90EF90DF90DA
:100DF000CF9008958F929F92AF92BF92CF92DF9241
:100E0000EF92FF920F931F93CF93DF9364E070E014
:100E100084EB90E00E946B067C0164E070E08AE75E
:100E200090E00E946B068C0163E070E080E790E048
:100E30000E946B066C0140E050E060E070E0C7018A
:100E40000E948106EC0147E456E0B801C7010E9408
:100E500081064C0147E456E0B601C7010E948106B5
:100E60005C0140E050E060E070E0C7010E94810654
:100E70009D828C82F401D783C683B582A482F5015A
:100E80009782868295838483FC01B782A682D5836C
:100E9000C4839F838E83F701D583C48340E050E0F1
:100EA00060E070E0C8010E9481067C0140E050E0F3
:100EB00060E070E0C8010E9481064C0140E050E013
:100EC00060E070E0C8010E9481065C0149E556E0DF
:100ED00060E070E0C8010E948106F701958284827B
:100EE000F401F782E682B582A482F50197828682B8
:100EF00095838483FC01B782A682F582E482F701A0
:100F000097838683F801F582E48240E050E060E058
:100F100070E0C6010E9481068C0149E556E060E060
:100F200070E0C6010E948106F80195838483FC016C
:100F300017830683F60115830483D0937F02C09341
:100F40007E02109281021092800280E090E00E9466
:100F5000A006DF91CF911F910F91FF90EF90DF904E
:100F6000CF90BF90AF909F908F900895FC017583B4
:100F70006483FB019783868308950E94A60A0097E5
:100F800019F0019731F14BC0E0917E02F0917F02A0
:100F90000480F581E02DF0937F02E0937E02809142
:100FA000800290918102009759F40190F081E02D28
:100FB000828193810197909381028093800205C082
:100FC0000197909381028093800281E08093820256
:100FD00026C0E0917E02F0917F020680F781E02D2D
:100FE000F0937F02E0937E028091800290918102D3
:100FF0000190F081E02D22813381215031092817A1
:10100000390729F4109281021092800205C00196DE
:10101000909381028093800281E0809382022FEF7F
:101020008FE392E0215080409040E1F700C0000043
:1010300008951F920F920FB60F9211242F933F9392
:101040004F935F936F937F938F939F93AF93BF93D0
:10105000EF93FF93E0917E02F0917F02808591856E
:10106000892B69F00E940C0981E080938202E09153
:101070007E02F0917F020084F185E02D0995FF91B9
:10108000EF91BF91AF919F918F917F916F915F9100
:101090004F913F912F910F900FBE0F901F90189579
:1010A0001F920F920FB60F9211242F933F934F93DD
:1010B0005F936F937F938F939F93AF93BF93EF93C0
:1010C000FF9380918202882331F01092820280E0A7
:1010D00090E00E94A006FF91EF91BF91AF919F9188
:1010E0008F917F916F915F914F913F912F910F90D1
:1010F0000FBE0F901F901895CF93DF93CDB7DEB73B
:1011000066970FB6F894DEBF0FBECDBF0E94C40431
:10111000F8940E9491050E949C0578948FE190E0DC
:101120000E94DB040E94E2040E940E050E94490B0B
:101130000E9428090E940C090E94FA060E94B50329
:101140008BE0EAE0F1E0DE01119601900D928A95C4
:10115000E1F71F9288E08F9387E592E09F938F934A
:101160000E94530DCE0101960E94BB03CE010C9646
:101170000E94FF038D858F938C858F938DE592E080
:101180009F938F930E94530D8E851F928F9386E6B7
:1011900092E09F938F930E94530DCE010F969F93E1
:1011A0008F9383E792E09F938F930E94530D0FB626
:1011B000F894DEBF0FBECDBF0E94BD07FDCF809368
:1011C000001008958093001208958830910518F456
:1011D00080558093001008958038910588F4282F59
:1011E0002F70E0E0F0E12083807F99279595879527
:1011F000959587959595879595958795805F80833B
:101200000895CF93DF93EB010E94E508CE010E9481
:10121000EC08DF91CF9108950F931F93CF93DF9345
:1012200000E010E0C0E0D2E160E070E0C8010E94A0
:10123000010980E890E018820197E9F70F5F1F4FDE
:101240000830110589F7DF91CF911F910F91089513
:10125000E0E0F0E18EEA808381EA80838AED80839A
:1012600082E1808388EC808388EA80838FE38083B7
:1012700085ED808380E8808381E8808380E58083BA
:1012800089ED808381E2808380E2808382E08083B5
:101290008BED808380E380838DEA8083108284EAF3
:1012A000808386EA80838FEA80830E940C090895F8
:1012B00090EE980F9F3508F052C061307105E9F04B
:1012C00020F062307105B1F10895082E000C990BE1
:1012D0008097880F991F880F991F880F991FFC010D
:1012E000EC5CFB4F845C9B4FA0E0B2E124912C931B
:1012F0003196E817F907D1F70895082E000C990BDD
:101300009C01220F331F220F331F820F931F20E0F7
:1013100030E0805A9109A0E0B2E1FC01E20FF31F36
:10132000E75AFD4FE491EC932F5F3F4F2530310595
:10133000A1F70895082E000C990B8097880F991F2C
:10134000880F991FFC01E352FF4F8F519F4FA0E080
:10135000B2E124912C933196E817F907D1F708955B
:101360000F931F93CF93DF93EC018881882341F083
:101370008B012196B8010E94580989918111FACFF9
:10138000DF91CF911F910F91089590EE980F9F35A7
:1013900008F055C061307105F1F020F06230710540
:1013A000C1F10895082E000C990B8097880F991FA2
:1013B000880F991F880F991FFC01EC5CFB4F845C20
:1013C0009B4FA0E0B2E1249120952C933196E81731
:1013D000F907C9F70895082E000C990B9C01220FFC
:1013E000331F220F331F820F931F20E030E0805AFB
:1013F0009109A0E0B2E1FC01E20FF31FE75AFD4FB3
:10140000E491E095EC932F5F3F4F2530310599F73C
:101410000895082E000C990B8097880F991F880F4C
:10142000991FFC01E352FF4F8F519F4FA0E0B2E1A3
:10143000249120952C933196E817F907C9F7089560
:101440000F931F93CF93DF93EC018881882341F0A2
:101450008B012196B8010E94C50989918111FACFAB
:10146000DF91CF911F910F910895E0E0F2E188E1C3
:10147000808380839EE790839CE39083808308959C
:1014800090E080589109FA01E21BF30B8E9FD00186
:101490008F9FB00D9E9FB00D1124BB2314F4A1505B
:1014A000BF4FEB2FFB2FFF0FFF0B6E177F07A4F42F
:1014B0009A012E1B3F0B269FC001279F900D369F40
:1014C000900D11249A01261B370BB9010E945C0B69
:1014D000CF01861B970B0895A9014E1B5F0B469FFA
:1014E000C001479F900D569F900D1124A901461BE6
:1014F000570BBA010E945C0BCF01861B970B089516
:101500001F93CF93DF9380E00E944C0BC82F81E0A4
:101510000E944C0B182F2CE93FEF44E650E06AE1A3
:1015200070E08C2F0E94400AEC012CE93FEF44E66A
:1015300050E06CE170E0812F0E94400AAE01BC01D6
:10154000CB01BA01DF91CF911F9108950E94800ACB
:101550009B01AC01633371059CF0DC01992324F4F9
:10156000AA27BB27A81BB90BFB01332324F4EE27C2
:10157000FF27E61BF70BAE17BF070CF44DC068C082
:101580006E3CEFEF7E0794F4DC01992324F4AA2744
:10159000BB27A81BB90BFB01332324F4EE27FF273D
:1015A000E61BF70BAE17BF07D4F14EC0433351050E
:1015B00094F0FB01332324F4EE27FF27E61BF70BFF
:1015C0009C01552324F422273327281B390B2E177F
:1015D0003F07B4F027C04E3CEFEF5E078CF4FB01F1
:1015E000332324F4EE27FF27E61BF70B9C0155233A
:1015F00024F422273327281B390B2E173F07ACF47E
:101600009B01275F3F4F2331310590F409964397A3
:1016100090F485E090E0089583E090E0089582E002
:1016200090E0089580E090E0089581E090E00895D2
:1016300084E090E0089584E090E0089580E090E0F8
:10164000089581E090E008954333510534F0F6CFDA
:101650002E3CEFEF3E07C4F3A9CF4E3C5F4F84F61C
:10166000F0CFB89A83B7886083BF83B78F7B83BF7F
:1016700083B78F7D83BF83B7806183BF83B78B7F41
:1016800083BF83B78D7F83BF83B7816083BF11BE64
:1016900008950E94310B0895109200140000482F05
:1016A00050E020E030E0E0E0F4E180812F5F3F4F48
:1016B00042175307D4F7089597FB072E16F40094AA
:1016C00007D077FD09D00E94700B07FC05D03EF4CF
:1016D000909581959F4F0895709561957F4F0895DE
:1016E000AA1BBB1B51E107C0AA1FBB1FA617B70748
:1016F00010F0A61BB70B881F991F5A95A9F7809564
:101700009095BC01CD0108950F931F93CF93DF9364
:101710008230910510F482E090E0E0918502F09132
:10172000860220E030E0A0E0B0E0309719F140817F
:1017300051810281138148175907C8F08417950712
:1017400069F4109731F012960C93129713961C932C
:1017500027C0009385021093860222C0211531050F
:1017600019F04217530718F49A01BD01EF01DF0188
:10177000F801DBCF21153105F9F0281B390B243096
:10178000310580F48A819B816115710521F0FB018F
:101790009383828304C09093860280938502FE0126
:1017A000329644C0FE01E20FF31F819391932250C1
:1017B0003109398328833AC0209183023091840211
:1017C000232B41F4209102013091030130938402D4
:1017D00020938302209100013091010121153105F0
:1017E00041F42DB73EB74091040150910501241BEF
:1017F000350BE0918302F0918402E217F307A0F425
:101800002E1B3F0B2817390778F0AC014E5F5F4F56
:101810002417350748F04E0F5F1F50938402409302
:1018200083028193919302C0E0E0F0E0CF01DF9169
:10183000CF911F910F910895CF93DF93009709F4F3
:1018400081C0FC01329713821282A0918502B0916F
:101850008602109781F420813181820F931F20919D
:101860008302309184022817390751F5F0938402DE
:10187000E093830267C0ED0120E030E0CE17DF0780
:1018800040F44A815B819E0141155105F1F0EA0166
:10189000F5CFD383C28340815181840F951FC81730
:1018A000D90759F488819981840F951F02969183F5
:1018B00080838A819B81938382832115310529F45A
:1018C000F0938602E09385023DC0E901FB83EA8341
:1018D00049915991C40FD51FEC17FD0761F4808120
:1018E0009181840F951F0296E901998388838281F3
:1018F00093819B838A83E0E0F0E012968D919C9126
:101900001397009719F0FD01DC01F7CF8D919C91A1
:1019100011979D012E5F3F4F820F931F20918302ED
:10192000309184022817390769F4309729F410920E
:1019300086021092850202C013821282B093840242
:10194000A0938302DF91CF9108958F929F92AF92DF
:10195000BF92CF92DF92EF92FF92CF93DF93EC0191
:10196000688179818A819B81611571058105910565
:1019700021F464E279ED8BE597E02DE133EF41E06E
:1019800050E00E944D1049015A019B01AC01A7EAA9
:10199000B1E40E946C106B017C01ACEEB4EFA501C8
:1019A00094010E947A10DC01CB018C0D9D1DAE1DAF
:1019B000BF1DB7FF03C00197A109B0488883998371
:1019C000AA83BB839F77DF91CF91FF90EF90DF9049
:1019D000CF90BF90AF909F908F9008950E94A50CDC
:1019E000089586E091E00E94A50C0895A0E0B0E083
:1019F0008093060190930701A0930801B093090119
:101A00000895FB01DC0105900D920020E1F7089597
:101A10000F931F93CF93DF93009731F461157105F6
:101A200019F480E090E03AC08B01EC016EE070E0C8
:101A300081E090E00E947A0FFC01892B91F380E80D
:101A400083830115110571F01387028781E8838371
:101A50008091870290918802892B21F4F09388026B
:101A6000E09387022097C9F0D187C0878381826085
:101A700083838091890290918A02892B71F4F0937B
:101A80008A02E093890280918B0290918C02892BCB
:101A900021F4F0938C02E0938B02CF01DF91CF9180
:101AA0001F910F910895A0E0B0E0E9E5FDE00C94EE
:101AB0008F10AE014B5F5F4FFA0161917191AF01E1
:101AC0008091890290918A020E94990DE2E00C9423
:101AD000AB100F931F93CF93DF93E0918902F091A6
:101AE0008A02238121FF1BC08C01D0E0C0E0F801F5
:101AF00081918F016091890270918A02DB011896B1
:101B0000ED91FC911997882331F00995892B79F390
:101B1000DFEFCFEFECCF8AE00995892B19F08FEF3B
:101B20009FEF02C08D2F9C2FDF91CF911F910F91BE
:101B30000895ABE0B0E0EFE9FDE00C947F106C019C
:101B40007B018A01FC0117821682838181FFCCC14F
:101B5000CE0101963C01F6019381F70193FD859139
:101B600093FF81917F01882309F4BAC1853239F44A
:101B700093FD859193FF81917F01853229F4B60110
:101B800090E00E94B30FE7CF912C212C312CFFE184
:101B9000F315D8F08B3279F038F4803279F0833253
:101BA000A1F4232D20611DC08D3261F0803369F4D2
:101BB000232D216016C0832D8260382EE32DE46032
:101BC0003E2E2AC0F32DF8601DC037FC2DC020ED3D
:101BD000280F2A3040F08E32B9F436FC81C1232D13
:101BE0002064322E19C036FE06C08AE0989E200D71
:101BF0001124922E11C0EAE02E9E200D1124222ED7
:101C0000F32DF0623F2E08C08C3621F4832D8068BE
:101C1000382E02C0883641F4F70193FD859193FF79
:101C200081917F018111B3CF982F9F7D955493307F
:101C300028F40C5F1F4F9FE399830DC0833631F06A
:101C4000833771F0833509F059C021C0F8018081D4
:101C500089830E5F1F4F88248394912C530113C0F6
:101C60002801F2E04F0E511CF801A080B18036FE31
:101C700003C0692D70E002C06FEF7FEFC5010E94C5
:101C8000A80F4C018201F32DFF773F2E16C02801CB
:101C900022E0420E511CF801A080B18036FE03C044
:101CA000692D70E002C06FEF7FEFC5010E94960FB3
:101CB0004C01F32DF0683F2E820133FC1BC0822DB6
:101CC00090E088169906B0F4B60180E290E00E9498
:101CD000B30F2A94F4CFF50137FC859137FE81913B
:101CE0005F01B60190E00E94B30F21102A9421E019
:101CF000821A91088114910471F7E8C0843611F0BA
:101D0000893641F5F80137FE07C060817181828113
:101D100093810C5F1F4F08C060817181072E000CFA
:101D2000880B990B0E5F1F4FF32DFF763F2E97FF09
:101D300009C090958095709561957F4F8F4F9F4F0B
:101D4000F0683F2E2AE030E0A3010E94EF0F882EBA
:101D5000861845C0853731F4232D2F7EB22E2AE018
:101D600030E025C0932D997FB92E8F36C1F018F43D
:101D7000883579F0B5C0803719F0883721F0B0C0C8
:101D8000E92FE061BE2EB4FE0DC0FB2DF460BF2E26
:101D900009C034FE0AC0292F2660B22E06C028E0F2
:101DA00030E005C020E130E002C020E132E0F8017F
:101DB000B7FE07C060817181828193810C5F1F4FE4
:101DC00006C06081718180E090E00E5F1F4FA3012B
:101DD0000E94EF0F882E8618FB2DFF773F2E36FED0
:101DE0000DC0232D2E7FA22E891458F434FE0BC073
:101DF00032FC09C0832D8E7EA82E05C0B82CA32CE2
:101E000003C0B82C01C0B92CA4FE0FC0FE01E80D20
:101E1000F11D8081803321F49A2D997EA92E09C06D
:101E2000A2FE06C0B394B39404C08A2D867809F04C
:101E3000B394A3FC11C0A0FE06C0B21488F4280C11
:101E4000922C9B180EC0B21460F4B60180E290E0B0
:101E50000E94B30FB394F7CFB21418F42B1802C03A
:101E6000982C212CA4FE10C0B60180E390E00E94C3
:101E7000B30FA2FE17C0A1FC03C088E790E002C028
:101E800088E590E0B6010CC08A2D867859F0A1FE55
:101E900002C08BE201C080E2A7FC8DE2B60190E0B7
:101EA0000E94B30F891438F4B60180E390E00E94D9
:101EB000B30F9A94F7CF8A94F301E80DF11D808156
:101EC000B60190E00E94B30F8110F5CF222009F4F3
:101ED00042CEB60180E290E00E94B30F2A94F6CF82
:101EE000F6018681978102C08FEF9FEF2B96E2E18A
:101EF0000C949B100F931F93CF93DF93869F8001C9
:101F0000879F100D969F100D1124C8010E94840B0D
:101F1000EC01009729F0A80160E070E00E94A10F99
:101F2000CE01DF91CF911F910F910895FC01059093
:101F3000615070400110D8F7809590958E0F9F1FCB
:101F40000895DC0101C06D9341505040E0F70895C1
:101F5000FC016150704001900110D8F78095909578
:101F60008E0F9F1F08950F931F93CF93DF93FB0155
:101F7000238121FD03C08FEF9FEF2CC022FF16C0ED
:101F800046815781248135814217530744F4A0814B
:101F9000B1819D012F5F3F4F318320838C93268138
:101FA00037812F5F3F4F3783268314C08B01EC01AD
:101FB000FB010084F185E02D0995892BE1F6D8011C
:101FC00016968D919C911797019617969C938E93D8
:101FD0001697CE01DF91CF911F910F910895FA01CD
:101FE000AA27283051F1203181F1E8946F936E7F58
:101FF0006E5F7F4F8F4F9F4FAF4FB1E03ED0B4E049
:102000003CD0670F781F891F9A1FA11D680F791F89
:102010008A1F911DA11D6A0F711D811D911DA11D9A
:1020200020D009F468943F912AE0269F11243019AA
:10203000305D3193DEF6CF010895462F4770405D45
:102040004193B3E00FD0C9F7F6CF462F4F70405DF4
:102050004A3318F0495D31FD4052419302D0A9F74F
:10206000EACFB4E0A6959795879577956795BA9549
:10207000C9F700976105710508959B01AC010A2E0F
:1020800006945795479537952795BA95C9F7620FE6
:10209000731F841F951FA01D0895052E97FB1EF426
:1020A00000940E94641057FD07D00E94B61007FCF0
:1020B00003D04EF40C9464105095409530952195C2
:1020C0003F4F4F4F5F4F0895909580957095619564
:1020D0007F4F8F4F9F4F08950E94D810A59F900D5E
:1020E000B49F900DA49F800D911D11240895B7FFFA
:1020F0000C946C100E946C10821B930B08952F920D
:102100003F924F925F926F927F928F929F92AF9287
:10211000BF92CF92DF92EF92FF920F931F93CF93D4
:10212000DF93CDB7DEB7CA1BDB0B0FB6F894DEBF6B
:102130000FBECDBF09942A88398848885F846E8491
:102140007D848C849B84AA84B984C884DF80EE80DB
:10215000FD800C811B81AA81B981CE0FD11D0FB6E4
:10216000F894DEBF0FBECDBFED010895A1E21A2E97
:10217000AA1BBB1BFD010DC0AA1FBB1FEE1FFF1F2B
:10218000A217B307E407F50720F0A21BB30BE40B7B
:10219000F50B661F771F881F991F1A9469F76095C2
:1021A0007095809590959B01AC01BD01CF0108957C
:1021B000A29FB001B39FC001A39F700D811D112488
:1021C000911DB29F700D811D1124911D0895F894E9
:0221D000FFCF3F
:1021D20000008D02200001000000140008686569FB
:1021E2006900000000080005000400537461727465
:1021F200696E67205352414D20746573742E2E2EE2
:102202000057726974652070686173652065727227
:102212006F723A206578745F72616D5B2534645D1C
:10222200203D2025303258202873686F756C642059
:1022320062652025303258290A0052657472696538
:1022420076616C207068617365206572726F723A94
:10225200206578745F72616D5B2534645D203D207A
:1022620025303258202873686F756C6420626520AF
:1022720025303258290A005352414D207465737437
:1022820020636F6D706C6574656420776974682073
:102292000A253464206572726F727320696E20772A
:1022A2007269746520706861736520616E64200ACA
:1022B200253464206572726F727320696E207265B4
:1022C2007472696576616C2070686173650A0D00CD
:1022D2004552524F523A204D435032353135206EDD
:1022E2006F7420696E20636F6E66696775726174C0
:1022F200696F6E206D6F646520616674657220720D
:10230200657365742E200D20004552524F523A20BB
:102312006661696C656420746F20736574206D6FEB
:1023220064652E200D20002564200D0A0069643AA0
:102332002025640D0A006C656E6774683A20256476
:0E2342000D0A00646174613A2025730D0A00D3
:00000001FF
